:020000040800F2
:10000000081800200D020008FF050008F705000889
:10001000FB050008BF0400085F1D00080000000089
:10002000000000000000000000000000A117000810
:10003000C3040008000000009B020008B518000877
:1000400027020008270200082702000827020008EC
:1000500027020008270200082702000827020008DC
:1000600027020008270200082702000827020008CC
:1000700027020008270200082702000827020008BC
:1000800027020008270200082702000827020008AC
:10009000270200082702000827020008270200089C
:1000A000270200082702000827020008270200088C
:1000B000270200082702000827020008270200087C
:1000C000270200082702000827020008270200086C
:1000D00027020008711C00082702000827020008F8
:1000E000270200082702000827020008270200084C
:1000F000270200082702000827020008270200083C
:10010000270200082702000827020008270200082B
:10011000270200082702000827020008270200081B
:10012000270200082702000827020008270200080B
:1001300000F002F800F05AF80AA090E8000C82449F
:100140008344AAF10107DA4501D100F04FF8AFF27C
:10015000090EBAE80F0013F0010F18BFFB1A43F0A5
:1001600001031847A82C0000C82C00000A444FF0D7
:10017000000C10F8013B13F0070408BF10F8014B06
:100180001D1108BF10F8015B641E05D010F8016B4B
:10019000641E01F8016BF9D113F0080F1EBF10F8AF
:1001A000014BAD1C0C1B09D16D1E58BF01F801CBD2
:1001B000FAD505E014F8016B01F8016B6D1EF9D555
:1001C0009142D6D37047000000230024002500266A
:1001D000103A28BF78C1FBD8520728BF30C148BFAA
:1001E0000B6070471FB51FBD10B510BD00F08DF836
:1001F0001146FFF7F7FF02F065F800F0ABF803B423
:10020000FFF7F2FF03BC01F0ACFD00000948804796
:1002100009480047FEE7FEE7FEE7FEE7FEE7FEE7E8
:10022000FEE7FEE7FEE7FEE704480549054A064B00
:1002300070470000D11800083101000808120020A2
:10024000081800200814002008140020EFF3108084
:1002500072B6704780F310887047204C204D25609F
:100260004FF0000484F309881E4C4FF001052570FF
:100270001D4C4FF08055256062B6FEE730B41A4C35
:100280004FF08055256030BC704730B4164C4FF0AD
:100290008055256030BC704700BF72B6EFF309800F
:1002A00028B1203880E8F00F10490968086000B5CF
:1002B0000F4880475DF804EB0E480F490A7802703A
:1002C0000A480E490A680260106890E8F00F203072
:1002D00080F309884EF0040E62B6704720ED00E00E
:1002E0000000FFFF3E02002004ED00E04402002079
:1002F000D50E000833020020340200204C020020FA
:1003000070477047704770477047754600F02CF88B
:10031000AE4605006946534620F00700854618B0F2
:1003200020B5FFF781FFBDE820404FF000064FF0F9
:1003300000074FF000084FF0000B21F00701AC461A
:10034000ACE8C009ACE8C009ACE8C009ACE8C00939
:100350008D46704710B50446AFF300802046BDE8D7
:100360001040FFF74CBF000000487047A811002064
:1003700021B1826842F00102826003E0826822F0CB
:100380000102826070470146C86C80B27047024625
:10039000002013680B400BB1012000E000207047E3
:1003A00030B502460020002350680F4C20400D79E4
:1003B0000C6844EA05242043506090680B4C2040B0
:1003C000D1E902542C434D7944EA4504204390601E
:1003D000D06A20F470000C7C641EE4B2234340EA2F
:1003E0000350D06230BD0000FFFEF0FFFDF7F1FFCB
:1003F000F0B504460D4600200021092D11DDE0680E
:10040000A5F10A0606EB4607072606FA07F1884318
:10041000A5F10A0606EB460603FA06F10843E0607A
:100420000CE0206905EB4507072606FA07F188432B
:1004300005EB450603FA06F108432061072A0FDAA7
:10044000606B561E06EB86071F2606FA07F18843E7
:10045000561E06EB860605FA06F10843606322E0A5
:100460000D2A0FDA206BD61F06EB86071F2606FA29
:1004700007F18843D61F06EB860605FA06F1084306
:10048000206310E0E06AA2F10D0606EB86071F2646
:1004900006FA07F18843A2F10D0606EB860605FA77
:1004A00006F10843E062F0BD21B1826842F4A00287
:1004B000826003E0826822F4A0028260704700BF7D
:1004C000FEE770472DE9F041024600250026002096
:1004D00000230024002791F803C00CF00F0591F8C9
:1004E00003C00CF0100CBCF1000F03D091F802C057
:1004F0004CEA050591F800C0BCF1000F31D014683A
:1005000000202BE04FF0010C0CFA00F3B1F800C012
:100510000CEA03069E4220D183004FF00F0C0CFA28
:1005200003F7BC4305FA03FC4CEA040491F803C04A
:10053000BCF1280F06D14FF0010C0CFA00FCC2F8F8
:1005400014C00AE091F803C0BCF1480F05D14FF088
:10055000010C0CFA00FCC2F810C0401C0828D1D3D2
:100560001460B1F800C0BCF1FF0F34DD5468002006
:100570002EE000F1080C4FF0010808FA0CF3B1F876
:1005800000C00CEA03069E4221D183004FF00F0CFD
:100590000CFA03F7BC4305FA03FC4CEA040491F897
:1005A00003C0BCF1280F05D100F1080C08FA0CF8C3
:1005B000C2F8148091F803C0BCF1480F07D100F1D4
:1005C000080C4FF0010808FA0CF8C2F81080401C23
:1005D0000828CED35460BDE8F0810246002093681D
:1005E0000B400BB1012000E0002070470AB101610F
:1005F00000E04161704700BFFEE700BFFEE77047C3
:1006000002490143024A1160704700000000FA05E8
:100610000CED00E02DE9F04106460D460027134899
:10062000007820B1102028700020BDE8F081FFF78D
:100630000DFE07460E48046884B1006840680C4906
:1006400008600520207026810020606009A0E0601D
:100650003846FFF7FFFD0020287004E03846FFF71A
:10066000F9FD722028702046DFE7000031020020EB
:10067000200200203F0000002DE9F04F89B0054620
:100680000F4691469A46129E002002908C480078B0
:1006900028B102203070002009B0BDE8F08F8948F1
:1006A000007818B10D2030700020F5E72878052873
:1006B00003D0012030700020EEE709F0800BBBF181
:1006C000000F04D009F07F094FF0010801E04FF05E
:1006D0000008FFF7BBFD0290B9F1000F4AD0B9F155
:1006E000010F68D0B9F1020F03D0B9F1030F76D131
:1006F00020E0288900EA0704BC420FD1B8F1010FBD
:1007000002D12889A04328816F4800680485029897
:10071000FFF7A0FD002030702046BDE74B463A466B
:1007200004A92846CDF800A000F0BAFC0298FFF713
:1007300091FD69E0288900EA07047CB1B8F1010F56
:1007400002D12889A04328815F4800680485029867
:10075000FFF780FD0020307020469DE74B463A466B
:1007600004A92846CDF800A000F09AFC0298FFF7F3
:1007700071FD49E0288927EA0004BC420FD1B8F195
:10078000010F02D12889204328814F480068048541
:100790000298FFF75FFD0020307020467CE74B4653
:1007A0003A4604A92846CDF800A000F079FC02984A
:1007B000FFF750FD28E0288927EA000484B1B8F14A
:1007C000010F02D12889204328813F480068048511
:1007D0000298FFF73FFD0020307020465CE70BE0F9
:1007E0004B463A4604A92846CDF800A000F058FC34
:1007F0000298FFF72FFD07E00298FFF72BFD00247A
:100800006F203070204647E700BF00F03FFEFFF743
:100810001DFD02902C48006890F8310020B32A4852
:10082000006890F83100039000202749096881F89A
:10083000310004A800F0E0FC00202349096881F899
:1008400030000298FFF706FD00240398012805D028
:10085000022802D10E20307003E000BF0A20307061
:1008600000BF00BF204617E717480068048DB8F1A5
:10087000010F1ED1B9F1000F0ED0B9F1010F0CD04C
:10088000B9F1020F03D0B9F1030F0AD100E000BFA4
:100890002889A04328810BE000BF288920432881B4
:1008A00006E00298FFF7D6FC6F2030700020F3E6D8
:1008B00000BF0298FFF7CEFC002030702046EBE628
:1008C0003102002032020020440200202DE9FC5FAA
:1008D0000446894692461E4600200090207805284E
:1008E00004D0012030700020BDE8FC9FFFF7AEFC73
:1008F0000090BAF1000F03D0BAF1010F0AD104E061
:10090000208920EA090020810BE0208940EA0900C3
:10091000208106E00098FFF79DFC712030700020D8
:10092000E2E700BF4FF0000B656855E0A87C40B3DC
:10093000012838D0022802D0032844D111E02089B0
:10094000298A00EA0107288AB84209D1394628468F
:1009500000F024FC8046B8F1010F01D14FF0010BEB
:1009600038E02089298A00EA01074FB13946284634
:1009700000F014FC8046B8F1010F01D14FF0010BDB
:1009800028E0288A218920EA0107288AB84209D16B
:100990003946284600F002FC8046B8F1010F01D12B
:1009A0004FF0010B16E0288A218920EA01074FB198
:1009B0003946284600F0F2FB8046B8F1010F01D11C
:1009C0004FF0010B06E00098FFF744FC6F203070F9
:1009D000002089E700BF2D68002DA7D10098FFF700
:1009E00039FCBBF1010F01D100F050FDFFF72EFCE7
:1009F0000090208901900098FFF72CFC00203070B7
:100A0000019871E710B500F013F800F031FC00F028
:100A100059FC00F079FC00F001FC00F093FB00F0C1
:100A20000DFD00F0B1FC00F0D7FC00F002F810BDA5
:100A30007047704706480078012808D105480078BB
:100A4000FF2804D203480078401C02490870704710
:100A50003E0200203102002010B500241A48007820
:100A6000012830D1FFF7F2FB04461848007820B186
:100A700016480078401E1549087014480078F8B9E7
:100A800013480078E0B900F03BFD1248124909789C
:100A900050F82100114908600F4800781049097882
:100AA00088420DD00D480068806B401C0B490968D6
:100AB00088630C480068401C0A490860FFF7E5FBA2
:100AC0002046FFF7C7FB10BD3E0200203102002088
:100AD00032020020400C0020340200204C02002092
:100AE000330200201802002010B50B48007890B99E
:100AF00000F006FD094800780949087009480749CF
:100B0000097850F82100084908600846006807493C
:100B10000860FFF7A2FB10BD3E0200203402002057
:100B200033020020400C00204C0200204402002030
:100B3000704700002DE9FE4F06460F4690461C46C2
:100B40004FF00009FFF782FB81461F48007828B16B
:100B50004846FFF77FFB3C20BDE8FE8F1B4850F85E
:100B6000240060BB0120194941F824004846FFF7E2
:100B700071FB002342463946304600F009F98246AF
:100B80000020009001900346024651460290204604
:100B900000F0CCFC054635B90D48007801280CD191
:100BA00000F074FC09E0FFF751FB81460020074983
:100BB00041F824004846FFF74DFB2846CCE748465D
:100BC000FFF748FB2820C7E731020020400C002037
:100BD0003E0200202DE9F04F85B081468A469346BB
:100BE0001C46DDE90F78129D00200390FFF72EFBD5
:100BF00003902348007830B10398FFF72BFB3C208B
:100C000005B0BDE8F08F1F4850F8240088BB0120D4
:100C10001C4941F824000398FFF71CFB2A46414673
:100C2000384600F093FD2B465A465146484600F0A0
:100C3000AFF804901198CDE9008002953A4620461D
:100C40000E9B049900F072FC064636B90E480078F7
:100C500001280CD100F01AFC09E0FFF7F7FA039025
:100C60000020084941F824000398FFF7F3FA3046C2
:100C7000C6E7FFE70398FFF7EDFA2820C0E700007A
:100C800031020020400C00203E02002070477047D7
:100C90002DE9F04106460F4614464FF0000815486E
:100CA000007818B112202070BDE8F081FFF7CEFA6D
:100CB0008046FF2E03D11048006890F832600F483C
:100CC00050F826502DB94046FFF7C4FA4320207053
:100CD000EAE7012D05D14046FFF7BCFA432020701A
:100CE000E2E7EF644046FFF7B5FA0020207000BF4E
:100CF000DAE700003102002044020020400C00200E
:100D0000704700002DE9F04707460D464FF0000AF6
:100D1000002028606860FFF799FA8246FF2F03D110
:100D20001948006890F83270184850F827402CB9DC
:100D30005046FFF78FFA4320BDE8F087012C04D11D
:100D40005046FFF787FA4320F6E7207C00F00100C9
:100D500020B95046FFF77EFA4520EDE70026D4F88B
:100D60000C90D4F808805046FFF774FA00E0761C27
:100D700058F8041B0029FAD0B0002860A9EB06003F
:100D8000800068600020D7E744020020400C00206B
:100D900070B5044610464FF080750560051F284663
:100DA0002C606FF00106051F28462E604FF01236AA
:100DB000051F28462E604FF00336051F28462E607B
:100DC0004FF00236051F28462E607610051F284674
:100DD0002E60051F284629604FF01136051F284652
:100DE0002E604FF01036051F28462E604FF0093652
:100DF000051F28462E604FF00836051F28462E6036
:100E00004FF00736051F28462E604FF00636051FA7
:100E100028462E604FF00536051F28462E604FF0FD
:100E20000436051F28462E6070BD00002DE9F041F4
:100E300005464FF00008FFF709FA8046FF2D05D15F
:100E40002048006890F83250012608E01D480068EC
:100E500090F83200A84201D1012600E000261A488D
:100E600050F825402CB94046FFF7F4F94820BDE87A
:100E7000F081012C04D14046FFF7ECF94320F6E75E
:100E800094F834701148C05D94F8351088430F49C8
:100E9000C8550846C05D30B994F836100C48007843
:100EA00088430B49087094F8300040F0080084F83B
:100EB00030004046FFF7CEF9012E01D100F0E6FAEE
:100EC0000020D4E744020020400C0020360200201D
:100ED000350200207047000070B50546002617480F
:100EE000007800B170BD1648007800B1FAE71DB374
:100EF000FFF7ACF906461348006890F834401248F2
:100F0000005D1049096891F8351088430E4908556D
:100F10000846005D40B90B48006890F836100B4851
:100F2000007888430949087006480068C562304661
:100F3000FFF790F900F0AAFA00BFD3E731020020D2
:100F40003202002044020020360200203502002038
:100F50002DE9F04104460D4616461F46124800781A
:100F600010B15520BDE8F0811048007808B132205A
:100F7000F8E7B81CC82148434FF47A71B0FBF1F18F
:100F80004FF461606043C5EB051200EB8200304412
:100F900000EBC00202EB001001EBC0084046FFF777
:100FA0009BFF0020DEE7000031020020320200201B
:100FB00070B5002600F072F8FFF748F90646314890
:100FC0000068401C2F4908603046FFF743F92E485F
:100FD0000078012853D12D48007820B1012804D091
:100FE000022809D103E001250BE0002509E00125D5
:100FF00001202649087004E00125002023490870DB
:1010000000BF00BF05B970BD2148046833E0FFF799
:101010001DF90646E06A50B3E06A401EE062E06AED
:1010200028BB94F8300000F0370040B114F8300FBE
:1010300000F0C800207001206070303C02E0002009
:1010400084F8310094F8300000F0080078B93434A6
:10105000A0781049097808430E49087020780E4995
:10106000085C6178084314F834190B4A50546469D9
:101070003046FFF7EFF894F832003F28C7D100BFA1
:10108000C1E700005C0200203E0200205402002064
:101090005002002035020020360200207047000078
:1010A000F0B51446059E244F3F6897F8307047F01E
:1010B0002007DFF884C0DCF800C08CF8307000270F
:1010C000DFF874C0DCF800C08CF831701A4F3F684C
:1010D000FE62194F3F6879620C828B74164F3F682D
:1010E0008F6047680F6000274F60C860456805B192
:1010F00069604160104F3F6897F834200F4FBF5C24
:10110000DFF834C0DCF800C09CF835C027EA0C07D3
:10111000DFF828C00CF802706746BF5C5FB9064F65
:101120003F6897F836C0064F3F7827EA0C07DFF88C
:1011300010C08CF80070F0BD440200203602002080
:10114000350200202DE9F0415021114800F06CF9E2
:1011500000250DE0681C86B20D4800EB051400EB7D
:1011600006170020207067600AA0E060681C85B246
:10117000042DEFD3064800EB0514002020706060BA
:1011800004A0E060024804490860BDE8F081000066
:10119000F00700203F00000020020020F0B50646C6
:1011A0000F46B4680020283460602780207A00F061
:1011B000DF00207200206072207A283C88B9343425
:1011C000A0780B4909780843094908702078094933
:1011D000085C6178084314F83419064A5054012514
:1011E00000E00025304600F007F82846F0BD00007A
:1011F000350200203602002030B501464A680868F2
:101200002AB9CC68606028B10025456002E0106012
:1012100000B142608B6800255D6230BD70B5C821A9
:10122000114800F001F900230FE0581C85B203EBD0
:1012300083000D4901EB800405EB850001EB80067E
:10124000002020706660581C83B2092BEDD303EB9D
:101250008300054901EB800400202070606008468F
:101260000249086070BD0000280700201C02002011
:1012700000200A4908600A4908700A4908700A49AA
:1012800008700A4908700A4908600A4908600A4952
:1012900008600A4908600A49087070475C0200202B
:1012A00031020020320200203F0200203E020020D6
:1012B00018020020400200202C02002028020020FA
:1012C0003002002000210A4A1170002004E00021B1
:1012D000084A1154411CC8B20828F8D30021064A14
:1012E0001170064A1170064A1160064A1160704773
:1012F0003502002036020020330200203402002094
:101300004C0200204402002070B54FF47C71194853
:1013100000F08AF84FF48071174800F085F8002437
:1013200013E0601CC5B2C4EBC40000EB40001149DF
:1013300001EB8003C5EBC50000EB400001EB80062C
:101340005E610EA0D864601CC4B20B2CE9D3C4EB60
:10135000C40000EB4000074901EB80030020586106
:1013600006A0D864002006490860024805490860C4
:1013700070BD0000400D0020400C00203F00000028
:10138000500200204802002000B587B00320002151
:1013900080220A4BCDE90132CDE903104FF6FF70F0
:1013A0003F23074A00900748FFF714FC06AA06A14E
:1013B0003F20FFF76DFC07B000BD0000400A002091
:1013C0003C0C00206116000875432F4F532D4949EE
:1013D0002049646C6500000000B587B0032000213F
:1013E00080220A4BCDE90132CDE903104FF6FE70A1
:1013F0003E23074A00900748FFF7ECFB06AA06A128
:101400003E20FFF745FC07B000BD0000400800206B
:101410003C0A00208916000875432F4F532D494977
:10142000205374617400000004E0002200F8012BD6
:101430004A1E91B20029F8D1704700002DE9F04111
:1014400078211048FFF7F0FF00240DE0601C86B201
:1014500004EB44000B4901EBC00506EB460001EB31
:10146000C0072F60601C84B2042CEFD304EB44004F
:10147000044901EBC00500202860084602490860C5
:10148000BDE8F081301100205802002010B5002482
:10149000FEF7DCFE044613480078F8B912480078DD
:1014A000E0B900F02DF811481149097850F82100F1
:1014B000104908600E4800780F49097888420DD01D
:1014C0000C480068806B401C0A49096888630B4817
:1014D0000068401C09490860FEF7D0FE2046FEF770
:1014E000B9FE10BD3102002032020020400C002065
:1014F000340200204C020020330200201802002099
:101500000649074A1278885C0649095C034A515C1F
:1015100001EBC001044A1170704700000C2D000857
:101520003502002036020020340200202DE9F84F59
:1015300005460F4690469946DDE90AAB002000902B
:10154000FEF784FE00903F480468002C74D01834E5
:1015500054F8040C3B4908600098FEF77BFE44F801
:10156000187CA576002020766076606144F814BC73
:1015700044F80CAC44F8108C0C9824F8080C24F8AF
:10158000069C0020E077E810207705F00700E07661
:10159000217F01208840A077E17E0120884060778C
:1015A00000206060E060A0602062A0626062E06293
:1015B000206325A06063183C002606E0002104F1AA
:1015C000500040F82610701CC6B2002EF6D02046FF
:1015D000FFF7AEFA2046FFF759FBFEF737FE009003
:1015E0001A4840F825401A48006860610020A06150
:1015F0001748006810B116480068846114480460F8
:101600003434A078134909780843124908702078C7
:101610001149085C6178084314F834190E4A505493
:101620000E480078401C0D4908700098FEF712FE25
:101630000020BDE8F88FFFE70098FEF70BFE422080
:10164000F7E70000480200203F000000400C0020A7
:101650005002002035020020360200203F02002008
:10166000002400BF00BFFEF7F1FD044605480068F6
:10167000401C044908602046FEF7ECFDFFF707FB1D
:10168000F1E7000040020020002400BF02E0282013
:10169000FFF722FC194800780028F8D018480068A5
:1016A0006421B0FBF1F0164908600846006828B9CB
:1016B000002014490870FF20FFF7B8FB00BFFEF7B9
:1016C000C5FD0446104800681049086000200E4916
:1016D00008602046FEF7BEFD0C480068084909680E
:1016E000B0FBF1F0C0F1640006490870FFF708FB99
:1016F00000F00EF81420FFF7EFFBE0E730020020C7
:101700002802002024020020400200202C02002099
:101710007CB5002514E069462846FFF7F3FA064633
:1017200066B9094850F8254044B1012C06D0D4E9E7
:10173000020100EB810060640198A064681CC5B2DE
:101740003F2DE8D97CBD0000400C002002F00103D1
:1017500043B102F002032BB102E0491E002308C08E
:101760000029FAD17047000001460020034A506862
:1017700020F44040084350607047000000100240D1
:1017800029B1064A92690243044B9A6104E0034A74
:1017900092698243014B9A61704700000010024039
:1017A000704710B500F002F810BD00000CB5002025
:1017B000019000903348006840F48030314908605F
:1017C00000BF3048006800F4003000900198401CD1
:1017D0000190009818B90198B0F5A06FF1D129488F
:1017E000006800F4003010B10120009001E00020FA
:1017F00000900098012843D12348006840F0100071
:10180000214908600846006820F003000860084687
:10181000006840F0020008601A48406819494860B2
:101820000846406848600846406840F48060486068
:101830000846406820F47C1048600846406840F440
:10184000E81048600846006840F08070086000BFFB
:101850000C48006800F000700028F9D00948406882
:1018600020F00300074948600846406840F0020045
:10187000486000BF0348406800F00C000828F9D118
:101880000CBD00000010024000200240042808D1D6
:101890004FF0E021096941F004014FF0E0221161AD
:1018A00007E04FF0E021096921F004014FF0E02248
:1018B0001161704710B505480078012805D1FFF780
:1018C000B9F8FFF775FBFFF7C7F810BD3E0200201F
:1018D00010B51348006840F001001149086008463F
:1018E0004068104908400E494860084600680E49A3
:1018F00008400B4908600846006820F48020086012
:101900000846406820F4FE0048604FF41F008860DD
:10191000FFF747FF4FF000600449086010BD00006A
:10192000001002400000FFF8FFFFF6FE08ED00E0A7
:1019300021B1028842F08002028004E002884FF662
:101940007F731A40028070470A884B881A438B883D
:101950001A43CB881A430B891A434B891A438B8944
:101960001A43A0F84420704721B1028842F00102D6
:10197000028004E002884FF6FE731A40028070472E
:1019800031B1B0F8442042F40042A0F8442005E010
:10199000B0F84420C2F30E02A0F8442070470000C3
:1019A00070B5002400220023058C4FF6FE763540EA
:1019B0000584028C8388048B4FF68F752C40B51EEE
:1019C0002C400D882C43751E2A400D892A434D88D2
:1019D0002A43144DA8420BD0134DA84208D0134DF2
:1019E000A84205D0124DA84202D0124DA84213D1F0
:1019F0004FF6F7752A404D892A434FF6FB752A406A
:101A00008D882A434FF6FF652B404FF6FF552B403C
:101A10008D892B43CD892B4383800483CD88858694
:101A2000028470BD002C01400034014000400140A0
:101A300000440140004801400A460021018B4FF656
:101A4000F7731940114301837047000070B50024FB
:101A500000220023058C4FF6EF7635400584028C7A
:101A60008388048B48F6FF752C404FF6FF452C40C9
:101A70000D884FF6FF7606EA05252C434FF6DF75F5
:101A80002A400D8906EA05152A434D8806EA051500
:101A90002A43154DA84202D0144DA8421DD14FF63D
:101AA0007F752A404D894FF6FF7606EA05152A43D1
:101AB0004FF6BF752A408D8806EA05152A434FF672
:101AC000FF352B404FF2FF752B408D8906EA8505C7
:101AD0002B43CD8906EA85052B4383800483CD887B
:101AE0000587028470BD0000002C014000340140D5
:101AF0000A460021018B4FF2FF7319404FF6FF7326
:101B000003EA0223194301837047000070B50024E3
:101B100000220023058C4FF6FF6635400584028CB9
:101B20008388848B4FF68F752C404FF6FC752C40C4
:101B30000D882C434FF6FF552A400D894FF6FF764E
:101B400006EA05252A434D8806EA05252A43154D50
:101B5000A84202D0144DA8421DD14FF2FF752A4071
:101B60004D894FF6FF7606EA05252A434FF6FF35E5
:101B70002A408D8806EA05252A434EF6FF752B403C
:101B80004DF6FF752B408D8906EA05152B43CD894F
:101B900006EA05152B4383808483CD8885870284DC
:101BA00070BD0000002C0140003401400A460021B5
:101BB000818B4FF6F77319401143818370478186FB
:101BC00070470187704781877047000000220288B4
:101BD0001D4B98420ED01D4B98420BD0B0F1804F58
:101BE00008D01B4B984205D01A4B984202D01A4B92
:101BF000984204D14FF68F731A404B881A43174B03
:101C0000984207D0164B984204D04FF6FF431A4033
:101C1000CB881A4302808B8883850B8803850A4B07
:101C200098420BD0094B984208D00E4B984205D0F1
:101C30000D4B984202D00D4B984201D10B7A03868E
:101C40000123838270470000002C014000340140D2
:101C50000004004000080040000C0040001000405C
:101C60000014004000400140004401400048014091
:101C700010B5FEF7DFFE40F225511E4800F040F897
:101C800010B31C4800F066F8C4B21B48008800F48A
:101C90000040C8B91848008800F4804060B10A2CA0
:101CA00003D000201449088020E01348008840F445
:101CB00000401149088019E00D2C06D10E4800881B
:101CC00040F480400C49088010E00B480088C0F3C5
:101CD0000D000A490C5408480088401C0649088039
:101CE00008460088C72801DD00200880FEF7B4FE02
:101CF00010BD0000003801401402002060060020E2
:101D000070B50246002400230025002040F66A1624
:101D1000B14200D100BFC1F3421501F01F030126FB
:101D200006FA03F3012D02D19689334006E0022D15
:101D300002D1168A334001E0968A33400C12012604
:101D400006FA04F41688344013B10CB1012000E007
:101D5000002070BD01468888C0F30800704700BFAE
:101D6000FEE700BF704700002DE9F04107460C4632
:101D700015461E462B48008840F255518843294994
:101D80000880002127482038FFF719FF0021254847
:101D90002038FFF716FF002122482038FFF713FFF5
:101DA000012C04D0022C09D0032C15D10DE01D48C4
:101DB000008840F001001B4908800DE019480088A8
:101DC00040F010001749088006E01648008840F4EB
:101DD00080701449088000BF00BF012D04D0022D7F
:101DE00009D0032D15D10DE00E48008840F0040005
:101DF0000C4908800DE00B48008840F0400009497C
:101E0000088006E00748008840F4806005490880A3
:101E100000BF00BFC6F1640081B2384600F024FB69
:101E2000BDE8F081202C01401CB579E001A8012318
:101E30008322072100903B480068FEF71DFC044602
:101E40009DF8040000283ED104F0010098B1364806
:101E5000007848B13548007835490880002033497A
:101E600008703149087006E0314800782F49087041
:101E700001202D49087004F0020080B12B48007841
:101E80005A2805DC294800780A302849087002E001
:101E9000642026490870254800782549088004F008
:101EA000040080B1214800780A2805DB1F4800782B
:101EB0000A381E49087002E000201C4908701B48BF
:101EC00000781B49088000F01DFA8046404600F06B
:101ED00067FC01211748FEF7E7FA00BF0221154809
:101EE000FEF755FA0028F9D01248FEF74CFA0746DB
:101EF000384600F01FFE81460F4900F02FFE0646CF
:101F00004FF08B4100F034FD05460C4900F026FEF1
:101F10000B4908600A23002211461046FFF718F803
:101F200084E7000000000020200000201C000020AA
:101F30001E000020002401400000A040000070426C
:101F40001800002010B50346002000BF0FE043FA40
:101F500000F404F001041CB1012C04D10C5403E082
:101F600000240C5400E000BF00BF441CA0B290420B
:101F7000EDDB10BD10B56FF00400FFF787FC1048D3
:101F800000681049B0FBF1F00F4908700C48006878
:101F90000C49B0FBF1F441F28830444305200B4971
:101FA00008804FF0E020006940F002004FF0E0218F
:101FB000086108464461006940F00100086110BDF5
:101FC0000400002000127A000C0200200E02002003
:101FD00010B50B48008840F25551884308490880E5
:101FE000002107482038FFF7EAFD00210448203887
:101FF000FFF7E7FD002102482038FFF7E4FD10BDA0
:10200000202C01402DE9F04180460D4616461F4622
:10201000402D45DA0121022000F01AFA00210420A7
:1020200000F016FA08F1B80188B200F0DBFB05F108
:10203000400188B200F0D6FBA819402809DA002434
:1020400004E0385D00F030FC601C84B2B442F8DB80
:102050003FE0002404E0385D00F026FC601C84B200
:10206000C5F14000A042F6DC0021022000F0F0F9AA
:102070000121042000F0ECF908F1B80188B200F069
:10208000B1FB402000F0AEFBC5F1400084B204E09B
:10209000385D00F009FC601C84B2B442F8DB18E043
:1020A0000021022000F0D4F90121042000F0D0F931
:1020B00008F1B80188B200F095FBA8B200F092FBDD
:1020C000002404E0385D00F0EFFB601C84B2B442F1
:1020D000F8DBBDE8F081000000247CE03E493F4889
:1020E000006800F03BFD054600F004FD84B242F2BA
:1020F0000F70844200DD04464FF47A7094FBF0F0D8
:102100000A2190FBF1F201FB120085B22A46002160
:10211000084600F027F9642094FBF0F00A2190FBB8
:10212000F1F201FB120085B22A460921002000F0DD
:1021300019F90A2094FBF0F00A2190FBF1F201FB5F
:10214000120085B22A461221002000F00BF9244B20
:1021500009221B21002000F0EFF80A2094FBF0F187
:1021600000FB114085B22A462421002000F0FAF835
:102170001C480078642190FBF1F00A2190FBF1F2F9
:1021800001FB120085B22A461221032000F0EAF872
:10219000144800780A2190FBF1F090FBF1F201FB6A
:1021A000120085B22A461B21032000F0DBF80D48FF
:1021B00000780A2190FBF1F201FB120085B22A4659
:1021C0002421032000F0CEF84FF4FA7300221146C8
:1021D0001046FEF7BDFE81E70000204118000020F8
:1021E000D50000201C00002010B50121084600F099
:1021F0002FF9382000F0F6FA0F2000F0F3FA012052
:1022000000F0F0FA062000F0EDFAC02000F0EAFA43
:1022100010BD000008B550E002212848FEF7DDF9A6
:1022200098B96B460122114625480068FEF74EFB1F
:1022300005E00A23002211461046FEF789FE02211E
:102240001E48FEF7CAF90028F3D004211B48FEF708
:10225000C4F998B96B460122022119480068FEF7BB
:1022600035FB05E00A23002211461046FEF770FEFA
:1022700004211248FEF7B1F90028F3D008210F48D5
:10228000FEF7ABF998B96B46012204210C480068AF
:10229000FEF71CFB05E00A23002211461046FEF75C
:1022A00057FE08210548FEF798F90028F3D00A23C5
:1022B000002211461046FEF74BFEADE7000C014030
:1022C0000000002010B54FF4A060FEF799F9FFF769
:1022D00051FE00F087F900F0E5F800F0F5F900F0A4
:1022E00097F9FEF78FFB0A23044A00210448FEF702
:1022F00021FCFEF7F9FB002010BD00005C0300206C
:102300003927000810B5002420210A48FEF765F996
:10231000044340210748FEF760F944EA4000C4B294
:1023200080210448FEF759F944EA8000C4B22046EF
:1023300010BD0000000801402DE9F04104460F46A1
:1023400015461E4633462A4639462046FFF75AFEB2
:102350007319611C88B22A463946FFF753FEBDE85F
:10236000F081000070B505460E4614460A2C4CD28A
:10237000DFE804F0050C131A21282F363D44244BC6
:10238000092231462846FFF7D7FF3FE0214B0922BB
:1023900031462846FFF7D0FF38E01F4B092231466F
:1023A0002846FFF7C9FF31E01C4B09223146284679
:1023B000FFF7C2FF2AE01A4B092231462846FFF7F1
:1023C000BBFF23E0174B092231462846FFF7B4FF35
:1023D0001CE0154B092231462846FFF7ADFF15E0FA
:1023E000124B092231462846FFF7A6FF0EE0104B9C
:1023F000092231462846FFF79FFF07E00D4B0922CF
:1024000031462846FFF798FF00E000BF00BF70BDCF
:10241000210000203300002045000020570000204C
:10242000690000207B0000208D0000209F0000201C
:10243000B1000020C300002010B5044622464FF42E
:102440007F510248FEF7D2F810BD00000010014095
:1024500070B504460D462A4621460248FEF7C6F8E6
:1024600070BD00000010014070B504460D46012CFF
:1024700004D0022C07D0032C0FD109E029460848CC
:10248000FFF79DFB09E029460548FFF79AFB04E0AA
:1024900029460348FFF797FB00BF00BF70BD00004F
:1024A000002C014000B58DB0012140F60D00FFF772
:1024B00067F94FF4E060ADF8300018208DF8330074
:1024C00003208DF832000CA94348FDF7FBFF4FF4C1
:1024D0006040ADF8300018208DF8330003208DF8EF
:1024E00032000CA93D48FDF7EDFFE020ADF83000CB
:1024F00028208DF8330003208DF832000CA93648CF
:10250000FDF7E0FF0020ADF82A00ADF8260041F607
:102510001F40ADF824006320ADF8280000208DF89E
:102520002C0009A92E48FFF751FB6020ADF81400DC
:102530000120ADF816000420ADF818000020ADF819
:102540001C00ADF81E00ADF82000ADF82200ADF87B
:102550001A0005A92248FFF723FA05A92048FFF72A
:1025600075FA05A91E48FFF7D1FA4FF40060ADF8DF
:1025700004004010ADF806000020ADF80800482027
:10258000ADF80A000020ADF80C004FF40050ADF893
:102590000E004000ADF8100001A91148FFF7D4F972
:1025A00008210F48FFF748FA08210D48FFF7A0FA65
:1025B00008210B48FFF7FAFA01210948FFF7B8F99B
:1025C00001210748FFF7D0F901210548FFF7D8F9A5
:1025D000FFF7FEFC0DB000BD00080140000C0140FB
:1025E000002C014008B501210820FFF7C9F80E2092
:1025F000ADF8000048208DF8030003208DF802009C
:1026000069460248FDF75EFF08BD0000000C01406E
:1026100008B501211020FFF7B3F843F6FF70ADF8BD
:10262000000010208DF8030003208DF80200694699
:102630001D48FDF747FF002243F6FF711A48FDF7DA
:10264000D5FFFFF7D1FD194B102242210020FFF7E3
:1026500073FE174B102254210020FFF76DFE154B1F
:10266000092264210020FFF767FE134B09222D2168
:102670000020FFF761FE114B102242210320FFF7DB
:102680005BFE0F4B102254210320FFF755FE0D4B2C
:10269000102266210320FFF74FFE064B0922762108
:1026A0000320FFF749FE08BD00100140E7000020AD
:1026B0000701002027010020390100204B010020E4
:1026C0006B0100208B01002000B587B001214FF481
:1026D0000270FFF755F84FF40040FFF745F801206E
:1026E000ADF8040000208DF8070001A91048FDF79F
:1026F000E9FE002002908DF80C008DF80D004FF4DB
:10270000602004900020059001208DF8180002A997
:102710000848FDF745FE01210648FDF729FE07237D
:10272000012208210348FDF763FE07B000BD000049
:10273000000C01400024014038B505460024FDF797
:1027400085FD044669460020FDF764FF0D490860D9
:1027500006230D4A00210D48FEF7ECF907230C4A29
:1027600000210C48FEF7E6F908230B4A00210B482C
:10277000FEF7E0F90A20FEF759FB2046FDF76AFD57
:1027800038BD0000000000205C0600201522000873
:102790005C050020291E00085C040020D9200008E8
:1027A0002DE9F04104460CB1072C01D1BDE8F081C0
:1027B00004EB440009490D5C04EB440008444678EE
:1027C00004EB44000844877835B1054803783A465D
:1027D00031462846FFF7C8FA00BFE7E7F42C0008A7
:1027E0001C0000207CB505460024082269462846C6
:1027F000FFF7A8FB0120FFF71FFE00211020FFF7C5
:1028000027FE00212020FFF723FE00BF41E0082C17
:102810003BD2DFE804F0040A10171E252C331DF804
:1028200004104020FFF714FE30E01DF80410802053
:10283000FFF70EFE2AE01DF804104FF48070FFF73A
:1028400007FE23E01DF804104FF40070FFF700FEB0
:102850001CE01DF804104FF48060FFF7F9FD15E04F
:102860001DF804104FF40060FFF7F2FD0EE01DF8B4
:1028700004104FF48050FFF7EBFD07E01DF8041043
:102880004FF40050FFF7E4FD00E000BF00BF601C04
:1028900084B2082CBBDB01210820FFF7D9FD002101
:1028A0000820FFF7D5FD7CBD7CB505460024E84334
:1028B00085B2082269462846FFF744FB0120FFF74E
:1028C000BBFD00211020FFF7C3FD01212020FFF7F1
:1028D000BFFD00BF41E0082C3BD2DFE804F0040A52
:1028E00010171E252C331DF804104020FFF7B0FDF3
:1028F00030E01DF804108020FFF7AAFD2AE01DF843
:1029000004104FF48070FFF7A3FD23E01DF80410BE
:102910004FF40070FFF79CFD1CE01DF804104FF40D
:102920008060FFF795FD15E01DF804104FF400607E
:10293000FFF78EFD0EE01DF804104FF48050FFF7F6
:1029400087FD07E01DF804104FF40050FFF780FDED
:1029500000E000BF00BF601C84B2082CBBDB01217B
:102960000820FFF775FD00210820FFF771FD7CBDF1
:102970004FF47F0C1CEAD0121EBF1CEAD11392EA5E
:102980000C0F93EA0C0F00F0858090EA010F48BF0E
:1029900042F4807240F4000C41F400002CF07F41BE
:1029A00020F07F4000B58142A2EB03020FF2081C29
:1029B000ACEB504EC0F100009EF800E04FEA4E0E26
:1029C00000FB0EFC38BF49004FEA2C1C02F5FA024E
:1029D0000CFB0EF34FEACE1E4FEA112C4FEAC12139
:1029E0000EEB635E42EB22420EFB0CFC4FEA1C53E3
:1029F00000FB03114FEA112C4FEA01310EFB0CFCD6
:102A00004FEADC4C00FB0C11C14228BF09184CEB0B
:102A100003335DF804EB10EB410143EBC250B2F518
:102A20007C0F38BF704729D512F0F00F1CBF00F1A2
:102A3000C04000F000407047008182838485868713
:102A400088898B8C8D8E8F919293959697999A9C6D
:102A50009D9FA0A2A3A5A7A8AAACAEB0B2B3B5B7DC
:102A6000B9BCBEC0C2C5C7C9CCCED1D4D7D9DCDFB2
:102A7000E2E6E9ECF0F3F7FAFE0000004FEA400C62
:102A80000CF1807CBCF17E4F28BF7047B0F1C04094
:102A900000F02BB990EA010F0CEAD11348BF42F4C1
:102AA0008072624538BF634507D213F47F0F16D09A
:102AB00080EA010000F00040704710B500F0CFF848
:102AC000097EFC3E00F005B880EA010000F00040FD
:102AD000704780EA010000F0004000F006B912F4EF
:102AE0007F0F04BF0248704780EA010000F0FDB884
:102AF0000000C07FC10DD1F19E0206DB4FEA00232A
:102B000043F0004323FA02F07047004207D54FEA32
:102B10004001B1F1FE4F02D24FF00000704710B5F6
:102B200000F09DF849922480002070476FEA200051
:102B300070470000B0FA80F310FA03F2C3F19D036E
:102B40000AD0D90501EB1220530638BF704700F1B7
:102B5000010008BF20F00100704700004FF47F0C17
:102B60001CEAD0121EBF1CEAD11392EA0C0F93EAA2
:102B70000C0F00F0478090EA010F48BF42F48072CA
:102B80004FF0004C4CEA00204CEA012102EB03021A
:102B9000A0FB0113A2F50002002918BF43F00103B6
:102BA0005B0028BF4FEA330342EB22425FEA132C5B
:102BB0004CEBC2502EBFBCEB436FB2F57C0F70479D
:102BC0004FEA036CBCF1004F08BF20F00100B2F5E2
:102BD0007C0F38BF70470BD582F0FF0212F5803FA3
:102BE000C8BF704700F1C040D8BF00F00040704738
:102BF00000F5000C5FEA4C0C48BF7047B0F1C040D4
:102C000000F073B890EA010F0CEAD11348BF42F408
:102C10008072624538BF634504D280EA010000F04B
:102C20000040704710B500F01AF800BF8900013E5F
:102C300000F007B800F009B85FEA410C5FEA1C6CCD
:102C400008D080EA010000F050B85FEA400C5FEA6B
:102C50001C6CF6D14FF00040A0F5800070470EF1DB
:102C6000020E2EF0030E5EF8044B244204D44FEA09
:102C70004102B2F17F4F11D84FEA4003B3F17F4FC9
:102C80000CD80ED14FEAD07CB2F17F4F0CEB4C0C3C
:102C90000CF1020C08BF4CEBD17C04E04FF0080CA7
:102CA00001E04FEAD17C0CEB4C0324FA03F404F06E
:102CB0000704B4F1040C06D20EEB840CBDE81040FE
:102CC0004CF0010C6047DFE80CF0070802024FF0FF
:102CD0000040A0F5800010BD0846420018BFD2F1A8
:102CE000807288BF00F0004010BDFF2141EAD05043
:102CF000C005704700000003030202020103030144
:102D000001010301010202020300000000000100B2
:102D100002000100030001000200010004000100A4
:102D20000200010003000100020001000500010093
:102D30000200010003000100020001000400010084
:102D40000200010003000100020001000600010072
:102D50000200010003000100020001000400010064
:102D60000200010003000100020001000500010053
:102D70000200010003000100020001000400010044
:102D80000200010003000100020001000700010031
:102D90000200010003000100020001000400010024
:102DA0000200010003000100020001000500010013
:102DB0000200010003000100020001000400010004
:102DC00002000100030001000200010006000100F2
:102DD00002000100030001000200010004000100E4
:102DE00002000100030001000200010005000100D3
:102DF00002000100030001000200010004000100C4
:102E00000200010003000100020001002C2E000856
:102E100000000020600200006C010008BC2F0008C8
:102E200060020020A8150000C80100085184A24AD1
:102E300004400901020304060708091A32021201BC
:102E40002008E0F0180818F0E030080F1F3020309C
:102E50001F0F551010F8F82720203F3F2020200892
:102E60007078080808F8F0280830382C262331300C
:102E70000926080888F870300818382121233E1CDC
:102E80003C80C070371009060725243F3F242420CA
:102E900008F8F88888880808200819392020311F88
:102EA0000E37E0F0988898901C0F1F315C1A1F3F76
:102EB00047180888E87818443E3F014C70F8885A53
:102EC0004C1C3E235A4CF0F808A23E011332223328
:102ED000A2811B30308C311010C8B88FE888884030
:102EE0004848E85F4848484017081808FF0404208D
:102EF00008020B1222D20A0615404042CC300A04C6
:102F0000F49494FF9494F404180D40201F20484436
:102F100042415F4142443031ACC0C0C0543A08BE67
:102F20001988700A203F3F20030F3C30204BFF08D8
:102F300001290B6A410132FF2810100C44241404AB
:102F400005060404142444140C75291B2A7F053A31
:102F500040631BFE4001112EFF804020103F1116E0
:102F60007F202010102A3F1623407828090202C231
:102F7000020202FE82012A023F5B407F04393811BF
:102F8000500C2010E8242724A424342CE0280D80A1
:102F9000804F402018071010204F800F1460F80752
:102FA00028090474545556545474E41112FF000C4B
:0C2FB0005603010545857D05050501035C
:040000050800020DE0
:00000001FF
