:020000040800F2
:10000000A89B00207D0200083F0F00083D0A000861
:100010003D0F000881050008951E00080000000043
:10002000000000000000000000000000C501000802
:100030006D060008000000001902000831170008D2
:10004000970200089702000897020008970200082C
:1000500097020008970200080907000897020008A5
:10006000970200089702000897020008970200080C
:1000700097020008970200089702000897020008FC
:1000800097020008970200085D0300089702000825
:100090009702000897020008970200086D07000801
:1000A00097020008970200089702000897020008CC
:1000B00097020008970200086D18000897020008D0
:1000C00097020008970200089702000897020008AC
:1000D000970200089702000897020008F11C000828
:1000E00039070008970200089702000897020008E5
:1000F000970200089702000897020008970200087C
:10010000970200089702000897020008970200086B
:10011000970200089702000897020008970200085B
:10012000970200089702000897020008970200084B
:10013000970200089702000897020008970200083B
:10014000970200089702000897020008970200082B
:10015000970200089702000897020008970200081B
:10016000970200089702000897020008970200080B
:1001700097020008970200089702000897020008FB
:1001800097020008970200089702000897020008EB
:1001900097020008970200089702000897020008DB
:1001A000970200089702000897020008DFF810D0B5
:1001B00000F08CF800480047B5200008AFF300803D
:1001C000A89B00202A4B19680868B0E8F04F80F31C
:1001D0000988BFF36F8F4FF0000080F311887047DC
:1001E0000000000006480068006880F3088862B6D6
:1001F00061B6BFF34F8FBFF36F8F00DF00BF00BF4B
:1002000008ED00E0DFF80C00016841F470010160C6
:10021000704700BF88ED00E0EFF30980BFF36F8FF8
:10022000134B1A681EF0100F08BF20ED108A20E94A
:10023000F04F106008B44FF0500080F31188BFF306
:100240004F8FBFF36F8F02F0E3FB4FF0000080F39E
:10025000118808BC19680868B0E8F04F1EF0100F4C
:1002600008BFB0EC108A80F30988BFF36F8F704726
:100270004C000020EFF305807047000006488047DF
:1002800006480047FEE7FEE7FEE7FEE7FEE7FEE77B
:10029000FEE7FEE7FEE7FEE745170008AD010008B0
:1002A00030B50B46014600202022012409E021FA46
:1002B00002F59D4205D303FA02F5491B04FA02F543
:1002C0002844151EA2F10102F1DC30BD064C074D99
:1002D00006E0E06840F0010394E807009847103416
:1002E000AC42F6D3FFF766FF4036000860360008E0
:1002F000090AC94301607047002904D0816841F0B0
:10030000010181607047816821F0010181607047BF
:1003100010B5074C226807490A40D0E90013194379
:10032000D0E90230034319431143216010BD00009E
:1003300004230140E030FCFFC06C80B2704730B550
:10034000024600200B0A546801258D402C4011689C
:10035000194202D0002C00D0012030BD70B50A4DEA
:1003600040F2052421462846FFF7E9FF012804D181
:100370002846FFF7E1FF054A108021462846BDE8E0
:100380007040FFF7B5BF000000200140480000208A
:1003900001238B40002A03D0416819434160704714
:1003A000416899434160704730B542680F4B1A402D
:1003B0000C790B6842EA04221343436083680C4AB9
:1003C0001340D1E9034222434D798C6844EA450445
:1003D00022431A438260C26A22F47002097D491ED8
:1003E000C9B242EA0151C16230BD0000FFFEFFFC0C
:1003F000FDF7FFC070B5072609290AD9C568A1F124
:100400000A0404EB4404A640B543A3401D43C56061
:1004100007E0056901EB4104A640B543A3401D4335
:1004200005611F23072A09D2446B521E02EB820288
:1004300093409C4391400C43446370BD0D2A09D204
:10044000046BD21F02EB820293409C4391400C4309
:10045000046370BDC46A0D3A02EB820293409C4370
:1004600091400C43C46270BD816841F0804181605D
:10047000704700210160017141718160C1600161BB
:1004800001210175704700001CB502F007F9022137
:1004900013480C02CDE900100023224611A1164892
:1004A00002F094FB012802D114A001F0F5FC0C48E5
:1004B0000321001DCDE900100023224616A1194892
:1004C00002F084FB012802D117A001F0E5FC0448EA
:1004D0000838406802F0E4F9BDE81C4002F018B9A1
:1004E0002C0000204D616E75616C5F4D6F64655F1F
:1004F0005461736B000000004D0E0008B4B4BDA839
:10050000546573745F5461736BC8CECEF1B3C9B9CF
:10051000A6210D0A000000004B45595F5461736B22
:1005200000000000B50C0008B4B4BDA84B45595FED
:100530005461736BC8CECEF1B3C9B9A6210D0A00C0
:100540007CB50121022000F0E7FE4FF40074009416
:1005500001208DF8040000208DF806008DF80700BA
:1005600002208DF80500054D6946284600F016FA70
:100570002146284600F060FA7CBD000000040240DD
:10058000FEE700000648016841F0807101600548FF
:1005900000214160016841F00101016070470000E5
:1005A000FCED00E0001000E01CB50121022000F08D
:1005B000B3FE0C4C02220821204600F02DFAA115B2
:1005C000009102218DF8041000228DF806208DF88C
:1005D000071003218DF805106946204600F0DEF96A
:1005E0001CBD00000004024010B500F007F8FFF742
:1005F000DBFFBDE8104000F091B900001CB50121FF
:10060000022000F089FE2020009001208DF80400D7
:1006100000218DF806108DF8070003208DF80500E5
:10062000044C6946204600F0B9F92021204600F02C
:1006300003FA1CBD000402401CB50121102000F08B
:100640006BFE0420009001208DF8040000218DF83D
:1006500006108DF8070002208DF805006946024853
:1006600000F09CF91CBD0000001002407047000023
:1006700070B586B00121084600F04EFE0121102021
:1006800000F066FE1E4E07220A21304600F0C4F933
:1006900007220921304600F0BFF900248DF81640EA
:1006A00001208DF8170002258DF8145041020491A5
:1006B0008DF8155004A9304600F070F98DF81450EB
:1006C0006802049004A9304600F068F94FF4E13064
:1006D0000090ADF80440ADF80640ADF80840ADF824
:1006E0000C400C20ADF80A00064C6946204601F08B
:1006F0006BFB0121204601F033FB06B070BD00000A
:10070000000002400010014010B5012000F048F840
:1007100000280DD007490888143000B208806328EB
:1007200001DD63200880BDE81040012000F032B8F0
:1007300010BD00002600002010B54FF400542046E4
:1007400000F02EF800280DD0074A1188143909B29C
:100750001180002901DA002010802046BDE81040F9
:1007600000F018B810BD00002600002010B54FF4AE
:100770008074204600F014F8002807D004490120B6
:1007800008702046BDE8104000F004B810BD00001D
:10079000250000200149086070470000143C01401A
:1007A00001460020024A12680A4200D00120704728
:1007B000143C014030B51B4A83790168002B2AD0D4
:1007C00013688B431360111D0B680468A3430B600F
:1007D000017911440B68046823430B60114C083401
:1007E0002168036899432160231D19680568A9439E
:1007F00019604179102905D011440A680068024344
:100800000A6030BD216802681143216019680068E0
:100810000143196030BD0079104402688A430260C8
:1008200030BD0000003C0140F0B585B0012104203E
:1008300000F072FD0121084600F06EFD224F0222F9
:100840000621384600F0E8F802220721384600F079
:10085000E3F802248DF8104001258DF81350032091
:100860008DF8110000268DF812604021039103A934
:10087000384600F093F88020039003A9384600F032
:100880008DF80121880300F063FD0821002000F0AD
:10089000CFFEE00101908DF8086010208DF809006E
:1008A0008DF80A5001A8FFF785FF17208DF800008A
:1008B0008DF801408DF802408DF80350684600F035
:1008C0003FFB05B0F0BD000000080240104A11686F
:1008D00009B200EE101A9FED0F1AF8EEC00A80EE72
:1008E000810AD0ED000A30EE200A80ED000A0A48A5
:1008F0000023002904D005DD4FF00101017004E060
:10090000037002E04FF002010170136070470000B5
:10091000240400400000A0424A00002070B588B0C6
:100920000121042000F006FD5920ADF81400002438
:10093000ADF816404FF6FF700690ADF81C40164E0D
:1009400005A9304601F096F90820ADF80800ADF889
:100950000A400125ADF80C50ADF80E40ADF810403E
:1009600002A9304601F039F81E208DF804008DF8F8
:1009700005408DF806408DF8075001A800F0E0FA18
:1009800001220921304601F061F80121304600F0D2
:10099000F1FF08B070BD0000000800402DE9F041F3
:1009A000002201274FF0030C07FA02F50B682B40D9
:1009B000AB422CD1066853000CFA03F4A643066040
:1009C0000E79D0F800809E4046EA080606600E794F
:1009D000012E01D0022E12D18668A64386604E7980
:1009E000D0F808809E4046EA080686604668AE4316
:1009F000466045688E799640B6B235434560C56815
:100A0000A543C560CC799C40C3681C43C460521C9C
:100A1000102AC9D3BDE8F08110B54B07DB0E9A4010
:100A2000C90800EB8100016A0F249C40A1430162C8
:100A3000016A1143016210BD41837047FEE703461E
:100A400000209A8A1B8B1B041A4322F07F42914399
:100A500000D101207047002904D0018841F0010134
:100A600001807047018821F0010101807047002951
:100A700004D0018841F4807101807047018821F41D
:100A8000807101807047002904D0018841F4007111
:100A900001807047018821F40071018070470CB516
:100AA0000246002000920A0F019221F07F41019A34
:100AB000002A03D0009A1432009203E0090C009A35
:100AC00018320092009A12680A4200D001200CBD30
:100AD0007FB504460D46A08820F03F06684600F02A
:100AE00045FC02982749B0FBF1F189B20E43A6807C
:100AF000228822F001022280234B2A689A4209D8D8
:100B00005200B0FBF2F080B2042800D20420491C4D
:100B1000218423E0EB88A3F53F46FF3E0BD002EB98
:100B2000C20303EB0212B0FBF2F080B240F480404B
:100B3000020506D007E002EB4202B0FBF2F080B201
:100B4000F6E740F0010040F400404FF49672514344
:100B50004FF47A72B1FBF2F1491C2184A083208802
:100B600040F00100208020884FF6F5310840A98828
:100B70006A89114301432180A8892989084320817A
:100B80007FBD000040420F00A0860100002A02D075
:100B900041F0010101E001F0FE0101827047018294
:100BA0007047000010B50121022000F0B5FB0121C3
:100BB000480500F0BFFB174C042207212046FFF731
:100BC0002BFF042206212046FFF726FF12490222AE
:100BD0000A7101238B71C0200860CB714A712046D5
:100BE000FFF7DCFE0D4800218180221542811201B1
:100BF00082810B4A02604BF6FF72C2800181094C70
:100C000001462046FFF764FF2046BDE81040012161
:100C1000FFF721BF0004024040000020B404002080
:100C2000801A0600005400402DE9F04104460E46AB
:100C30001D4D4FF4003739462846FFF730FF002896
:100C4000F9D101212846FFF712FF184F28463946EF
:100C5000FFF7F5FE0028F9D0002278212846FFF79B
:100C600095FF134F28463946FFF7E9FE0028F9D0D3
:100C700021462846FFF793FF0D4CA41C2146284629
:100C8000FFF7DDFE0028F9D031462846FFF787FF41
:100C900021462846FFF7D3FE0028F9D02846BDE8B4
:100CA000F0410121FFF7EFBE0054004001000300B6
:100CB00082000700642001F0B9FDFBE770B586B043
:100CC0000121052000F028FB0121880300F040FBF2
:100CD00000258DF814508DF817500124049404A9B0
:100CE0001948FFF75BFE6603049604A91748FFF74F
:100CF00055FE0021084600F09BFC0D21022000F06B
:100D000097FC02948DF80C5008208DF80D008DF89A
:100D10000E4002A8FFF74EFD029602A8FFF74AFD1B
:100D200006208DF804008DF805408DF806408DF8FA
:100D3000074001A800F004F928208DF8040001A85C
:100D400000F0FEF806B070BD00000240000802404E
:100D5000F0B58BB00121802000F0DEFA01210820DF
:100D600000F0E8FA2D4F02220A213846FFF754FE20
:100D700002220B213846FFF74FFE02220C21384693
:100D8000FFF74AFE4FF4E050099002258DF82850F5
:100D90008DF8295000248DF82A4001268DF82B600B
:100DA00009A93846FFF7FAFD6320079040F2077063
:100DB000ADF81800ADF82040ADF81A40184F06A95C
:100DC000384600F057FF6021ADF80410ADF806601A
:100DD0000394ADF8105001A9384600F041FE01A976
:100DE000384600F077FE01A9384600F0C1FE082120
:100DF000384600F069FE0821384600F0AFFE0821B1
:100E0000384600F001FF0121384600F0A4FD012121
:100E1000384600F0AFFD0BB0F0BD0000001C0240F2
:100E2000000C004070B50E461546074C01462046A2
:100E300000F0F0FE3146204600F0EEFE2946204646
:100E4000BDE8704000F0EABE000C004008B59FED20
:100E5000320A8DED000A0021022330A2084600F07C
:100E600079F9314D314C6846FFF730FD2078A0B953
:100E7000617891B19DED000AF2EE040A042320EEA0
:100E8000200A0321BCEEC00A10EE100AC2B20020F4
:100E900000F036F9012060701BE0012819D160785C
:100EA000B8B1608882B281B280B2FFF7BBFF022383
:100EB000B4F902200321002000F022F9287801284B
:100EC0000BD0022818D0022319A21946502000F096
:100ED00041F90A2001F0AAFCC5E7022315A2194630
:100EE000502000F037F96088401C00B26080632811
:100EF000EFDD63206080ECE702230FA2194650204B
:100F000000F028F96088401E00B260800028E0DA16
:100F100000206080DDE70000000000004D6F646588
:100F2000204D616E75616C004A0000202400002095
:100F30002D2D20004357200043435700FEE7704704
:100F400030B50F23C27801250178002A1FD0154A39
:100F5000126802F4E062C2F5E062C2F30722C2F155
:100F60000404D3404278A24084781C4014432201F8
:100F700001F1E02181F80024007800F01F018D408C
:100F80004009800000F1E020C0F8005130BD01F0C0
:100F90001F0085404809800000F1E020C0F8805122
:100FA00030BD00000CED00E0024908430249086032
:100FB000704700000000FA050CED00E00020AFF3E0
:100FC000008070B50646002505F1B000C0B200F003
:100FD00027F9002000F024F9102000F021F9002466
:100FE000304600F021F9641CE4B2802CF8D36D1C6B
:100FF000EDB2082DE8D370BD10B5AE2000F010F9A9
:10100000812000F00DF9FF2000F00AF9A42000F083
:1010100007F9A62000F004F92E2000F001F926209F
:1010200000F0FEF8002000F0FBF8002000F0F8F8D7
:10103000032000F0F5F8072000F0F2F8002000F09F
:10104000EFF8FF2000F0ECF8202000F0E9F8102085
:1010500000F0E6F8B02000F0E3F8002000F0E0F83F
:10106000102000F0DDF8402000F0DAF8A12000F0B8
:10107000D7F8A82000F0D4F83F2000F0D1F8C8201D
:1010800000F0CEF8D32000F0CBF8002000F0C8F834
:10109000DA2000F0C5F8122000F0C2F8D92000F0E4
:1010A000BFF8222000F0BCF8DB2000F0B9F82020C7
:1010B00000F0B6F88D2000F0B3F8142000F0B0F87E
:1010C000BDE81040AF2000F0ABB80346012000E0BF
:1010D0005843491EC9B2FBD2704710B50446B0311F
:1010E000C8B200F09DF8102040EA141000F098F803
:1010F00004F00F00BDE8104040F0010000F090B88F
:101100002DE9F84F80468A4691461F4600241DE08F
:10111000381B401EC1B20A20FFF7D7FFB9FBF0F51C
:101120000A26B5FBF6F006FB105000210091303086
:101130008DF8000004EB440008EB4000C0B201232E
:101140006A46514600F006F8641CE4B2BC42DFD3A4
:10115000BDE8F88F2DE9F04704460F46914600267A
:10116000012B22D0022B24D1DFF8ACA04EE0203896
:1011700000F0FF087E2C02D900247F1CFFB2394604
:101180002046FFF7AAFF0025244908EB480001EBA1
:10119000400818F8050000F047F86D1CEDB2062D68
:1011A000F7D3A41DE4B2761CF6B219F806000028A5
:1011B000DDD1BDE8F087203800F0FF08782C02D997
:1011C00000247F1CFFB239462046FFF786FF00252A
:1011D00005EB08101AF8000000F026F86D1CEDB2BF
:1011E000082DF5D3781CC1B22046FFF776FF002505
:1011F00005EB08105044007A00F016F86D1CEDB2B3
:10120000082DF5D30834E4B2761CF6B219F80600BE
:101210000028D0D1CDE7000050300008282E00086B
:1012200001460020FFF700BD01464020FFF7FCBC4F
:1012300030B58BB00121080200F08AF80024019437
:101240004FF48030029003944FF47060049001A832
:10125000FFF75EF805A8FFF70CF905948DF8184024
:1012600001258DF819500794089409948DF8285099
:10127000124C05A92046FFF797F812218DF80010AF
:101280008DF801508DF802508DF803506846FFF735
:1012900057FE0323012204212046FFF7ABF8012269
:1012A00040F205212046FFF773F801212046FFF7A1
:1012B00023F82046FFF7D8F80BB030BD00200140DE
:1012C0001CB50121084600F027F80121402000F05C
:1012D00023F81020009003208DF8040000248DF8DE
:1012E000074069460648FFF759FB082000908DF833
:1012F00004408DF8074069460248FFF74FFB1CBDCC
:10130000000002400018024010B5FFF7D9FFBDE809
:101310001040FFF78DBF0000054A002903D0116877
:1013200001431160704711688143116070470000EC
:1013300030380240054A002903D01168014311608A
:1013400070471168814311607047000040380240C7
:10135000054A002903D011680143116070471168E4
:1013600081431160704700004438024070B5244B3F
:10137000196801F00C01234C00291ED0224E0429CB
:101380001DD008291DD00460196801F0F001090979
:101390001E4A545C0168E14041601C6804F4E0545A
:1013A000A40A145D21FA04F484601B6803F460430A
:1013B0005B0BD25CD140C16070BD0460E4E70660A5
:1013C000E2E70F4A121F1168C1F38055116801F05E
:1013D0003F0135B1B6FBF1F11468C4F388146143E1
:1013E00005E0B4FBF1F11468C4F38814614312689A
:1013F000C2F30142521C5200B1FBF2F10160C3E79B
:10140000083802400024F40040787D0114000020D8
:10141000002904D0018841F0400101807047018813
:1014200021F04001018070472DE9F04387B0012190
:101430002020FFF771FF01210805FFF789FFDFF882
:10144000BC90052207214846FFF7E6FA052208214D
:101450004846FFF7E1FA052209214846FFF7DCFA82
:101460008020009002258DF805508DF8045000244E
:101470008DF806408DF8074069464846FFF78EFA1A
:10148000E801009069464846FFF788FA4FF4007873
:10149000CDF8008069464846FFF780FA402700975C
:1014A00001268DF8046069464846FFF777FA13482D
:1014B00018300780ADF808404FF48270ADF80A008C
:1014C000ADF80C40ADF80E50ADF81060ADF81280DC
:1014D000ADF81440ADF816400720ADF81800084CE0
:1014E00002A9204600F067F801212046FFF790FF8F
:1014F00000F008F807B0BDE8F083000000140240D7
:101500000050014070B5094D40242C80152000F09A
:101510000FF8FF2000F00CF8AE1E3480C00704D195
:101520002C80B72000F004F8348070BD1A140240FB
:101530002DE9F0410746184C4FF480552560174EB1
:1015400009E02068411E216005D2002000F050F81B
:10155000C0B2BDE8F0810221304600F021F8002839
:10156000EFD03946304600F024F8256008E02168C5
:101570004A1E226004D2012000F03AF8C0B2E8E727
:101580000121304600F00CF80028F0D0304600F081
:101590000EF8C0B2DDE7000034000020005001402A
:1015A0000246002012890A4200D00120704780893B
:1015B00070478181704730B5028802F441530A8830
:1015C0004C88CD8822438C882C4322430C892243AB
:1015D0004C8922438C892243CC8922431A430280BE
:1015E000828B22F400628283098A018230BD00006E
:1015F00010B5014602A000F04FFC002010BD000015
:101600003C3C2D464C4153482D4552524F522D3EA5
:101610003E2053504920B5C8B4FDB3ACCAB12165D2
:1016200072726F72436F6465203D2025640A00006A
:1016300010B58A07120F0F23934021F003040649C7
:10164000214401F608010C689C430C600B68904033
:1016500003430B6010BD0000003001401CB50021A9
:10166000019100912E4A106840F4803010604FF4D0
:10167000A043106800F4003000900198401C0190D5
:10168000009810B901989842F3D11068800302D5F0
:101690000120009000E00091009801283FD12048EF
:1016A0004030016841F0805101601E49086840F4F3
:1016B000404008601A48083003680360036843F438
:1016C00000430360036843F4A0530360041F164BF8
:1016D0002360136843F08073136013689B01FCD58B
:1016E0000A6842F480320A604A68D203FCD50A686C
:1016F00042F400320A604A689203FCD50B4A40F279
:1017000005711160016821F003010160016841F079
:10171000020101600168C1F381010229FAD11CBDF7
:101720000038024000700040195A4007003C024057
:1017300010B501F07BFA012803D0BDE8104001F09C
:101740002FBA10BD10B51248016841F47001016054
:101750001048016841F0010101600E4A0021083281
:10176000116002680C4B1A400260031D0B4A1A609C
:10177000026822F48022026006480C300160FFF704
:101780006DFF03494FF000608039086010BD000014
:1017900088ED00E000380240FFFFF6FE1030002424
:1017A00070B5048C24F001040484058B048C25F0AE
:1017B000F3054FF6FF7606EA031313432B4324F099
:1017C0000A020A4342F001010383018470BD70B52F
:1017D000048C24F010040484058B068C4FF6FF74EF
:1017E00004EA011125F4734504EA03332B4304EAA8
:1017F00002221A4326F0A0030B4343F01001028398
:10180000018470BDF0B5048C24F480740484868B4C
:10181000058C4FF6FF7707EA012426F0F30607EA66
:1018200003111143314325F42062224342F48072B4
:1018300081830284F0BD70B5048C24F48054048448
:10184000858B068C4FF6FF7404EA013125F473454D
:1018500004EA02222A4304EA0333134326F4204213
:101860000A4342F480518383018470BD2DE9F04125
:101870001A4E0121304600F0A4F8194C30B1A0886E
:10188000401CA0800121304600F071F8082130464C
:1018900000F097F800281ED060780027012578B165
:1018A000304600F08CF8608025706770002130466B
:1018B00000F0A0F93046BDE8F041082100F057B82B
:1018C0000021304600F0ACF9A78065700221304657
:1018D00000F090F9EEE7BDE8F0810000000800405C
:1018E0003800002030B587B001210220FFF722FD2B
:1018F0000024ADF81840ADF812404FF6FF70059087
:10190000ADF810408DF81A400E4D04A9284600F09D
:10191000B1F901A800F092F80421ADF80410ADF877
:101920000C4001A9284600F058F800231A4603216C
:10193000284600F02BF80121284600F01BF807B0DC
:1019400030BD00000004004010B5FEF76DFFBDE89B
:101950001040FFF7C7BF002904D0018841F0800183
:1019600001807047018821F0800101807047C943E0
:1019700001827047002904D0018841F001010180F3
:101980007047018821F001010180704770B5058919
:10199000048B068C25F007050D434FF6FC410C40E7
:1019A00040F201110C4326F022064FF6FF7101EAC6
:1019B00003111143314305810483018470BDC06B61
:1019C000704702460020138A0B4092890A40002B80
:1019D00002D0002A00D00120704770B506460C46A0
:1019E00025886188A2882389002D0CD0042D13D06E
:1019F000082D1AD03046FFF71EFFE1883046BDE8BB
:101A0000704000F02BB93046FFF7CAFEE18830463F
:101A1000BDE8704000F006B93046FFF7D8FEE18817
:101A20003046BDE8704000F005B93046FFF7EAFEE9
:101A3000E1883046BDE8704000F008B9002101801F
:101A4000418001228280C18001817047002A03D039
:101A500082890A438281704782898A4382817047E2
:101A600030B5028C22F001020284058C8388028B3F
:101A700022F0700222F003020C88144325F00202C7
:101A80008D8915434A882A430D4DA84202D00D4D39
:101A9000A8420FD122F00805CA892A4322F0040582
:101AA0008A882A4323F4807323F400730D8A1D432C
:101AB0004B8A2B438380048389684163028430BD51
:101AC0000000014000040140028B22F008020A439A
:101AD0000283704770B5028C22F010020284028CDF
:101AE0008388048B24F4E04424F440760D884FF678
:101AF000FF7404EA0525354322F020028E8904EAAA
:101B0000061616434A8804EA02123243114EB042C6
:101B100002D0114EB04217D122F08002CE8904EAE1
:101B20000616164326F040068A8804EA021232435B
:101B300023F4806323F400630E8A04EA86061E43BE
:101B40004B8A04EA83033343838005838968816376
:101B5000028470BD0000014000040140028B22F4A9
:101B600000624FF6FF7303EA0121114301837047BE
:101B700070B5028C22F480720284028C8388848B7C
:101B800024F0700424F003040D88254322F400722D
:101B90008E894FF6FF7404EA062616434A8804EA43
:101BA00002223243114EB04202D0114EB04217D140
:101BB00022F40066CA8904EA0222324322F48066D3
:101BC0008A8804EA0222324323F4805323F4005328
:101BD0000E8A04EA06161E434B8A04EA03133343B3
:101BE000838085838968C163028470BD00000140E1
:101BF00000040140028C22F400724FF6FF7303EAE6
:101C00000121114301847047828B22F008020A43AC
:101C1000828370474163704781637047C163704737
:101C200041627047028B22F00C020283028B0A434E
:101C300002837047028B22F440620283028B4FF6CC
:101C4000FF7303EA01210A4302837047828B22F06B
:101C50000C028283828B0A4382837047828B22F438
:101C600040628283828B4FF6FF7303EA01210A43AD
:101C70008283704730B50288164C174DA0420DD0B4
:101C8000A8420BD0B0F1804F08D0144B984205D039
:101C9000134B984202D0134B984203D122F07003A9
:101CA0004A881A43104B984206D0104B984203D0F2
:101CB00022F440730A891A4302804A68C2620A8881
:101CC0000285A04201D0A84201D1897A0186012172
:101CD000818230BD0000014000040140000400404A
:101CE00000080040000C00400010004000140040BC
:101CF00070B5194D40F22551284600F044F8174CB4
:101D0000B8B1284600F0BEF8C2B2B4F8000440F200
:101D1000FF31C0F30E0088420BD2B4F80004B4F8CF
:101D20000034C0F30E01481C60F30E03A4F8003425
:101D3000625440F22441284600F025F801280AD1D7
:101D4000B4F8000440F40040A4F800042846BDE8BC
:101D5000704000F097B870BD00480040B00000200F
:101D6000002904D0818941F4005181817047818923
:101D700021F40051818170470246002012880A42F6
:101D800000D00120704770B5002440F66A12C1F3FC
:101D9000421301F01F05012606FA05F2012B0CD0B3
:101DA000022B0DD0838A1340090A8E4000883040F0
:101DB0000BB100B10124204670BD83891340F3E7C5
:101DC000038A1340F0E700007FB504460D46208AE1
:101DD00020F44051E88808432082A08941F20C6138
:101DE0008843A9882A8911436A8902431143A18142
:101DF000A08A20F44071A8890843A0826846FFF7B2
:101E0000B5FA1E48844202D01D48844201D103988D
:101E100000E00298A189090408D500EBC00101EB9C
:101E2000001029684900B0FBF1F007E000EBC001A9
:101E300001EB001029688900B0FBF1F06422B0FBCF
:101E4000F2F109010B096FF018056B4300EB8300F9
:101E5000A3891D044FF0320307D503EBC000B0FB8C
:101E6000F2F000F00700084306E003EB0010B0FBBF
:101E7000F2F000F00F00084320817FBD0010014008
:101E8000001401408088C0F308007047C1F30801C6
:101E900081807047FEE700000FB4054B10B503A921
:101EA000044A029800F018F810BC5DF814FB00001A
:101EB00091200008AC00002002E008C8121F08C1F1
:101EC000002AFAD170477047002001E001C1121FBB
:101ED000002AFBD1704700002DE9FF4F8BB09A46D6
:101EE0000F460546002606E025280BD052460D99E0
:101EF00090476D1C761C28780028F5D10FB030462D
:101F0000BDE8F08F0024A0460122604900E00443B0
:101F100015F8013F203B02FA03F00842F7D1287878
:101F20002E2817D115F8010F44F004042A280ED0EA
:101F30006FF02F022878A0F1300109290AD808EBA8
:101F4000880102EB410100EB01086D1CF2E757F834
:101F5000048B6D1C287869283ED006DC0028CDD083
:101F600063280BD0642804D136E0732810D075287C
:101F70004BD052460D999047761C85E017F8040B1C
:101F80008DF8000000208DF80100E946012003E0F3
:101F900057F8049B4FF0FF3061074FF0000401D465
:101FA0000AE0641C44450DDA8442FADB19F8041097
:101FB0000029F6D106E0641C8442FCDB19F8041009
:101FC0000029F8D1264404E019F8010B52460D9976
:101FD0009047641EF8D257E001CF4FF00A0B00285B
:101FE00002DA40422D2102E0210504D52B218DF893
:101FF0002410012103E0E10705D02021F7E70DF1CE
:10200000200908910CE00021F9E701CF4FF00A0BFD
:10201000F9E75946FEF744F901F1300209F8012DBC
:102020000028F6D1ADEB090000F1200B600701D4C8
:102030004FF00108D84502DDA8EB0B0000E00020BE
:102040008046002406E009A85246005D0D9990479D
:10205000641C761C08988442F5DB04E0302052466C
:102060000D999047761CB8F10001A8F10108F5DC44
:1020700005E019F8010B52460D999047761CBBF10B
:102080000001ABF1010BF4DC6D1C34E70928010001
:1020900070B50446064DE1B22846FFF7F7FE8021F1
:1020A0002846FFF769FE0028F9D0204670BD0000E1
:1020B000001001401CB54FF44070FEF775FFFEF7AD
:1020C00061FAFEF745FEFEF7D3FAFEF7F7FDFEF7DD
:1020D00069FDFEF791FFFEF771FFFEF731FAFEF79B
:1020E00083FAFEF7A9FAFFF79FF9FFF70DF9FFF75B
:1020F0002BFCFEF7BDFA09480121CDE900104A0288
:10210000002307A10A4800F061FD012802D04FF02A
:10211000FF301CBD00F02CFCFEE700002800002072
:102120004170705461736B437265617465000000A7
:10213000890400082DE9F04104460F46174EF56862
:102140003068001D00F066FA38B9306890F82C103D
:1021500001208840316981433161601C07D137B16A
:102160003168BDE8F041091D0D4800F08BBA2C44E0
:1021700030684460AC4206D23168B06B091DBDE8DE
:10218000F04100F067BA3168706B091D00F062FA27
:10219000B06A844200D2B462BDE8F0814C000020F5
:1021A0009407002070B5044600F078FA1C4DA8682A
:1021B000401CA860286810B1686938B10CE02C6038
:1021C000A868012808D100F0F7F805E02868E16A5E
:1021D000C06A884200D82C60686A401C6862E06A65
:1021E00001212A698140114329610E4900EB8000D9
:1021F00001EB8000211D00F045FA00F089FA6869C2
:1022000000280CD02868E16AC06A884207D20649D3
:102210004FF080500860BFF34F8FBFF36F8F70BDDA
:102220004C000020C404002004ED00E070B5124E04
:10223000124D1CE000F0E4FB306820B1002400F0F7
:102240007BFDA4B901E00124F9E700F027FAF0686A
:10225000C468201D00F0DEF9A868401EA860686808
:10226000401E686000F054FA204600F009F86868E3
:102270000028DFD170BD0000800700204C00002046
:1022800010B50446206B00F075FA2046BDE81040FA
:1022900000F070BA4FF410410F48420706D0C01D3D
:1022A00020F007000C49411AC1F510410B4A10609B
:1022B000002353600144083921F00701103A1160EE
:1022C0004B600B600B1A4360016040689060506087
:1022D0004FF00040D0607047A80700209800002011
:1022E000074E4FF08054074DFFF7A0FF30680128DC
:1022F000FAD92C60BFF34F8FBFF36F8FF4E7000064
:10230000C404002004ED00E02DE9F047DDE90858A1
:102310000A9C81460E469A46206B521E00EB8200B4
:1023200020F00707780705D040F22B3218A11EA035
:10233000FFF7B2FD00202218315C82F83410315CC6
:1023400011B1401C1028F6D3002684F84360202DDC
:1023500000D31F25E562201D00F079F904F1180073
:1023600000F075F92461C5F12000A0616462666423
:1023700084F8486052464946384600F039F92060F2
:10238000B8F1000F01D0C8F80040BDE8F0870000A8
:102390002E2E5C4672656552544F535C7372635CBB
:1023A0007461736B732E63004572726F723A25739A
:1023B0002C25640D0A00000070B50024114D04EBBB
:1023C000840005EB800000F037F9641C202CF6D364
:1023D0000D4800F031F90C48143000F02DF90A488E
:1023E000283000F029F908483C3000F025F906486B
:1023F000503000F021F905480349416314318163ED
:1024000070BD0000C4040020440700204C000020E0
:1024100030B5134900E011460A688242FBD34B688D
:102420005C18844203D140681844486008460D682F
:1024300044682318AB420DD1094B103B1B689A42EC
:1024400006D05268224442600A681268026002E0C4
:10245000036000E00260814200D0086030BD0000EF
:10246000980000200748416B0968002905D0416B9E
:10247000C968C9684968816270474FF0FF3181625D
:10248000704700004C00002008484068401C05D000
:1024900040F20F1206A110A0FFF7FEFC502080F3BF
:1024A0001188BFF34F8FBFF36F8FFEE7A0000020AE
:1024B0002E2E5C4672656552544F535C706F727479
:1024C0005C525644535C41524D5F434D34465C7000
:1024D0006F72742E630000004572726F723A25733A
:1024E0002C25640D0A0000002DE9F0410546002668
:1024F00000F086FA304F386808B9FFF7CBFEF8686D
:1025000005424BD175B1083568070BD005F00700BF
:10251000C0F108000544680704D0BF2227A130A0FD
:10252000FFF7BAFC002D39D07868854236D82249A9
:1025300010310846046801E0214604466068A8425C
:1025400002D220680028F7D13868844226D00E686D
:102550000836206808606068401B102811D904EB19
:1025600005085FEA487004D0EC2214A11CA0FFF714
:1025700093FC6068401BC8F8040065604046FFF7A4
:1025800047FF61687868401A7860BA68904200D264
:10259000B860F868014361600020206000F0CCFB67
:1025A000700705D04FF4967204A10DA0FFF774FCDC
:1025B0003046BDE8F0810000880000202E2E5C46E9
:1025C00072656552544F535C706F72745C4D656DEB
:1025D0004D616E675C686561705F342E630000005A
:1025E0004572726F723A25732C25640D0A00000043
:1025F00024384FF08073036221F00101C161044966
:10260000816142606FF0020140F8201970470000BC
:10261000892400080169D0E901329A60D0E90123D8
:102620005A604A68824201D182684A60002202618F
:102630000868401E0860704700F1080141604FF0D3
:10264000FF328260C160016100210160704700219A
:102650000161704730B50C68621C02D000F10802BD
:1026600002E0026904E01A4653681D68A542FAD9DF
:1026700053684B6099608A60516008610168491C29
:10268000016030BD42684A6093688B60936859600E
:10269000916008610168491C01607047502080F317
:1026A0001188BFF34F8FBFF36F8F09494868401CF3
:1026B000486001280AD10748006810F0FF0F05D0D4
:1026C00040F2B91204A10EA0FFF7E6BB704700006C
:1026D000A000002004ED00E02E2E5C4672656552DD
:1026E000544F535C706F72745C525644535C415249
:1026F0004D5F434D34465C706F72742E6300000072
:102700004572726F723A25732C25640D0A00000021
:1027100010B5094C6068002805D14FF4E07207A19C
:1027200010A0FFF7B9FB6068401E6060002801D16F
:1027300080F3118810BD0000A00000202E2E5C4602
:1027400072656552544F535C706F72745C5256449C
:10275000535C41524D5F434D34465C706F72742E32
:10276000630000004572726F723A25732C25640D68
:102770000A00000070B500282AD008380446154D1C
:102780006068E968084205D14FF4A07212A11BA04D
:10279000FFF782FB206828B140F241120EA117A07A
:1027A000FFF77AFB6068E968084211D02268002AC6
:1027B0000ED18843606000F023F9606869680844BE
:1027C00068602046FFF724FEBDE8704000F0B4BA10
:1027D00070BD0000880000202E2E5C467265655298
:1027E000544F535C706F72745C4D656D4D616E67D4
:1027F0005C686561705F342E630000004572726F23
:10280000723A25732C25640D0A00000006484FF427
:102810007A710068B0FBF1F14FF0E020491E416190
:1028200007210161704700000000002010B5044638
:102830000020002C10D00E48006B28B140F2CF428F
:102840000CA112A0FFF728FB00F0DAF800212046C7
:10285000FFF770FC00F070FA002807D10F494FF025
:1028600080500860BFF34F8FBFF36F8F10BD000023
:102870004C0000202E2E5C4672656552544F535C0E
:102880007372635C7461736B732E63004572726F55
:10289000723A25732C25640D0A00000004ED00E057
:1028A00070B50446FFF7FAFE234D04B92C68201DCD
:1028B000FFF7B0FE58B9E06A204A00EB800152F8F9
:1028C000211021B901218140286988432861A06A2B
:1028D00018B104F11800FFF79DFE686A401C686299
:1028E0002868844207D1211D1548FFF7CBFE686890
:1028F000401C686007E0A868401EA8602046FFF7FB
:10290000BFFCFFF7AFFDFFF703FF6869002812D097
:10291000286884420FD1286B28B140F2654209A192
:102920000EA0FFF7B9FA11494FF080500860BFF3CD
:102930004F8FBFF36F8F70BD4C000020C404002088
:10294000800700202E2E5C4672656552544F535C02
:102950007372635C7461736B732E63004572726F84
:10296000723A25732C25640D0A00000004ED00E086
:102970001CB515480024CDE900402346802213A150
:10298000144800F023F901280AD0401C1BD102B0E2
:1029900040F28472BDE810400FA115A0FFF77CBA89
:1029A000502080F31188BFF34F8FBFF36F8F06481D
:1029B0004FF0FF312C38816201214161C460BDE8D4
:1029C0001C4000F067B81CBD7800002049444C450D
:1029D00000000000E12200082E2E5C467265655260
:1029E000544F535C7372635C7461736B732E63003A
:1029F0004572726F723A25732C25640D0A0000002F
:102A00000248016B491C0163704700004C00002024
:102A100070B5144D286B002802D00120E86170BD0C
:102A20000020E8612869B0FA80F0C0F11F000E4E66
:102A300000EB800456F8240028B940F6F6220BA1DA
:102A400010A0FFF729FA06EB84004168496841604D
:102A500000F10802914201D1496841604068C068B4
:102A6000286070BD4C000020C40400202E2E5C465F
:102A700072656552544F535C7372635C7461736B1F
:102A8000732E63004572726F723A25732C25640DA4
:102A90000A0000001CB52F4C20682F49884205D140
:102AA00040F259122DA137A0FFF7F6F920682A4904
:102AB000491E884205D14FF4AD7228A131A0FFF71D
:102AC000EBF9344C20780190FF20207020780090A2
:102AD0009DF800009DF8001000F0F000884205D03D
:102AE00040F273121DA127A0FFF7D6F99DF8000050
:102AF000294A00F0500010700720906006E09068AE
:102B0000401E90609DF80000400000909DF800007D
:102B10000006F4D4107A000200F4E060906001989E
:102B200020700C482030016841F470010160016898
:102B300041F070410160FFF769FE00205060FDF731
:102B400061FB1648016841F040410160FDF74AFB16
:102B500000201CBD00ED00E071C20F412E2E5C462E
:102B600072656552544F535C706F72745C52564478
:102B7000535C41524D5F434D34465C706F72742E0E
:102B8000630000004572726F723A25732C25640D44
:102B90000A00000000E400E0A000002034EF00E0A4
:102BA00010B5502080F31188BFF34F8FBFF36F8FA4
:102BB00000F04AF818B104494FF080500860002036
:102BC00080F3118810BD000004ED00E02DE9FF5FE7
:102BD0008146DDE90E788A4616469B46B000FFF72F
:102BE00083FC054628000AD04C20FFF77DFC0446F4
:102BF0000CB1256304E02846FFF7BCFD00E000248B
:102C00008CB10020CDE90240CDE900785B46324628
:102C100051464846FFF778FB2046FFF7C3FA0120EC
:102C200004B0BDE8F09F4FF0FF30F9E70548416977
:102C3000002903D0006B18B10020704701207047B5
:102C4000022070474C0000202DE9F04100262E4F55
:102C5000386B002808D0B869401CB861F86900B129
:102C600001263046BDE8F081FD686D1CFD608DB920
:102C7000786B006828B140F6D91224A129A0FFF78B
:102C80000BF9786BB96B7963B863386A401C3862AA
:102C9000FFF7E8FBB86ADFF89C8085420DD3786BBC
:102CA000006838B1786BC068C468606885420ED22D
:102CB000B86202E04FF0FF30B8623868C06A00EBDB
:102CC000800058F820000128C8D90126C6E7201D39
:102CD000FFF7A0FCA06A18B104F11800FFF79AFCF6
:102CE000E06A01213A6981401143396100EB8000BB
:102CF00008EB8000211DFFF7C5FCE06A3968C96A4E
:102D00008842CCD30126CAE74C0000202E2E5C4618
:102D100072656552544F535C7372635C7461736B7C
:102D2000732E63004572726F723A25732C25640D01
:102D30000A000000C40400202DE9F041002400270F
:102D40002B4D286B002805D14FF4FD6229A12FA03F
:102D5000FFF7A2F8FFF7A2FC286B401E2863286B40
:102D6000F0BBA868E0B3DFF8B48001261DE0D8F816
:102D70000C00C46804F11800FFF74CFC201DFFF79D
:102D800049FCE06A2A6906FA00F1114329612449E5
:102D900000EB800001EB8000211DFFF773FCE06A6F
:102DA0002968C96A884200D3EE61D8F8000000287B
:102DB000DDD10CB1FFF756FBAC6944B1FFF744FF1E
:102DC00000B1EE61641E002CF8D10020A861E86912
:102DD00030B10127134938070860BFF34F8F00E077
:102DE00001E0BFF36F8FFFF793FC3846BDE8F08139
:102DF0004C0000202E2E5C4672656552544F535C89
:102E00007372635C7461736B732E63004572726FCF
:102E1000723A25732C25640D0A0000006C0700200F
:102E2000C404002004ED00E00000000000000000E9
:102E3000002F000000000700070000147F147F141B
:102E400000242A7F2A1200626408132300364955A1
:102E5000225000000503000000001C224100000079
:102E600041221C000014083E08140008083E08080F
:102E7000000000A06000000808080808000060606A
:102E80000000002010080402003E5149453E0000A9
:102E9000427F4000004261514946002141454B318B
:102EA000001814127F10002745454539003C4A4957
:102EB00049300001710905030036494949360006C9
:102EC0004949291E00003636000000005636000031
:102ED00000081422410000141414141400004122AC
:102EE000140800020151090600324959513E007C84
:102EF0001211127C007F49494936003E414141226E
:102F0000007F4141221C007F49494941007F090956
:102F10000901003E4149497A007F0808087F000006
:102F2000417F4100002040413F01007F08142241C1
:102F3000007F40404040007F020C027F007F040879
:102F4000107F003E4141413E007F09090906003ED5
:102F50004151215E007F09192946004649494931FE
:102F60000001017F0101003F4040403F001F204021
:102F7000201F003F4038403F0063140814630007DF
:102F80000870080700615149454300007F41410036
:102F900000552A552A55000041417F0000040201D6
:102FA00002040040404040400000010204000020B4
:102FB00054545478007F48444438003844444420F2
:102FC00000384444487F00385454541800087E099F
:102FD00001020018A4A4A47C007F08040478000067
:102FE000447D4000004080847D00007F1028440024
:102FF0000000417F4000007C04180478007C080435
:10300000047800384444443800FC24242418001870
:10301000242418FC007C080404080048545454205C
:1030200000043F444020003C4040207C001C2040E5
:10303000201C003C4030403C004428102844001C28
:10304000A0A0A07C004464544C4414141414141420
:103050000000000000000000000000000000000070
:10306000000000F800000000000000333000000005
:1030700000100C06100C060000000000000000000C
:1030800040C07840C0784000043F04043F0404007E
:10309000007088FC08300000001820FF211E00008E
:1030A000F008F000E018000000211C031E211E00A3
:1030B00000F00888700000001E2123241927211029
:1030C00010160E00000000000000000000000000CC
:1030D000000000E018040200000000071820400073
:1030E00000020418E0000000004020180700000063
:1030F000404080F0804040000202010F01020200C7
:10310000000000F0000000000101011F01010100AA
:10311000000000000000000080B07000000000000F
:103120000000000000000000000101010101010198
:10313000000000000000000000303000000000002F
:103140000000000080601804006018060100000004
:1031500000E010080810E000000F102020100F0001
:10316000001010F8000000000020203F2020000088
:1031700000700808088870000030282422213000E0
:1031800000300888884830000018202020110E00E8
:103190000000C02010F8000000070424243F240091
:1031A00000F80888880808000019212020110E0066
:1031B00000E0108888180000000F112020110E0078
:1031C00000380808C83808000000003F0000000070
:1031D0000070880808887000001C222121221C0031
:1031E00000E010080810E0000000312222110F005A
:1031F000000000C0C00000000000003030000000EF
:10320000000000800000000000008060000000005E
:103210000000804020100800000102040810200077
:1032200040404040404040000404040404040400C2
:103230000008102040800000002010080402010057
:10324000007048080808F000000000303601000057
:10325000C030C828E810E0000718272423140B000A
:103260000000C038E0000000203C23020227382084
:1032700008F8888888700000203F202020110E0068
:10328000C03008080808380007182020201008005F
:1032900008F808080810E000203F202020100F0048
:1032A00008F88888E8081000203F20202320180014
:1032B00008F88888E8081000203F2000030000007C
:1032C000C03008080838000007182020221E02001D
:1032D00008F808000008F808203F210101213F20DC
:1032E000000808F8080800000020203F2020000007
:1032F00000000808F8080800C08080807F000000F7
:1033000008F888C028180800203F2001263820002F
:1033100008F8080000000000203F20202020300096
:1033200008F8F800F8F80800203F003F003F2000B0
:1033300008F830C00008F808203F200007183F00B8
:10334000E01008080810E0000F10202020100F00E7
:1033500008F808080808F000203F210101010000DA
:10336000E01008080810E0000F18242438504F001F
:1033700008F8888888887000203F2000030C3020DF
:1033800000708808080838000038202121221C001D
:10339000180808F8080818000000203F2000000066
:1033A00008F808000008F808001F202020201F004F
:1033B0000878880000C83808000007380E010000AF
:1033C000F80800F80008F800033C0700073C030079
:1033D000081868808068180820302C03032C3020DF
:1033E0000838C800C83808000000203F200000004E
:1033F00010080808C83808002038262120201800A6
:10340000000000FE020202000000007F4040400079
:10341000000C30C000000000000000010638C000B1
:1034200000020202FE000000004040407F00000059
:10343000000004020202040000000000000000007E
:10344000000000000000000080808080808080807C
:103450000002020400000000000000000000000064
:1034600000008080808000000019242222223F205A
:1034700008F8008080000000003F112020110E009D
:103480000000008080800000000E1120202011002C
:10349000000000808088F800000E112020103F20DE
:1034A0000000808080800000001F22222222130062
:1034B000008080F0888888180020203F20200000AD
:1034C0000000808080808000006B94949493600062
:1034D00008F8008080800000203F210000203F206D
:1034E00000809898000000000020203F202000006D
:1034F000000000809898000000C08080807F00005D
:1035000008F8000080808000203F24022D30200039
:10351000000808F8000000000020203F20200000E4
:103520008080808080808000203F20003F20003FFE
:103530008080008080800000203F210000203F200C
:103540000000808080800000001F202020201F00BD
:10355000808000808000000080FFA12020110E00EC
:103560000000008080808000000E112020A0FF80DD
:10357000808080008080800020203F21200001008A
:1035800000008080808080000033242424241900DF
:10359000008080E0808000000000001F20200000EC
:1035A0008080000000808000001F202020103F202D
:1035B000808080000080808000010E3008060100BD
:1035C00080800080008080800F300C030C300F0062
:1035D00000808000808080000020312E0E3120008D
:1035E000808080000080808080818E7018060100BD
:1035F00000808080808080000021302C22213000DB
:1036000000000000807C020200000000003F4040FB
:1036100000000000FF00000000000000FF000000AC
:103620000002027C800000000040403F00000000DB
:103630000006010102020404000000000000000076
:103640006036000800000020B0000000B81E00082E
:1036500010370008B0000020F89A0000C81E0008CB
:103660000095BA0A000000000000000001020304F7
:103670000607080900000000010203040102030418
:103680000607080900001400000000000000000008
:103690000000000000A0000000000000000000008A
:1036A000000000000000000000000000000000001A
:1036B000000000000000000000000000000000000A
:1036C00000000000000000000000000000000000FA
:1036D00000000000000000000000000000000000EA
:1036E00000000000000000000000000000000000DA
:1036F00000000000000000000000000000000000CA
:1037000000000000AAAAAAAA000000000000000011
:04000005080001AD41
:00000001FF
