:020000040800F2
:1000000080060020CD0100082D040008ED03000843
:1000100029040008C9020008FD07000800000000CC
:10002000000000000000000000000000E5040008DF
:10003000CD02000800000000A1040008F905000836
:10004000E7010008E7010008E7010008E7010008F0
:10005000E7010008E7010008E7010008E7010008E0
:10006000E7010008E7010008E7010008E7010008D0
:10007000E7010008E7010008E7010008E7010008C0
:10008000E7010008E7010008E7010008E7010008B0
:10009000E7010008E7010008E7010008E7010008A0
:1000A000E7010008E7010008E7010008E701000890
:1000B0005D060008E7010008E7010008E701000805
:1000C000E7010008E7010008E7010008E701000870
:1000D000E7010008E7010008E7010008E701000860
:1000E000E7010008E7010008E7010008E701000850
:1000F000E7010008E7010008E7010008E701000840
:10010000E7010008E7010008E7010008E70100082F
:10011000E7010008E7010008E7010008E70100081F
:10012000E7010008E7010008E7010008E70100080F
:1001300000F002F800F03AF80AA090E8000C8244BF
:100140008344AAF10107DA4501D100F02FF8AFF29C
:10015000090EBAE80F0013F0010F18BFFB1A43F0A5
:10016000010318471408000034080000103A24BFA7
:1001700078C878C1FAD8520724BF30C830C144BF0C
:1001800004680C607047000000230024002500264E
:10019000103A28BF78C1FBD8520728BF30C148BFEA
:1001A0000B6070471FB51FBD10B510BD00F031F8D2
:1001B0001146FFF7F7FF00F043FB00F04FF803B4E0
:1001C000FFF7F2FF03BC00F057F800000948804732
:1001D00009480047FEE7FEE7FEE7FEE7FEE7FEE729
:1001E000FEE7FEE7FEE7FEE704480549054A064B41
:1001F00070470000FD050008310100088000002064
:100200008006002080020020800200207047704796
:100210007047754600F02CF8AE4605006946534617
:1002200020F00700854618B020B5FFF7DDFFBDE8D8
:1002300020404FF000064FF000074FF000084FF04D
:10024000000B21F00701AC46ACE8C009ACE8C009DE
:10025000ACE8C009ACE8C0098D46704710B504464B
:10026000AFF300802046BDE81040FFF7A8BF0000B4
:10027000004870472000002001491820ABBEFEE76F
:10028000260002007047000010B501210D4800F063
:10029000ABF802210B4800F0A7F80421094800F050
:1002A000A3F84FF48071074800F09EF84FF40071F6
:1002B000044800F099F84FF48061024800F094F887
:1002C00010BD00000008014000BFFEE770472DE9A7
:1002D000F0410246002500260020002300240027CC
:1002E00091F803C00CF00F0591F803C00CF0100C4E
:1002F000BCF1000F03D091F802C04CEA050591F85B
:1003000000C0BCF1000F31D0146800202BE04FF08A
:10031000010C0CFA00F3B1F800C00CEA03069E428F
:1003200020D183004FF00F0C0CFA03F7BC4305FA01
:1003300003FC4CEA040491F803C0BCF1280F06D179
:100340004FF0010C0CFA00FCC2F814C00AE091F85E
:1003500003C0BCF1480F05D14FF0010C0CFA00FCB2
:10036000C2F810C0401C0828D1D31460B1F800C0F6
:10037000BCF1FF0F34DD546800202EE000F1080CC2
:100380004FF0010808FA0CF3B1F800C00CEA0306BC
:100390009E4221D183004FF00F0C0CFA03F7BC43AF
:1003A00005FA03FC4CEA040491F803C0BCF1280FE1
:1003B00005D100F1080C08FA0CF8C2F8148091F885
:1003C00003C0BCF1480F07D100F1080C4FF0010841
:1003D00008FA0CF8C2F81080401C0828CED35460EC
:1003E000BDE8F081416170470161704700BFFEE7E1
:1003F00008B50121042000F065F840F20770ADF85F
:10040000000010208DF8030003208DF802006946DB
:100410000448FFF75CFF40F207710248FFF7E4FF72
:1004200008BD00000008014000BFFEE77047000063
:1004300070B5002100230F22C47804B3154C246842
:1004400004F4E064C4F5E064210AC1F10403CA4085
:10045000447804FA03F184781440214309010E4CD6
:100460000678A155047804F01F050124AC400578F6
:100470006D11AD0005F1E025C5F8004109E00478F3
:1004800004F01F050124AC40044D0678761145F8B0
:10049000264070BD0CED00E000E400E080E100E0EB
:1004A0007047000029B1064AD2690243044BDA6161
:1004B00004E0034AD2698243014BDA6170470000CD
:1004C0000010024029B1064A92690243044B9A6126
:1004D00004E0034A92698243014B9A61704700002D
:1004E00000100240704710B500F002F810BD000087
:1004F0000CB50020019000903348006840F4803033
:100500003149086000BF3048006800F400300090B6
:100510000198401C0190009818B90198B0F5A06F9F
:10052000F1D12948006800F4003010B1012000909A
:1005300001E0002000900098012843D12348006882
:1005400040F01000214908600846006820F00300D0
:1005500008600846006840F0020008601A484068D9
:10056000194948600846406848600846406840F4B9
:10057000806048600846406820F47C104860084667
:10058000406840F4E81048600846006840F0807019
:10059000086000BF0C48006800F000700028F9D027
:1005A0000948406820F00300074948600846406851
:1005B00040F00200486000BF0348406800F00C00B3
:1005C0000828F9D10CBD00000010024000200240B4
:1005D000042808D14FF0E021096941F004014FF0EF
:1005E000E022116107E04FF0E021096921F00401E8
:1005F0004FF0E022116170477047000010B51348BA
:10060000006840F001001149086008464068104940
:1006100008400E494860084600680E4908400B49EA
:1006200008600846006820F480200860084640689A
:1006300020F4FE0048604FF41F008860FFF753FF6E
:100640004FF000600449086010BD00000010024037
:100650000000FFF8FFFFF6FE08ED00E010B50121F5
:10066000880700F05FF8D0B10D480068401C0C49C5
:100670000860084600684FF47A71B0FBF1F201FBA4
:10068000120040B907480088002804DD05480088AA
:10069000401E044908800121880700F034F810BD8D
:1006A00004000020080000201FB501210846FFF7C4
:1006B000F9FE0920ADF8080041F61F40ADF804002E
:1006C0000020ADF80A00ADF8060001A94FF0804007
:1006D00000F042F801221146900700F034F81C2087
:1006E0008DF8000000208DF8010003208DF8020035
:1006F00001208DF803006846FFF79AFE0121880764
:1007000000F004F81FBDCA430282704721B102887D
:1007100042F00102028004E002884FF6FE731A40A4
:100720000280704730B50246002000230024158A5D
:1007300005EA0103958905EA010413B10CB1012012
:1007400000E0002030BD1AB183890B43838102E0B1
:1007500083898B4383817047002202881D4B984216
:100760000ED01D4B98420BD0B0F1804F08D01B4BE0
:10077000984205D01A4B984202D01A4B984204D1A5
:100780004FF68F731A404B881A43174B984207D085
:10079000164B984204D04FF6FF431A40CB881A43B9
:1007A00002808B8883850B8803850A4B98420BD087
:1007B000094B984208D00E4B984205D00D4B9842F9
:1007C00002D00D4B984201D10B7A0386012383821C
:1007D00070470000002C014000340140000400403C
:1007E00000080040000C00400010004000140040D1
:1007F00000400140004401400048014000BFFEE7C6
:1008000010B50420FFF7E4FE094800680949B0FB71
:10081000F1F0094908700846007800EB4001C1EB8F
:10082000C0104FF6FF7101EAC0000449088010BDF6
:100830000C00002000127A000000002002000020BE
:10084000FFF7DEFFFFF7D4FDFFF72EFF002046493C
:1008500008700C204549088084E04448008828BB83
:100860004148007830B101280BD0022810D003286D
:100870001BD113E001203C49087003203B4908804C
:1008800013E00220384908700C20384908800CE039
:100890000320354908703549088006E000203249B8
:1008A00008700C203149088000BF00BF2E48007836
:1008B00030B1012810D002282AD0032851D133E0CA
:1008C000FFF7E2FC01212A48FFF78CFD4FF400718D
:1008D0002748FFF787FD44E0FFF7D6FC4FF400718F
:1008E0002348FFF77FFD234800684FF47A71B0FB7F
:1008F000F1F201FB1200B0F5FA7F04D204211C488A
:10090000FFF770FD03E004211948FFF76DFD28E0B3
:10091000FFF7BAFC4FF480711548FFF763FD022121
:100920001348FFF75FFD1CE0FFF7AEFC0221104803
:10093000FFF758FD0F4800684FF47A71B0FBF1F2F1
:1009400001FB1200B0F5FA7F05D24FF48061084830
:10095000FFF748FD04E04FF480610548FFF744FDD0
:1009600000BF00BF79E700000A0000200800002057
:100970000008014004000020980900080000002041
:10098000200000006C010008B809000820000020C9
:100990006006000088010008000000000000000060
:1009A0000F00000000A24A04000000000000000048
:0809B000010203040607080917
:0400000508000131BD
:00000001FF
