:020000040800F2
:1000000090060020CD010008ED030008AB030008B6
:10001000E903000887020008350D00080000000011
:100020000000000000000000000000007106000851
:100030008B0200080000000061040008FD080008B1
:10004000E7010008E7010008E7010008E7010008F0
:10005000E7010008E7010008E7010008E7010008E0
:10006000E7010008E7010008E7010008E7010008D0
:10007000E7010008E7010008E7010008E7010008C0
:10008000E7010008E7010008E7010008E7010008B0
:10009000E7010008E7010008E7010008E7010008A0
:1000A000E7010008E7010008E7010008E701000890
:1000B00061090008E7010008410A0008E70100089B
:1000C000E7010008E7010008E7010008E701000870
:1000D000E7010008E7010008E7010008E701000860
:1000E000E7010008E7010008E7010008E701000850
:1000F000E7010008E7010008E7010008E701000840
:10010000E7010008E7010008E7010008E70100082F
:10011000E7010008E7010008E7010008E70100081F
:10012000E7010008E7010008E7010008E70100080F
:1001300000F002F800F03AF80AA090E8000C8244BF
:100140008344AAF10107DA4501D100F02FF8AFF29C
:10015000090EBAE80F0013F0010F18BFFB1A43F0A5
:1001600001031847440C0000640C0000103A24BF3F
:1001700078C878C1FAD8520724BF30C830C144BF0C
:1001800004680C607047000000230024002500264E
:10019000103A28BF78C1FBD8520728BF30C148BFEA
:1001A0000B6070471FB51FBD10B510BD00F031F8D2
:1001B0001146FFF7F7FF00F0DFFD00F04FF803B442
:1001C000FFF7F2FF03BC00F057F800000948804732
:1001D00009480047FEE7FEE7FEE7FEE7FEE7FEE729
:1001E000FEE7FEE7FEE7FEE704480549054A064B41
:1001F000704700000109000831010008900000204C
:100200009006002090020020900200207047704766
:100210007047754600F02CF8AE4605006946534617
:1002200020F00700854618B020B5FFF7DDFFBDE8D8
:1002300020404FF000064FF000074FF000084FF04D
:10024000000B21F00701AC46ACE8C009ACE8C009DE
:10025000ACE8C009ACE8C0098D46704710B504464B
:10026000AFF300802046BDE81040FFF7A8BF0000B4
:10027000004870472C00002001491820ABBEFEE763
:1002800026000200704700BFFEE770472DE9F041ED
:10029000024600250026002000230024002791F8B4
:1002A00003C00CF00F0591F803C00CF0100CBCF16A
:1002B000000F03D091F802C04CEA050591F800C088
:1002C000BCF1000F31D0146800202BE04FF0010C7E
:1002D0000CFA00F3B1F800C00CEA03069E4220D1EC
:1002E00083004FF00F0C0CFA03F7BC4305FA03FC34
:1002F0004CEA040491F803C0BCF1280F06D14FF07A
:10030000010C0CFA00FCC2F814C00AE091F803C01A
:10031000BCF1480F05D14FF0010C0CFA00FCC2F8FB
:1003200010C0401C0828D1D31460B1F800C0BCF143
:10033000FF0F34DD546800202EE000F1080C4FF070
:10034000010808FA0CF3B1F800C00CEA03069E425B
:1003500021D183004FF00F0C0CFA03F7BC4305FAD0
:1003600003FC4CEA040491F803C0BCF1280F05D14A
:1003700000F1080C08FA0CF8C2F8148091F803C0D8
:10038000BCF1480F07D100F1080C4FF0010808FA42
:100390000CF8C2F81080401C0828CED35460BDE889
:1003A000F081416170470161704700BFFEE70000C6
:1003B00008B50121042000F065F840F20770ADF89F
:1003C000000010208DF8030003208DF8020069461C
:1003D0000448FFF75BFF40F207710248FFF7E3FFB5
:1003E00008BD00000008014000BFFEE770470000A4
:1003F00070B5002100230F22C47804B3154C246883
:1004000004F4E064C4F5E064210AC1F10403CA40C5
:10041000447804FA03F184781440214309010E4C16
:100420000678A155047804F01F050124AC40057836
:100430006D11AD0005F1E025C5F8004109E0047833
:1004400004F01F050124AC40044D0678761145F8F0
:10045000264070BD0CED00E000E400E080E100E02B
:100460007047000029B1064AD2690243044BDA61A1
:1004700004E0034AD2698243014BDA61704700000D
:100480000010024029B1064A92690243044B9A6166
:1004900004E0034A92698243014B9A61704700006D
:1004A0000010024010B500F02DF84FF4803000F03D
:1004B00081F800BF312000F04BF80028FAD000206E
:1004C00000F06CF84FF4806000F09AF8002000F023
:1004D000A3F84FF4E0114FF4803000F0AFF80120A2
:1004E00000F0A6F800BF392000F032F80028FAD05A
:1004F000022000F0B1F800BF00F048F80828FBD156
:1005000010BD00000F48006840F001000D49086070
:10051000084640680C4908400A4948600846006897
:100520000A490840074908600846006820F480200E
:1005300008600846406820F4FE0048604FF41F0041
:1005400088607047001002400000FFF8FFFFF6FED1
:1005500010B501460022002300204A11012A02D1D1
:10056000094C236806E0022A02D1074C236A01E005
:10057000054C636A01F01F02012494401C400CB139
:10058000012000E0002010BD001002400248406839
:1005900000F00C00704700000010024001460020EF
:1005A000034A506820F0F000084350607047000094
:1005B000001002401149096821F480310F4A11608E
:1005C0001146096821F480211160B0F5803F03D005
:1005D000B0F5802F0ED106E00849096841F480315A
:1005E000064A116007E00549096841F4A021034A61
:1005F000116000E000BF00BF704700000010024023
:1006000001460020034A506820F4E060084350602F
:10061000704700000010024001460020034A506865
:1006200020F4605040EAC100506070470010024062
:10063000014908667047000000004242024600205F
:10064000044B586820F47C1042EA01031843014B24
:10065000586070470010024001460020034A50686D
:1006600020F0030008435060704700000010024073
:100670007047000010B54FF470410248FFF791FE3B
:1006800010BD0000000C0140092800DD00200929F0
:1006900000DD0021014A10705170704700000020F9
:1006A00008B501210820FFF7EDFEFF20ADF800009E
:1006B00010208DF8030003208DF8020069460C48D5
:1006C000FFF7E4FD4FF47040ADF8000069460848BC
:1006D000FFF7DCFDFFF7CEFF002000F045F800201B
:1006E0000449087048700449087000F04BF808BDD0
:1006F000000C0140000000200200002010B5FFF7B0
:10070000B9FF0C490C4A1278895C0C4A505C00F025
:100710002BF80948007800F013F807480078401CCF
:100720000549087008460078022801DB002008709F
:1007300010BD000000000020020000209C0D0008F9
:1007400010B50446FFF796FF2CB94FF44051054809
:10075000FFF729FE04E04FF440410248FFF723FE73
:1007600010BD0000000C01400146054A126890B21D
:1007700020F0FF00CAB21043014A10607047000029
:100780000C0C01401FB501210420FFF76BFEC720B0
:10079000ADF8080040F23F60ADF804000020ADF86D
:1007A0000A00ADF8060001A90F4800F085F91E20E7
:1007B0008DF8000002208DF8010000208DF8020065
:1007C00001208DF803006846FFF712FE012106485C
:1007D00000F046F901221146034800F064F90121B6
:1007E000014800F043F91FBD0008004010B500F0BB
:1007F00001F810BD0CB5002001900090334800684E
:1008000040F480303149086000BF3048006800F48F
:10081000003000900198401C0190009818B9019890
:10082000B0F5A06FF1D12948006800F4003010B194
:100830000120009001E0002000900098012843D1A1
:100840002348006840F0100021490860084600680D
:1008500020F0030008600846006840F002000860CD
:100860001A48406819494860084640684860084688
:10087000406840F4806048600846406820F47C107E
:1008800048600846406840F4E81048600846006840
:1008900040F08070086000BF0C48006800F00070F5
:1008A0000028F9D00948406820F003000749486053
:1008B0000846406840F00200486000BF03484068B6
:1008C00000F00C000828F9D10CBD00000010024017
:1008D00000200240042808D14FF0E021096941F0CE
:1008E00004014FF0E022116107E04FF0E0210969B7
:1008F00021F004014FF0E0221161704770470000C1
:1009000010B51348006840F001001149086008461E
:100910004068104908400E494860084600680E4982
:1009200008400B4908600846006820F480200860F1
:100930000846406820F4FE0048604FF41F008860BD
:10094000FFF754FF4FF000600449086010BD00003D
:10095000001002400000FFF8FFFFF6FE08ED00E087
:1009600010B50121880700F08DF888B31948006898
:10097000401C18490860084600684FF4FA71B0FB43
:10098000F1F201FB120058B91348007808B90120B0
:1009900000E00020104908700846007800F03AF99D
:1009A0000C4800684FF47A71B0FBF1F201FB1200C1
:1009B00050B90A480088002804DD08480088401E15
:1009C0000649088000F0F8F80121880700F04BF88C
:1009D00010BD0000100000201600002006000020BE
:1009E0001FB501210846FFF73DFD0920ADF80800BD
:1009F00041F61F40ADF804000020ADF80A00ADF844
:100A0000060001A94FF0804000F056F8012211467F
:100A1000900700F048F81C208DF8000000208DF8A9
:100A2000010003208DF8020001208DF803006846C4
:100A3000FFF7DEFC0121880700F018F81FBD000059
:100A400010B50121054800F01DF828B1FFF756FE4A
:100A50000121024800F007F810BD00000008004026
:100A6000CA4302827047CA430282704721B102889A
:100A700042F00102028004E002884FF6FE731A4041
:100A80000280704730B50246002000230024158AFA
:100A900005EA0103958905EA010413B10CB10120AF
:100AA00000E0002030BD1AB183890B43838102E04E
:100AB00083898B4383817047002202881D4B9842B3
:100AC0000ED01D4B98420BD0B0F1804F08D01B4B7D
:100AD000984205D01A4B984202D01A4B984204D142
:100AE0004FF68F731A404B881A43174B984207D022
:100AF000164B984204D04FF6FF431A40CB881A4356
:100B000002808B8883850B8803850A4B98420BD023
:100B1000094B984208D00E4B984205D00D4B984295
:100B200002D00D4B984201D10B7A038601238382B8
:100B300070470000002C01400034014000040040D8
:100B400000080040000C004000100040001400406D
:100B500000400140004401400048014010B5002021
:100B6000114908700C2011490880002010490870B4
:100B700001211048FFF715FC02210E48FFF713FC76
:100B800004210C48FFF70FFC4FF480710948FFF770
:100B90000AFC4FF400710748FFF703FC4FF4806133
:100BA0000448FFF700FC10BD0400002006000020F0
:100BB00008000020000801401448008828BB1448A1
:100BC000007830B101280BD0022810D003281BD1A7
:100BD00013E001200E49087003200C49088013E03F
:100BE00002200B4908700C20084908800CE0032003
:100BF000074908700549088006E00020044908708C
:100C00000C200249088000BF00BF7047060000208A
:100C10000400002010B504464448007830B1012893
:100C200020D0022840D003287DD159E0012140483E
:100C3000FFF7B7FB02213E48FFF7B5FB04213C4814
:100C4000FFF7B1FB4FF480713948FFF7ACFB4FF46D
:100C500000713748FFF7A5FB4FF480613448FFF778
:100C6000A2FB60E001213248FFF79DFB02213048E2
:100C7000FFF799FB24B104212D48FFF792FB03E015
:100C800004212B48FFF78FFB4FF480712848FFF7B2
:100C90008AFB4FF400712648FFF783FB4FF4806115
:100CA0002348FFF780FB3EE001212148FFF77BFB53
:100CB00002211F48FFF775FB04211D48FFF773FB56
:100CC0004FF480711A48FFF76CFB4FF4007118481D
:100CD000FFF769FB4FF480611548FFF764FB22E0E2
:100CE00001211348FFF75FFB02211148FFF759FB71
:100CF00004210F48FFF757FB4FF480710C48FFF7B2
:100D000052FB4FF400710A48FFF74DFB2CB14FF432
:100D100080610748FFF745FB04E04FF48061044819
:100D2000FFF741FB00BF00BF10BD00000400002022
:100D30000008014000BFFEE710B50420FFF7CAFD20
:100D4000094800680949B0FBF1F0094908700846F4
:100D5000007800EB4001C1EBC0104FF6FF7101EAD3
:100D6000C0000449088010BD1800002000127A005D
:100D70000A0000200C000020FFF794FBFFF7DCFFC7
:100D8000FFF716FBFFF7EAFEFFF72AFEFFF788FCE6
:100D900007210320FFF778FC00BFFEE7C0F9A4B0ED
:100DA000999282F880900000C80D00080000002091
:100DB0002C0000006C010008F40D00082C0000203D
:100DC00064060000880100080000000000000C001C
:100DD0000000000000000000000000000F00000004
:100DE00000A24A0400000000000000000102030409
:040DF00006070809E1
:0400000508000131BD
:00000001FF
