:020000040800F2
:10000000300700207902000871270008BF1F000890
:100010006D2700084B1E000875290008000000002D
:10002000000000000000000000000000FF270008A2
:100030004F1E000800000000732700081129000867
:10004000930200089302000893020008930200083C
:10005000930200089302000893020008511E000852
:10006000631E000893020008930200089302000830
:10007000930200089302000893020008930200080C
:1000800093020008930200089302000893020008FC
:1000900093020008930200089302000893020008EC
:1000A00093020008930200089302000893020008DC
:1000B00093020008930200089302000893020008CC
:1000C00093020008930200089302000893020008BC
:1000D00093020008930200089302000893020008AC
:1000E000930200089302000893020008930200089C
:1000F000930200089302000893020008930200088C
:10010000930200089302000893020008930200087B
:10011000930200089302000893020008930200086B
:10012000930200089302000893020008930200085B
:1001300000F002F800F090F80AA090E8000C824469
:100140008344AAF10107DA4501D100F085F8AFF246
:10015000090EBAE80F0013F0010F18BFFB1A43F0A5
:100160000103184780350000A0350000103A24BF75
:1001700078C878C1FAD8520724BF30C830C144BF0C
:1001800004680C607047000000230024002500264E
:10019000103A28BF78C1FBD8520728BF30C148BFEA
:1001A0000B6070476E2900F06382702900F0AD8308
:1001B000662902F00B85652902F00885672902F09F
:1001C0000585612902F0048503681B0A28BF41F0F8
:1001D0008001692900F01082642900F00D827529E0
:1001E00000F00A826F2900F03A83782900F07983C1
:1001F000E92900F0D582E42900F0D282F52900F047
:10020000CF82EF2900F03783F82900F07883036864
:10021000DB0928BF41F08001632901F0D3807329F5
:1002200001F0D880E32901F0E380F32901F0E880B0
:10023000002070471FB501F035F9040000200021AF
:1002400002F0AEFC401C60600020002102F092FC35
:10025000E0601FBD10B510BD01F0F6F81146FFF7C4
:10026000E9FF02F0EBFB01F0D3F903B4FFF7F2FF73
:1002700003BC01F01BFA0000094880470948004709
:10028000FEE7FEE7FEE7FEE7FEE7FEE7FEE7FEE746
:10029000FEE7FEE704480549054A064B70470000A3
:1002A0001529000831010008300100203007002026
:1002B000300300203003002010B54C1084EA5304B2
:1002C00004D54042C1F1000138BF491E1B4204D58C
:1002D0005242C3F1000338BF5B1E00F0B4F814F0C3
:1002E000804F04D04042C1F1000138BF491E14F0D4
:1002F000004F04D05242C3F1000338BF5B1E10BD53
:100300007CB51D4616460C00009001D02044401ECE
:10031000074B7B442A4669460190304600F0C1F9FC
:1003200005461CB10020694600F0CEF928467CBD88
:10033000BD03000010B5431C02E010F8011B71B1B1
:100340008107FAD14FF0013202C88C1A8C4314EAAB
:10035000C211F9D0C01A0A0603D0C01E10BDC01ABF
:1003600010BD0A0401D0801E10BD0902FCD0401E41
:1003700010BD032A40F2308010F0030C00F015800D
:1003800011F8013BBCF1020F624498BF11F801CB98
:1003900000F8013B38BF11F8013BA2F1040298BFFD
:1003A00000F801CB38BF00F8013B11F0030300F067
:1003B0007B83083AC0F0088051F8043B083A51F8B2
:1003C00004CBA0E80810F5E7121D5CBF51F8043B10
:1003D00040F8043BAFF30080D20724BF11F8013B83
:1003E00011F801CB48BF11F8012B24BF00F8013BE5
:1003F00000F801CB48BF00F8012B70474FF0000216
:100400000429C0F0128010F0030C00F08183CCF1BD
:10041000040CBCF1020F18BF00F8012BA8BF20F894
:10042000022BA1EB0C0100F073BB5FEAC17C24BF7F
:1004300000F8012B00F8012B48BF00F8012B704792
:1004400070477047704753EA020C00F069802DE94D
:10045000F04B4FF00006002B1FBFB3FA83F503FAF1
:1004600005F424FA05F65E4012BF1643B2FA82F58F
:1004700002FA05F4C5F120051EBF22FA05FC44EA84
:100480000C04203556EA044C4FEA144418BF641C8F
:100490004FF000084FF00009904271EB030C39D384
:1004A000002919BFB1FA81F701FA07F6B0FA80F70F
:1004B00000FA07F6C7F120071EBF20FA07FC46EA3C
:1004C0000C062037B6FBF4FCA7EB0507103F07F03E
:1004D0001F0BCBF120060CFA0BFB2CFA06F644BFDF
:1004E000B3460026202FA4BF5E464FF0000B5BEA08
:1004F000060C08BF4FF0010B19EB0B09ABFB027C9C
:1005000048EB0608C01B06FB02CC0BFB03CC71EBCF
:100510000C01C1E70B46024641464846BDE8F08B58
:1005200013B54FF000004FF00001AFF30080BDE8BD
:100530001C40704770B5044685690068C10601D546
:10054000302600E02026C00707D070BDD4E9012185
:1005500030469047206A401C20626D1EF6D570BD63
:1005600070B5044685690078C00707D170BDD4E92D
:10057000012120209047206A401C20626D1EF6D584
:1005800070BD09684A0501D540B27047C905FCD560
:1005900000B2704709684A0501D5C0B27047C90565
:1005A000FCD580B2704770B50C460546012A05D0CF
:1005B0002878800600D5EA69002302E0012305E0DF
:1005C0005B1C934202D2E05C0028F9D1A869E618CE
:1005D000C01AA861286A184428622846FFF7AAFFB3
:1005E00004E0D5E9012114F8010B9047B442F8D397
:1005F0002846FFF7B5FF70BD2DE9F04106460024FF
:1006000010687529314616A510D0FFF7BAFF0028EB
:1006100002DA404213A507E031688A0701D512A526
:1006200002E0490704D511A5012401E0FFF7B2FF5C
:1006300000210A2206F1240709E0B0FBF2FCB0FB1E
:10064000F2F302FB1C00303078541846491C002895
:10065000F3D123462A463046BDE8F04100F0C2BA45
:10066000000000002D0000002B0000002000000012
:1006700011680268006A530501D508700AE0D305C5
:1006800001D5088006E0130603D5C217C1E90002B0
:1006900000E008600120704701694A1C0261087887
:1006A000704700B58FB0CDE90131002105910549B2
:1006B0007944CDE903101146684600F031F90FB0D6
:1006C00000BD0000E5FFFFFF0A6802F8010B0A60A9
:1006D0007047D1E900239A4202D2531C0B6010707C
:1006E000704700002DE9FF5F15468A460446DFF893
:1006F000AC80F8440027D8E900103E46CDE9001050
:1007000010E03AF816106A4602A800F07DFE411C7F
:1007100007D02178890603D5E269391891420DD8AE
:100720000744761C2078800602D5E069B84205DDD2
:10073000AE42E6DB3AF816000028E2D1A069C01B01
:10074000A0612046FFF7F6FED8E90010CDE90010C1
:10075000002017E03AF818106A4602A800F054FE8C
:10076000B0F1FF3F81460BD000250DF1080B05E0ED
:10077000D4E901211BF8050090476D1C4D45F7D3C6
:1007800008F10100B0428046E4DB206A3844206270
:100790002046FFF7E5FEBDE8FF9F0000F22E0000B7
:1007A0002DE9F0418046D21D22F007020025D2E952
:1007B0000002F52915A614D0011E72F1000106DA17
:1007C0000023D0EB030063EB020211A608E0D8F887
:1007D00000108B0701D50FA602E0490701D50EA630
:1007E00001251146002408F1240704E000F0B5F9C2
:1007F00030323A55641C50EA0102F7D12B4632469A
:1008000021464046BDE8F04100F0ECB90000000090
:100810002D0000002B0000002000000030B400215B
:1008200000F1240408E002F00705D208303542EA5E
:100830004372DB086554491C52EA0305F3D104688E
:10084000002310A2250707D5A40600D421B1C4694E
:1008500001230DA2641EC46130BC00F0C3B910B501
:10086000044621461068FFF795FE02462046BDE883
:1008700010400023D2E7D21D22F00701D1E9002366
:10088000CCE700000000000030000000F0B40D468E
:100890000188090502D5214C7C4402E01F4C7C44B0
:1008A0000E34002100F1240608E002F00F071209BF
:1008B000E75D42EA03721B097754491C52EA0307B9
:1008C000F3D102780023120704D5702D06D009B1A8
:1008D000022311342246F0BC00F084B90123103405
:1008E000F8E770B504460D4621461068FFF752FE42
:1008F000024629462046BDE870400023C6E7D21DC7
:1009000022F00703D3E90023C0E70368126843F02D
:10091000200303600823C3610023B7E7542D0000C0
:100920002DE9F05F894604464FF0000ADFF874B104
:10093000FB44C0F820A02046E1688847002874D016
:10094000252806D0D4E901219047206A401C206266
:10095000F1E700265F462046E168884720280546E3
:1009600007DB312D05D2781910F8200C08B10643A9
:10097000F1E7B00701D526F00406C4F81CA0002753
:10098000C4F818A02A2D09D0284602F009F838B377
:1009900004EB8708303DC8F8185019E059F8041BDB
:1009A000204604EB87029161E1688847012F0546E4
:1009B00018D1E069002820DA26F020061DE0D8F8DA
:1009C000180000EB800005EB40003038C8F8180034
:1009D0002046E1688847054601F0E2FF0028EED195
:1009E000012F0AD02E2D08D12046E16888477F1CB0
:1009F0000546022F46F02006C4DBA069002803DA72
:100A0000404246F00106A061F00701D026F0100632
:100A10006C2D0BD0682D09D04C2D39D06A2D35D0D6
:100A2000742D35D07A2D33D016E038E0E1682F46AA
:100A300020468847B842054609D16C2F26D04FF48E
:100A40008060E168064320468847054604E06C2F35
:100A50001AD04FF4807006430DB3A5F14100192858
:100A600002D8203546F400664A46294620462660CC
:100A70004E46FFF797FB80B101280BD0F61D26F0FC
:100A8000070000F1080956E74020E4E78020D8E796
:100A90000020D6E706F104094DE7284652E7206A10
:100AA000BDE8F09FE42C000010B5203AC0F00B80A8
:100AB000B1E81850203AA0E81850B1E81850A0E862
:100AC0001850BFF4F5AF5FEA027C24BFB1E81850BC
:100AD000A0E8185044BF18C918C0BDE810405FEA2C
:100AE000827C24BF51F8043B40F8043B08BF7047A8
:100AF000D20728BF31F8023B48BF11F8012B28BFAD
:100B000020F8023B48BF00F8012B70474FF000026D
:100B100000B5134694469646203922BFA0E80C50F3
:100B2000A0E80C50B1F12001BFF4F7AF090728BFCE
:100B3000A0E80C5048BF0CC05DF804EB890028BF4A
:100B400040F8042B08BF704748BF20F8022B11F073
:100B5000804F18BF00F8012B704730B5B0F10A0282
:100B60004FEA900E71F100034EEA817EB0EB0E0069
:100B700061EB91014FEA101E4EEA017E10EB0E0070
:100B800041EB11114FEA102E4EEA016E10EB0E00F0
:100B900041EB11214FEA104E4EEA014E10EB0E00D0
:100BA00041EB1141401841F100014FEAD00040EA09
:100BB00041704FEAD10110EB80054FEA810444EA0D
:100BC000907444EB01046D1944EB0404521BA341DF
:100BD0004FF0000348BF0A3200D530BD401C41F140
:100BE000000130BD2DE9F0470D4699469246044676
:100BF00000F124080168880604D5E06921F010019D
:100C0000216000E00120A84201DD471B00E0002731
:100C1000A1697A1902EB0900081AA0612078C006C0
:100C200002D42046FFF786FC002608E0D4E9012123
:100C30001AF806009047206A401C761C20624E4538
:100C4000F4DB2078C0060AD52046FFF773FC06E0E7
:100C5000D4E9012130209047206A401C2062381ED0
:100C6000A7F10107F4DC07E0D4E9012118F8050039
:100C70009047206A401C2062281EA5F10105F3DC84
:100C80002046FFF76DFC2078000602D50220BDE863
:100C9000F0870120FBE770472DE9FF4F0C461E4609
:100CA0004FF0FF378BB0D2E90001DDF860800A9089
:100CB0008A46C1F30A5505B93D46002108464FF062
:100CC0000000BAF1000F00F4400005DA00EB8000EC
:100CD0004FF4400101EA50004FEA9059B9F1010F79
:100CE00000DDB9460A9850EA4A000ED044F610508A
:100CF000A5F2FF3545432F14B8F1000F1ED0754201
:100D0000291E1EDDC9F100021CE0B8F1010F4FF0F1
:100D1000000001D0302103E0F24305E02154401CE3
:100D2000B042FBDB30460022002121540B99C1F870
:100D30000880C1E900200FB0BDE8F08FBD1B6D1C1D
:100D4000DEE74A4600DA694206A800F0EFFB06AB90
:100D500093E8070003AB83E8070050460A9900F0C8
:100D6000ACFC8DE80700A0F500501F3800900398F8
:100D7000002D0ADD42F21F014A460844002303A960
:100D80000390684600F015FF09E0A0F500504A46C0
:100D90001F38002303A90390684600F01FFF8DE869
:100DA00007000004000C03D04FF0FF30410800E0C2
:100DB0001046B8F1000F03D00022009215461EE045
:100DC000751E05D4FFF7C9FE303262556D1EF9D588
:100DD000B3460122084302D000227F1C04E02078A1
:100DE000302801D100227F1E002A099784D01DE0FF
:100DF000112D07DAFFF7B1FE303262556D1C50EA53
:100E00000102F5D1084302D00098C8B10EE00021DC
:100E1000681E05E0235C625C63542254401E491C3A
:100E20008142F7DBAB46A81B401E0990002004F866
:100E30000B000B98099AC0F80880C0E9002B7AE7EC
:100E400011264FF0000857E72DE9F04F8846044679
:100E5000D21D22F0070191B0D1E90001CDE90A01CC
:100E600001F08AFD02460B98C00F01D02D2007E04B
:100E70002068810701D52B2002E0202101EAC00073
:100E8000032A099001D0072A05DB03464146204684
:100E900000F00CFB0BE12078800601D5E06900E052
:100EA0000620B8F1650F814606D0B8F1660F18D05C
:100EB000B8F1670F70D131E00020B9F1110F009047
:100EC00001DB112301E009F101030AAA01A90CA821
:100ED000FFF7E2FEDDE90C70002609F1010583460B
:100EE00047E001204B4600904FF000470AAA01A9B5
:100EF0000CA8FFF7D1FEDDE90DB00C995D46002688
:100F000010B909F101000D18B9EB050003D4C0F1C7
:100F1000FF3609F10105A5EB09002BE0B9F1010F3E
:100F200001DA4FF001090020B9F1110F0090484695
:100F300001DD112300E003460AAA01A90CA8FFF76E
:100F4000ABFEDDE90C704D46002683462078000795
:100F50000AD4AB4500DA5D4601A8012D04DD411934
:100F600011F8011C302907D04F4502DA17F1040FA0
:100F700004DA012082460FE06D1EEEE7002F02DC4E
:100F8000ED1B3E4403E0781CA84200DD7D1CB81B2D
:100F900000F1010A4FF000472078000703D4AA456A
:100FA00001DB4FF0FF3A0021B7F1004F0DF143088C
:100FB0008DF8431024D002202B23002F01DA7F422A
:100FC0002D230A21021EA0F1010000DC5FB197FB76
:100FD000F1FC97FBF1F201FB1C7C17460CF1300C85
:100FE00008F801CDEEE7A8F101000370218809059A
:100FF00001D5452100E06521A0F1010800F8011CA0
:1010000009980FA9A1EB0807FF1D00B101204119A4
:1010100001EBEA70A1693844081A401EA0612078EB
:10102000C00602D42046FFF785FA099828B1D4E912
:1010300001219047206A401C20622078C00622D5FA
:101040002046FFF777FA1EE0002E04DBB34502DDF1
:1010500001A8805D00E03020D4E901219047206A9A
:10106000401C2062761CAAF101005FEA000A0AD146
:1010700000F018FAC0680168405CD4E9012190478B
:10108000206A401C2062281EA5F10105DCDC07E077
:10109000D4E9012118F8010B9047206A401C206216
:1010A000381EA7F10107F3DC2046FFF759FA0320A9
:1010B00011B041E62DE9F04F04460D46D21D22F055
:1010C000070089B0D0E900974846394601F054FC42
:1010D0000246F80F01D02D2307E02068810701D5D3
:1010E0002B2302E0202101EAC0038DF820300BB150
:1010F000012000E00020032A824601D0072A04DBF9
:101100002946204600F0D2F93FE12078800601D43C
:101110000D2500E0E569C7F30A560D2D49DA0021D7
:101120004FEA175B08464FF00000002F00F4400024
:1011300007DA00EB80004FF4400100EBD07001EAC9
:1011400060008115012901DD4FF0FF3100224FEAD7
:10115000850CBCF1180F06D31346ACF118004FF004
:101160008052C24003E04FF4801323FA0CF30CF1D9
:101170000C0CBCF1200F04D3ACF1200C09FA0CF0DC
:1011800001E007FA0CF000294FF0004801DD18B922
:101190000FE00ED140450CD319EB02095F4121B994
:1011A000404502D19F4329EA0209BBEB175F00D0FB
:1011B000761C2088000502D57B48784402E07A48F6
:1011C0007844193808AA302302F80A30037C0AF15F
:1011D0000101002E0AF1020A53546A4602DC4FF064
:1011E000300101E04FF031014FF001088DF800109F
:1011F00002D0A6F2FF3603E059EA470100D06B4E59
:10120000002D02DC2178090704D54FF002082E21B9
:101210008DF80110C44600210BE0C7F303433F01E2
:10122000C35C491C6D1E02F80830052908F101084D
:1012300001DA002DF1DC00210CE000EB1973491CF0
:101240001B786D1E082902F808304FEA091908F1C9
:10125000010801DA002DF0DC21688B0602D516E0CA
:10126000A8F10108E04505DD02EB080313F8013C95
:10127000302BF5D0B8F1000F09DD02EB080313F8AD
:10128000013C2E2B03D1090701D4A8F10108002D40
:1012900005DD3E2102F808106D1E08F10108407CB2
:1012A000002E02F8080008F1010804DA2D20764229
:1012B00002F8080002E02B2002F808000A214FF48F
:1012C0007A70864208F101080BDB96FBF0F33033AD
:1012D00002F8083096FBF0F308F1010800FB1366F2
:1012E00001E0642E0CDB642096FBF0F3303302F84F
:1012F000083096FBF0F308F1010800FB136601E0EB
:101300000A2E06DB96FBF1F0303002F8080008F1F7
:10131000010896FBF1F001FB1060303002F8080084
:10132000A16908F1010808EB050202EB0A00081A9E
:10133000A0612078C00602D42046FFF7FBF8216A9E
:1013400008AE01EB0A00206204E0D4E9012116F89E
:10135000010B9047BAF1010AF7D22078C00602D5F6
:101360002046FFF7E7F86E4609E016F8010B3E2825
:101370000FD0D4E901219047206A401C2062B8F1C7
:101380000108F2D22046FFF7EBF809B00320BDE8D0
:10139000F08F206A2844206203E0D4E90121302044
:1013A00090476D1EEBD3F8E77E24000002FCFFFFA0
:1013B00010B5436913B1AFF3008001E0FFF7F3F814
:1013C000012010BD127800F124010A7000224A7039
:1013D0000122EDE711684FF0FF32E9E710B54369EC
:1013E00013B1AFF3008001E0FFF77CF9012010BDDD
:1013F000128800F1240182840022C2840122EDE7D8
:1014000011684FF0FF32E9E770B516460C46054605
:1014100000F040F8036893F80101012806D0FF2C82
:101420000FD8185D68B101202C7070BDD3F807018A
:101430003246214603F2071303442846BDE87040B4
:1014400018474FF0FF3070BD754600F0EBF8AE4620
:1014500005006946534620F00700854618B020B5C0
:10146000FEF718FFBDE820404FF000064FF00007E0
:101470004FF000084FF0000B21F00701AC46ACE83C
:10148000C009ACE8C009ACE8C009ACE8C0098D46A9
:101490007047000010B500F005F8001D10BD00BF3A
:1014A0000117000000487047EC0000202DE9F041D2
:1014B0001F46044603260168072A01F4006004DB86
:1014C00008B116A505E016A503E008B115A500E0D2
:1014D00015A521F010002060A069C01EA0610FB109
:1014E000401EA0612046FFF725F84FB1D4E9012145
:1014F00038469047206A401C2062C01C206206E0EB
:10150000206AFAE7D4E9012115F8010B9047761E0D
:10151000F8D22046FFF724F8BDE8F0814E414E0096
:101520006E616E00494E4600696E66002DE9F04717
:10153000814616468AB0354878440DC88DE80D00BE
:1015400032487844801C03AC0DC884E80D0041F695
:101550009B300844372190FBF1F290FBF1F5A5F1A7
:10156000800501FB12041B3C02D56442012000E00F
:101570000020DFF898A080460027FA44AAF1BE0AAE
:101580000EE0E0070AD03246684607EB4701012328
:101590000AEB810100F022FB8DE8070064107F1C3C
:1015A000002CEED1194F7F44AE3F19E0E80715D06B
:1015B00007EB04100DF1180A90E80E008AE80E00FF
:1015C000C068F04201D1981908903246012306A95B
:1015D00003A800F003FB03AB83E807006D10641C55
:1015E000002DE3D14FF0010332466946B8F1000FF8
:1015F00003A802D000F0DDFA01E000F0EFFAC9E93B
:101600000001C9F808200AB0BDE8F0879021000069
:1016100010B50446AFF300802046BDE81040FEF749
:1016200024BE000000487047CC0000204FF0013C71
:1016300050F8042B51F8043B9A4221D1A2EB0C0341
:10164000934313EACC1317D150F8042B51F8043B01
:101650009A4215D1A2EB0C03934313EACC130BD19E
:1016600050F8042B51F8043B9A4209D1A2EB0C0329
:10167000934313EACC13DBD04FF00000704700BF58
:10168000D01A01BAB1FA81F101F0180122FA01F081
:10169000CB40C1F12001DBB2C0B2C01A2CFA01F379
:1016A000D11A914311EAC311E6D1704701491820BC
:1016B000ABBEFEE72600020070475FEA400C08BFA1
:1016C00091F0000F4FEA8C234FEAC12243EA5151B7
:1016D0004FEA1C5018BF00F5F0404FEA300018BF29
:1016E00041F000415FEA6C5C00F02980BCF1FF3FF3
:1016F00008BF40F080407047130C06BF12044FF043
:10170000100C4FF0000C130E04BF12020CF1080C69
:10171000130F04BF12010CF1040C930F04BF9200CD
:101720000CF1020CD30F04BF52000CF1010C114656
:101730004FF00002A0F11F00A0EB0C00704711F069
:10174000004F08BF704731F000413FF4D5AF0B0C9C
:1017500006BF09044FF0100C4FF0000C0B0E04BF35
:1017600009020CF1080C0B0F04BF09010CF1040C69
:101770008B0F04BF89000CF1020CCB0F04BF490092
:101780000CF1010CCCF12003A0EB0C0022FA03F3C6
:1017900002FA0CF241EA030100F10100704720F067
:1017A0007F4C80EA030023F07F47ACEB070303F58F
:1017B0007C5300F0004003F1FF032DE980494FEA1C
:1017C000154B09B44FEA144325EA0B4E24EA0348AB
:1017D0000FF2042606EB132749083E785FEA32022F
:1017E00003FB0667C7F5000707FB06F64FEA543709
:1017F0004FEAD64606F1020607FB066CCCF1005C08
:101800004FEA1C472CEA074C07FB06F40CFB06F5D5
:1018100004EB15464FEA961634BF00204FF0004007
:101820004FEAD13706FB07FC4FEA1C4C0CFB0BF7C9
:10183000D21B03FB0CF761EB07010CFB0EF7B0EBBF
:10184000074072EB17420CFB08F734BFA2EB0742CC
:10185000B2EB074261EB17414FEA0C444FEA9107A4
:1018600006FB07FC4FEA1C4C0CFB0BF7B0EBC74028
:1018700072EB573203FB0CF734BFA2EBC742B2EB5B
:10188000C74261EB57310CFB0EF7B0EBC70072EBB0
:1018900057720CFB08F734BFA2EBC702B2EBC702CA
:1018A00061EB5771039F4FEA816141EA921104EBAA
:1018B000CC044FEAD1374FEA826206FB07FC42EACA
:1018C00090124FEA80604FEA1C4C0CFB0BF7D21BC6
:1018D00003FB0CF761EB07010CFB0EF7B0EB0740C5
:1018E00072EB17420CFB08F734BFA2EB0742B2EBD6
:1018F000074261EB17414FEA8C554FEA910704EB21
:101900009C2406FB07FC4FEA1C4C0CFB0BF7B0EBCE
:10191000C74072EB573203FB0CF734BFA2EBC74250
:10192000B2EBC74261EB57310CFB0EF7B0EBC700CF
:1019300072EB57720CFB08F734BFA2EBC702B2EB95
:10194000C70261EB577115EB4C254FEA816141EA03
:1019500092114FEA82624FEAD13742EA901206FBB7
:1019600007FC44F100044FEA80604FEA1C4C0CFB7A
:101970000BF7D21B03FB0CF761EB07010CFB0EF717
:10198000B0EB074072EB17420CFB08F734BFA2EB39
:101990000742B2EB074261EB174115EB1C154FEA0A
:1019A000813141EA92414FEA823242EA90424FEA63
:1019B00080304FEA0C7644F1000448EA03434EEAD3
:1019C0000B484FF0000EB2EB080C71EB030724BF7D
:1019D000624639464EEB0E0E4FF0000B0018524196
:1019E00049414BEB0B0BB2EB080C71EB03077BF19E
:1019F000000B24BF624639464EEB0E0E4FF0000B33
:101A00000018524149414BEB0B0BB2EB080C71EB48
:101A100003077BF1000B24BF624639464EEB0E0EE6
:101A200051EA020718BF46F0010616EB0E7655F193
:101A3000000254F1000103D5BDE88901BDE800882A
:101A4000BDE88901BDE80048B619524141EB0101EA
:101A5000A3F10103704780807F7E7D7C7B7A79785B
:101A6000777676757473727171706F6E6E6D6C6C63
:101A70006B6A6A6968686766666564646363626105
:101A80006160605F5F5E5E5D5D5C5C5B5B5A5A5986
:101A900059585857575656555555545453535252F2
:101AA0005251515050504F4F4F4E4E4D4D4D4C4C4A
:101AB0004C4B4B4B4A4A4A49494948484847474793
:101AC00047464646454545444444444343434342D0
:101AD000424242414141002B9C4630D477002BD0FA
:101AE0001CB54FEA370703B44FF010004FF0100158
:101AF000BAF1000F06D0BCF1000FDCBF40F00800C7
:101B000040F008014FF000000FBCBDE810400BF1A1
:101B1000010BBBF1010F08BF5FEA170722BF12F1EB
:101B2000010211F101014FF0004143F1000300F007
:101B3000004043EA00007047F9D35708D0E746EA6F
:101B4000064613F1400F4FEA16461FDD13F1200F32
:101B5000DFBF16430A46002120335B42BED0C3F1EB
:101B6000200746EA064602FA07F74FEA164646EA13
:101B70000706C3F1200722FA03F201FA07F721FA58
:101B800003F14FF0000342EA0702A7E746EA020624
:101B900046EA06464FEA164646EA0106BCBF46EA52
:101BA0000646360C4FF000034FF000024FF00001E4
:101BB00094E72DE9804C9A46934670B491E838003A
:101BC00007C831EA400C48BF34EA430C03D5FFF79D
:101BD000E6FDFFF780FFF0BCBDE8008C2DE9804CEE
:101BE0009A46934670B491E8380007C810F0804FC9
:101BF00008BF13F0804F03D100F005F8FFF76BFF2B
:101C0000F0BCBDE8008C20F07F4780EA030023F0A1
:101C10007F4C07EB0C03A3F57C5300F00040A3F1CD
:101C2000FE0392F0000F00F0B38095F0000F00F07B
:101C300077802DE901494FEA11404FEA144621EA25
:101C4000004800FB06FC24EA064708FB06F607FBF3
:101C500008F800FB07F718EB06484CEB164C4FEA68
:101C6000124B18EB07484FEA15464CEB174022EA97
:101C70000B4E0BFB06FC25EA06470EFB06F607FBA0
:101C80000EFE0BFB07F71EEB064E4CEB164C4FF00F
:101C900000061EEB074E4CEB174B18EB0B0840F100
:101CA000000018EB0E0B58EB000840F100008F1AF3
:101CB0004FF000013CBFC943661B14BFB5EB040CD9
:101CC00000213CBFC943F61B4FEA17444EEA8E0E73
:101CD00027EA04454FEA1C4704FB07622CEA074C3D
:101CE00005FB07F70CFB05F604FB0CFC16EB07469F
:101CF00042EB174216EB0C4642EB1C421BEB06066E
:101D000058EB0202414146EA9E0601D5BDE8018931
:101D1000B619524141EB0101A3F10103BDE801896C
:101D20004FEA14454FEA114724EA054621EA074CD9
:101D300005FB07F406FB07F70CFB06F105FB0CFCA3
:101D400011EB074144EB17444FEA124711EB0C41EA
:101D500044EB1C4422EA074C05FB07F206FB07F79D
:101D60000CFB06F605FB0CFC16EB074642EB174294
:101D700016EB0C4642EB1C456A1854F1000148BFB3
:101D80007047B619524141EB0101A3F101037047BD
:101D900095F0000F37D04FEA11424FEA144721EA7D
:101DA000024624EA074C02FB07F106FB07F70CFB8F
:101DB00006F402FB0CFC14EB074441EB17414FEA1D
:101DC000154714EB0C4441EB1C4125EA074C02FB80
:101DD00007F506FB07F70CFB06F602FB0CFC16EBFF
:101DE000074645EB174516EB0C4645EB1C4212190E
:101DF00051F1000148BF7047B619524141EB010152
:101E0000A3F1010370474FEA14454FEA114724EA52
:101E1000054621EA074C05FB07F106FB07F70CFB1B
:101E200006F24FF0000605FB0CFC12EB074241EBFB
:101E3000174112EB0C4251EB1C4148BF70479218FE
:101E400041EB0101A3F10103704700BFFEE77047BA
:101E500010B5022000F014F810B1022000F00AF8CA
:101E600010BD10B5042000F00BF810B1042000F0F4
:101E700001F810BD014908607047000014040140DA
:101E8000014600200022074B1B6803EA0102054BB4
:101E900014331B680B4013B10AB1012000E000208D
:101EA00070470000000401402DE9F0410246002582
:101EB0000026002000230024002791F803C00CF026
:101EC0000F0591F803C00CF0100CBCF1000F03D00B
:101ED00091F802C04CEA050591F800C0BCF1000F72
:101EE00031D0146800202BE04FF0010C0CFA00F305
:101EF000B1F800C00CEA03069E4220D183004FF0E7
:101F00000F0C0CFA03F7BC4305FA03FC4CEA04047B
:101F100091F803C0BCF1280F06D14FF0010C0CFA68
:101F200000FCC2F814C00AE091F803C0BCF1480FED
:101F300005D14FF0010C0CFA00FCC2F810C0401C97
:101F40000828D1D31460B1F800C0BCF1FF0F34DD14
:101F5000546800202EE000F1080C4FF0010808FA48
:101F60000CF3B1F800C00CEA03069E4221D18300B5
:101F70004FF00F0C0CFA03F7BC4305FA03FC4CEAD4
:101F8000040491F803C0BCF1280F05D100F1080C3E
:101F900008FA0CF8C2F8148091F803C0BCF1480F9D
:101FA00007D100F1080C4FF0010808FA0CF8C2F84C
:101FB0001080401C0828CED35460BDE8F08100BFDB
:101FC000FEE7000070B504464FF4A0469F237F2231
:101FD0000021084600F0D6FA10200A4908600120C6
:101FE00009490860002506E0201200F031FAE0B24D
:101FF00000F02EFA6D1CB542F6D310200149091FDE
:10200000086070BD14080140100C014070B5054611
:102010000E4614463146284600F0AAFA204600F043
:1020200067FA70BD2DE9F04704460D4616461F4677
:10203000DDF82080301B401C791B491C00FB01F996
:102040003B4632462946204600F09CFA10200F49B4
:10205000086001200E49086007E04FEA282000F0E0
:10206000F7F908F0FF0000F0F3F9B9F10000A9F169
:102070000109F2D110200549091F08609F237F2222
:102080000021084600F07EFABDE8F0871408014000
:10209000100C014008B501210D2000F06BFB12204F
:1020A000ADF8000010208DF8030003208DF8020029
:1020B00069461348FFF7F8FEA020ADF8000018208D
:1020C0008DF8030003208DF8020069460C48FFF7E5
:1020D000EBFE0320ADF8000010208DF80300032074
:1020E0008DF8020069460748FFF7DEFE102004491C
:1020F000103108600220086002491031086008BDF4
:1021000000080140000C014010B5FFF7C3FF00F0CC
:1021100071F900F05DF9112000F002FA782000F06A
:1021200067FC362000F0FCF9002000F00DFA3A20A0
:1021300000F0F6F9052000F007FAB12000F0F0F900
:10214000052000F001FA3C2000F0FEF93C2000F0F0
:10215000FBF9B22000F0E4F9052000F0F5F93C208D
:1021600000F0F2F93C2000F0EFF9B32000F0D8F9CC
:10217000052000F0E9F93C2000F0E6F93C2000F0F1
:10218000E3F9052000F0E0F93C2000F0DDF93C2007
:1021900000F0DAF9B42000F0C3F9032000F0D4F91C
:1021A000C02000F0BDF92E2000F0CEF9062000F08E
:1021B000CBF9042000F0C8F9C12000F0B1F9C0202B
:1021C00000F0C2F9C22000F0BFF9C22000F0A8F967
:1021D0000D2000F0B9F90D2000F0B6F9C32000F091
:1021E0009FF98D2000F0B0F9EE2000F0ADF9C42089
:1021F00000F096F98D2000F0A7F9EE2000F0A4F988
:10220000C52000F08DF9002000F09EF9362000F086
:1022100087F9C02000F098F9E02000F081F91B2038
:1022200000F092F9212000F08FF9102000F08CF9D5
:10223000152000F089F92B2000F086F9252000F008
:1022400083F91F2000F080F9232000F07DF922207F
:1022500000F07AF9222000F077F92B2000F074F9D1
:10226000372000F071F9002000F06EF9152000F021
:102270006BF9022000F068F93F2000F065F9E120D9
:1022800000F04EF91A2000F05FF9202000F05CF910
:102290000F2000F059F9152000F056F92A2000F01F
:1022A00053F9252000F050F91E2000F04DF92320AD
:1022B00000F04AF9232000F047F9222000F044F909
:1022C0002B2000F041F9372000F03EF9002000F00B
:1022D0003BF9152000F038F9022000F035F93F20D5
:1022E00000F032F92C2000F01BF9292000F018F939
:1022F0000020FFF767FE10BD0FB410B5A2B025A8EF
:102300000190802102A8019B249AFDF7F9FF00208B
:102310000190002404E002A9085D00F009F8641CA3
:1023200002A8005D0028F6D122B010BC5DF814FBB5
:1023300038B504460A2C08D10020204908702048EE
:102340000078401C1E4908702DE00D2C03D10020A0
:102350001A49087027E01A48007800EB0010194964
:102360000844164909784454154A00941278120713
:10237000110E124A1278D206100E134A1388134A0D
:10238000128800F029F90D480078401C0B490870AC
:1023900008460078102806DB0020087008480078FE
:1023A000401C07490870064800780A2804DB00F042
:1023B00067F809200249087038BD000001000020BC
:1023C0000000002020000020040000200200002067
:1023D00010B5022006490860642000F009FB0220C5
:1023E0000349091F0860322000F002FB10BD000005
:1023F000140C014000B585B00121080300F0BAF9C2
:102400004FF44040ADF800004FF48270ADF8020088
:102410000020ADF80400ADF80600ADF808004FF458
:102420000070ADF80A000820ADF80C000020ADF8EF
:102430000E000720ADF810006946044800F0C1F90D
:102440000121024800F0A6F905B000BD00300140AE
:1024500010B5044600BF0221084800F0A7F9002883
:10246000F9D02146054800F0AAF900BF80210348B1
:1024700000F09CF90128F9D010BD000000300140A7
:1024800038B500240BE0621C02EB0212154BD11888
:1024900004EB0412D0181122FDF76BFF641C092C09
:1024A000F1DB11210F489930FDF7A8FF0E48008895
:1024B000FFF788FD002412E004EB04100949085CD2
:1024C00060B104EB0410084400902007010E064898
:1024D000038806480288002000F025F9641C0A2CB5
:1024E000EADB38BD200000200400002002000020AC
:1024F00010B504461020084908600120074908600B
:102500002012FFF7A5FFE0B2FFF7A2FF102002495B
:10251000091F086010BD000014080140100C0140A4
:1025200010B50446102006490860012005490860DE
:102530002046FFF78DFF10200149091F086010BDDC
:1025400014080140140C014010B50446102006493F
:1025500008600120054908602046FFF779FF102038
:102560000149091F086010BD14080140100C01400A
:1025700070B504460D462B4622462946204600F0FB
:1025800001F870BD2DE9F04104460D4616461F4680
:102590002A20FFF7C5FF0020FFF7D6FFE0B2FFF7C4
:1025A000D3FF0020FFF7D0FFF0B2FFF7CDFF2B20C5
:1025B000FFF7B6FF0020FFF7C7FFE8B2FFF7C4FF41
:1025C0000020FFF7C1FFF8B2FFF7BEFF2C20FFF796
:1025D000A7FFBDE8F08100002DE9F05F06460F4639
:1025E00091469846DDF828A0AAF120004FEA001B8A
:1025F00000241CE0002517E00BEB04000E49085CEA
:1026000080212941084038B13A1991B2721990B22B
:102610004A46FFF7FBFC06E03A1991B2721990B2F4
:102620004246FFF7F3FC6D1C082DE5DB641C102C03
:10263000E0DBBDE8F09F0000D42B00082DE9FF4F40
:1026400087B081468A469346DDE914450026274631
:10265000A846002184EA01006940084310D13020D7
:102660008DF8080000208DF8090002A800905A4655
:10267000514648460A9B00F056F80BB0BDE8F08F73
:1026800009E00A22002338464146FDF715FE0746B9
:102690008846701CC6B2002187EA010088EA010161
:1026A0000843EED100210846611A75EB00000BDAF1
:1026B0002D208DF80800002102AA701C1154002260
:1026C000644262EB050504E0002002A98855701EF3
:1026D000C6B218E00A22002320462946FDF7ECFD89
:1026E00030201018C2B23046A6F10101CEB202A9C4
:1026F0000A544FF00A024FF0000320462946FDF726
:10270000DBFD04460D46002184EA010069400843D0
:10271000E0D102A800905A46514648460A9B00F074
:1027200002F800BFA9E72DE9F84F04460E4690468F
:1027300099460A9F3846FDF7FDFD8246002511E0C7
:10274000802C03DB002406F11000C6B2785D4B46F6
:102750004246314600902046FFF73EFF04F1080054
:10276000C4B26D1C5545EBDBBDE8F88F00BFFEE73A
:102770007047704729B1064A92690243044B9A6137
:1027800004E0034A92698243014B9A61704700005A
:102790000010024021B1028842F04002028004E0B1
:1027A00002884FF6BF731A4002807047024600202D
:1027B00013890B400BB1012000E00020704781819C
:1027C000704710B50022028802F441520B884C88F1
:1027D00023438C882343CC8823430C8923434C898F
:1027E00023438C892343CC8923431A430280838B60
:1027F0004FF2FF74234083830B8A038210BD70471E
:1028000010B500F001F810BD0CB50020019000904B
:102810003348006840F480303149086000BF3048D8
:10282000006800F4003000900198401C019000986E
:1028300018B90198B0F5A06FF1D12948006800F4EB
:10284000003010B10120009001E0002000900098BD
:10285000012843D12348006840F010002149086056
:102860000846006820F0030008600846006840F051
:10287000020008601A4840681949486008464068E4
:1028800048600846406840F48060486008464068F8
:1028900020F47C1048600846406840F4E810486026
:1028A0000846006840F08070086000BF0C4800686F
:1028B00000F000700028F9D00948406820F00300BB
:1028C000074948600846406840F00200486000BF81
:1028D0000348406800F00C000828F9D10CBD000046
:1028E0000010024000200240042808D14FF0E021EF
:1028F000096941F004014FF0E022116107E04FF057
:10290000E021096921F004014FF0E02211617047D4
:102910007047000010B51348006840F001001149ED
:10292000086008464068104908400E49486008465B
:1029300000680E4908400B4908600846006820F40A
:10294000802008600846406820F4FE0048604FF48C
:102950001F008860FFF754FF4FF0006004490860D3
:1029600010BD0000001002400000FFF8FFFFF6FE5F
:1029700008ED00E000BFFEE7490050EAC12018BFA3
:1029800004204A0D18BF40F0010040F2FF72B2EB84
:10299000515F08BF40F00200012808BF05207047C2
:1029A00030380A2801D2012070470020704700000B
:1029B00010B50420FFF798FF094800680949B0FBEB
:1029C000F1F0094908700846007800EB4001C1EBBE
:1029D000C0104FF6FF7101EAC0000449088010BD25
:1029E0000C00002000127A000600002008000020E1
:1029F0000146114A12884A434FF0E0235A610022EF
:102A00009A611A46126942F001021A6100BF4FF042
:102A1000E022106900F001021AB100F48032002AAD
:102A2000F5D04FF0E022126922F001024FF0E023CE
:102A30001A6100229A617047080000201CB5FFF758
:102A4000B7FFFFF761FB0020FFF7BCFA34A00023BB
:102A50004FF6FF72194600901846FFF764FE34A047
:102A600000234FF6E072102100901846FFF75BFE3E
:102A700032A000234FF4FC62202100901846FFF79B
:102A800052FE31A0002340F2FF7230210090184620
:102A9000FFF749FE43F239010020034640F2FF727E
:102AA000CDE9001030212820FFF7C8FD4FF4784011
:102AB00064232822462100900020FFF7B3FA4FF448
:102AC000FC6064235422462100902C20FFF7AAFAD0
:102AD0001F2064237F22462100905820FFF7A2FA8E
:102AE0004FF4FA60FFF784FF0020FFF76BFA18A09D
:102AF000FFF702FC2A211AA0FFF7FEFB002407E0E3
:102B0000214619A0FFF7F8FBC820FFF771FF641CEE
:102B10000F2CF5DB03E04FF4FA70FFF769FFFAE7DB
:102B200048656C6C6F2053544D3332210000000017
:102B30004C43442054657374204F4B00535049312B
:102B40002031384D487A00004E756D3A0000000083
:102B50005072696E746620546573740A0000000038
:102B600056616C3D25640A004C696E652025640A37
:102B70000000000010B500290AD00878002807D00E
:102B800005487844FEF752FD002801D0002010BD12
:102B90000248784410BD0000820B00007A0B000050
:102BA00010B500290AD00878002807D005487844D5
:102BB000FEF73CFD002801D0002010BD02487844FB
:102BC00010BD0000720B00006A0B0000FEF73CB95C
:102BD000FEF770BA000000000000000000000000D6
:102BE0000000000000101010101010101010000055
:102BF0001010000000006C6C242400000000010094
:102C0000000000000024242424FE48484848FC908A
:102C10009090900000103C549290503814121292F0
:102C2000547810000000225C94A8481010242A5206
:102C300054880000000030484850206E54948C881E
:102C40008A74000000003030101000000000000006
:102C50000000000000040810102020202020201078
:102C600010080400008040202010101010101020C8
:102C7000204080000000000010543810385410002C
:102C80000000000000000010101010FE10101010C6
:102C90000000000000000000000000000000000034
:102CA0001010200000000000000000FE00000000E6
:102CB0000000000000000000000000000000000014
:102CC00010100000000004040808101020204040EC
:102CD0008080000000003844828282828282828268
:102CE0004438000000001070101010101010101068
:102CF000107C0000000038448282040810204082CA
:102D000084FC00000000384482020438040202827D
:102D1000443800000000040C141424244444FE042D
:102D2000040E00000000FC808080B8C48202028291
:102D30008478000000003C428280B8C48282828293
:102D40004438000000007E42820404080808101085
:102D5000101000000000384482824438448282828D
:102D6000443800000000384482828282463A02825F
:102D70004438000000000000101000000000101097
:102D80000000000000000000101000000000001013
:102D90001020000000000000061860806018060087
:102DA00000000000000000000000FE0000FE000027
:102DB0000000000000000000C0300C020C30C00019
:102DC0000000000000384482820204081010100045
:102DD0001010000000003844829AAAAAAAAAAA9653
:102DE00080423C00000010101028282844447C44F5
:102DF00044EE00000000FC424242427C4242424219
:102E000042FC000000003C448280808080808282FE
:102E1000443800000000F8444242424242424242EA
:102E200044F800000000FC444240447C44404042DE
:102E300044FC00000000FC444240447C44404040CC
:102E400040F000000000344C828080808E848484B6
:102E50004C3400000000EE444444447C4444444468
:102E600044EE000000007C10101010101010101024
:102E7000107C000000003E080808080808080888C0
:102E8000887000000000EE444848506050484844B4
:102E900044EE00000000E0404040404040404042DE
:102EA00044FC00000000C6446C6C6C545454444410
:102EB00044EE00000000CE4464646454544C4C4C16
:102EC00044E400000000384482828282828282824E
:102ED000443800000000F8444242424478404040F8
:102EE00040E000000000384482828282828282BAFE
:102EF000443C02000000F0484444444870484444C4
:102F000044E6000000003C44828040300C02028213
:102F10004478000000007C54921010101010101023
:102F2000103800000000EE44444444444444444407
:102F3000443800000000EE44444444282828281067
:102F4000101000000000EE445454545454542828E7
:102F5000282800000000EE444428281010282844A7
:102F600044EE00000000EE44442828281010101001
:102F70001038000000007E448408081020204082A1
:102F800084FC0000001C1010101010101010101005
:102F900010101C000000EE445454FE5454542828D1
:102FA00028280000007010101010101010101010C1
:102FB00010107000000002060E1E3E7E3E1E0E0621
:102FC00002000000000000000000000000000000FF
:102FD0000000FE0000402000000000000000000093
:102FE000000000000000000000007884047C84845D
:102FF0008C7600000000C04040405864424242428B
:103000006458000000000000000038448080808088
:103010004438000000000C040404344C848484848C
:103020004C360000000000000000788484FC8080A2
:1030300084780000000018242020F8202020202080
:10304000207000000000000000003A444478807CBA
:1030500082827C000000C0404040586444444444A4
:1030600044EE00000000101000003010101010108E
:103070001038000000001010000030101010101068
:10308000109060000000C04040405C4850605048D4
:1030900044EE000000000038080808080808080886
:1030A000083E0000000000000000ACD29292929214
:1030B00092D6000000000000000058E4444444445C
:1030C00044EE00000000000000003844828282824A
:1030D00044380000000000000000D864424242640E
:1030E0005840E000000000000000364C8484844C0E
:1030F00034040E000000000000006C30202020206E
:1031000020700000000000000000788884601884AF
:1031100044780000000000202020F82020202020FB
:1031200024180000000000000000C6424242424253
:10313000463A0000000000000000EE444428282821
:1031400010100000000000000000EE444454542819
:1031500028280000000000000000EE44281010287D
:1031600044EE0000000000000000EE444428281057
:1031700010A0C0000000000000007E448810204223
:1031800084FC0000000C10101010106010101010C3
:1031900010100C0000101010101010101010101053
:1031A0001010100000C020202020201820202020F7
:1031B0002020C00000000000000000728C00000011
:1031C000000000000004400E50784808480840FF06
:1031D000FE084008440A440C481830682208520887
:1031E0008A2B0610021FF0101010101FF010101084
:1031F000101FF00000FFFE0100110011F81100295E
:1032000000450083FE0000000000000000000000F8
:10321000000000FFFE0000000000000000000000B1
:10322000000000000000001FF0101010101010101F
:1032300010101010101FF0101000000820081010BF
:103240000820044004008844882BFE108828884801
:103250000089FC09241924292449FC89240924090A
:103260002451FC210410401040104013F818485419
:10327000485048504897FE104010A010A01110115F
:103280001012081406002000F01F00100011002189
:103290000021003FFC010009200910110821044110
:1032A00004050002001040104020407E7C42844211
:1032B00084430442447E2442244204420442047E65
:1032C000044228001000001FF010101FF010101F03
:1032D000F0010011001FF8210041001FF001000162
:1032E000007FFC0000008844882BFE108828884856
:1032F0000089FC09241924292449FC89240924096A
:103300002451FC2104082008200820082008200857
:1033100020082008200850145012501288208821BC
:1033200004420484020100010001007FFC0100113D
:103330001009100920FFFE0380054009203118C143
:103340000601000100000021F0111011108110424F
:1033500010540E180013F82208E108211020A020B4
:103360004021B00E0E100013FE1020104055FC59E5
:10337000045104912411241124112429442450447B
:10338000884104820410401020102017FE180054B9
:103390000050905254922412241254129412041287
:1033A0000413FC100408800880088011FE1102320A
:1033B00004342050209128112412241222142210A7
:1033C0002010A0104010401040104013F81848542E
:1033D000485048504897FE104010A010A0111011FE
:1033E0001012081406002000F01F00100011002128
:1033F0000021003FFC0100092009101108210441AF
:10340000040500020020401050FE48004800407DA6
:10341000FE4450445044507C50109054909292116D
:1034200012510E2200100010FC10041008FC102491
:1034300020242025FE242048202820102028204455
:103440002084A0004008800880088011FE1102320C
:103450000434205020912811241224122214221006
:103460002010A010401FF0101010101FF0101010AE
:10347000101FF00000FFFE0100110011F8110029DB
:1034800000450083FE0100210811080910092001F0
:1034900000FFFE044004400440044008420842107B
:1034A00042203EC00008800880088011FE110232D0
:1034B00004342050209128112412241222142210A6
:1034C0002010A010401FF0101010101FF01010104E
:1034D000101FF00000FFFE0100110011F81100297B
:1034E00000450083FE0100010001003FF821082192
:1034F0000821083FF82108210821083FF8210A0186
:1035000002010200FE08800880088011FE110232CC
:103510000434205020912811241224122214221045
:103520002010A010401FF0101010101FF0101010ED
:10353000101FF00000FFFE0100110011F81100291A
:1035400000450083FE00A00090788049FE49104BA2
:10355000104DFC4910491049FC7910491001100127
:10356000FE0100010000000000000000000000005B
:10357000000000FFFE00000000000000000000004E
:1035800000000000001040104020407E7C42844239
:1035900084430442447E2442244204420442047E82
:1035A0000442280010084008200BFE1000100031D3
:1035B000FC3000500091FC1000100011FC110411AF
:1035C0000411FC1104080008800B3C122412243260
:1035D00024322452249224122412B41328122010CC
:1035E000201020102000000000000000000000005B
:1035F0003031323334353637383941424344454629
:103600004030580030313233343536373839616222
:103610006364656640307800040000080000000024
:103620000000000200010000103031323334353622
:1036300037383961626364656678700030313233DF
:1036400034353637383941424344454658500000F6
:1036500002400000000000A0000000000540000043
:10366000000000C8000000000C4000000000409C6A
:1036700000000000194000000020BCBE0000000057
:1036800034400000BFC91B8E00000004B54000009C
:10369000504BCFD06607E2CF010000006C41000024
:1036A0003E8251AADFEEA73401000000D94200009B
:1036B000DCB5A0E23A301F97FFFFFFFFB4450000E2
:1036C000FD25A0C8E9A3C14FFFFFFFFFFF3F00009A
:1036D0000000008000000000FF3F000000000080AC
:1036E000000000003038000800000020200000002A
:1036F0006C0100085038000820000020100700006E
:10370000880100081C00000043000000F8FFFFFFD4
:103710000C0000000E0000000F0000002E00000052
:103720001001000043000000F8FFFFFF0040404090
:103730004040404040404141414141404040404084
:103740004040404040404040404040404005020230
:1037500002020202020202020202020202202020EF
:10376000202020202020200202020202020290904B
:103770009090909010101010101010101010101049
:10378000101010101010101002020202020288889D
:1037900088888888080808080808080808080808A9
:1037A0000808080808080808020202024000000091
:1037B0000000000000000000000000000000000009
:1037C00000000000000000000000000000000000F9
:1037D00000000000000000000000000000000000E9
:1037E00000000000000000000000000000000000D9
:1037F00000000000000000000000000000000000C9
:1038000000000000000000000000000000000000B8
:1038100000000000000000000000000000000000A8
:103820000000000000000000000000000000000098
:103830000000FFFF1F0000000000000000A24A047B
:103840000000000000000000010203040607080950
:0400000508000131BD
:00000001FF
