:020000040800F2
:1000000080060020CD0100082D050008D704000857
:10001000290500081D030008450F00080000000026
:10002000000000000000000000000000C5090008FA
:1000300021030008000000007B080008D90A00081E
:10004000E7010008E7010008E7010008E7010008F0
:10005000E7010008E7010008E7010008E7010008E0
:10006000E7010008E7010008E7010008E7010008D0
:10007000E7010008E7010008E7010008E7010008C0
:10008000E7010008E7010008E7010008E7010008B0
:10009000E7010008E7010008E7010008E7010008A0
:1000A000E7010008E7010008E7010008E701000890
:1000B0003D0B0008E7010008E7010008E701000820
:1000C000E7010008E7010008E7010008E701000870
:1000D000E7010008E7010008E7010008E701000860
:1000E000E7010008E7010008E7010008E701000850
:1000F000E7010008E7010008E7010008E701000840
:10010000E7010008E7010008E7010008E70100082F
:10011000E7010008E7010008E7010008E70100081F
:10012000E7010008E7010008E7010008E70100080F
:1001300000F002F800F03AF80AA090E8000C8244BF
:100140008344AAF10107DA4501D100F02FF8AFF29C
:10015000090EBAE80F0013F0010F18BFFB1A43F0A5
:10016000010318473418000054180000103A24BF47
:1001700078C878C1FAD8520724BF30C830C144BF0C
:1001800004680C607047000000230024002500264E
:10019000103A28BF78C1FBD8520728BF30C148BFEA
:1001A0000B6070471FB51FBD10B510BD00F031F8D2
:1001B0001146FFF7F7FF00F00FFF00F04FF803B410
:1001C000FFF7F2FF03BC00F057F800000948804732
:1001D00009480047FEE7FEE7FEE7FEE7FEE7FEE729
:1001E000FEE7FEE7FEE7FEE704480549054A064B41
:1001F00070470000DD0A000831010008800000207F
:100200008006002080020020800200207047704796
:100210007047754600F02CF8AE4605006946534617
:1002200020F00700854618B020B5FFF7DDFFBDE8D8
:1002300020404FF000064FF000074FF000084FF04D
:10024000000B21F00701AC46ACE8C009ACE8C009DE
:10025000ACE8C009ACE8C0098D46704710B504464B
:10026000AFF300802046BDE81040FFF7A8BF0000B4
:10027000004870471C00002001491820ABBEFEE773
:100280002600020070471FB50121084600F0F6FA6B
:1002900040F2E730ADF808004720ADF80400002038
:1002A000ADF80A00ADF8060001A94FF0804000F05B
:1002B000F7FD01221146900700F08DFC1C208DF8FF
:1002C00000000F208DF8010000208DF802000120B1
:1002D0008DF80300684600F02BF90121880700F033
:1002E0005DFC1FBD08B50121082000F0D7FA4FF4CE
:1002F0008050ADF8000010208DF8030003208DF829
:1003000002006946044800F00CF84FF4805102489E
:1003100000F0DAF808BD0000000C014000BFFEE765
:1003200070472DE9F04102460025002600200023F9
:100330000024002791F803C00CF00F0591F803C0CA
:100340000CF0100CBCF1000F03D091F802C04CEA85
:10035000050591F800C0BCF1000F31D014680020F1
:100360002BE04FF0010C0CFA00F3B1F800C00CEADE
:1003700003069E4220D183004FF00F0C0CFA03F7C6
:10038000BC4305FA03FC4CEA040491F803C0BCF139
:10039000280F06D14FF0010C0CFA00FCC2F814C073
:1003A0000AE091F803C0BCF1480F05D14FF0010CF1
:1003B0000CFA00FCC2F810C0401C0828D1D314600D
:1003C000B1F800C0BCF1FF0F34DD546800202EE00E
:1003D00000F1080C4FF0010808FA0CF3B1F800C066
:1003E0000CEA03069E4221D183004FF00F0C0CFA59
:1003F00003F7BC4305FA03FC4CEA040491F803C07C
:10040000BCF1280F05D100F1080C08FA0CF8C2F86D
:10041000148091F803C0BCF1480F07D100F1080C1B
:100420004FF0010808FA0CF8C2F81080401C0828A8
:10043000CED35460BDE8F081F0B50A460023002415
:100440000021002500F00046B6F1004F02D11D4EFC
:10045000F16901E01B4E7168C0F3034583B200F4FB
:100460004016B6F5401F08D121F07061154E766830
:1004700026F07066134F7E6012E000F48016B6F529
:10048000801F06D1032606FA05F4A14341F07061EE
:1004900006E0460D360103FA06F6B14341F07061FD
:1004A00022B1460D360103FA06F6314300F000464C
:1004B000B6F1004F02D1034EF16101E0014E7160CF
:1004C000F0BD000000000140416170470AB10161C8
:1004D00000E04161704700BFFEE7000008B5012160
:1004E000152000F0DBF901210C48FFF7A5FF48209B
:1004F0008DF8030003208DF802004FF46040ADF842
:10050000000069460648FFF70CFF4FF40040ADF8C5
:10051000000069460348FFF704FF08BD00023000F1
:10052000001001400008014000BFFEE770470000D6
:1005300070B5002100230F22C47804B3154C246841
:1005400004F4E064C4F5E064210AC1F10403CA4084
:10055000447804FA03F184781440214309010E4CD5
:100560000678A155047804F01F050124AC400578F5
:100570006D11AD0005F1E025C5F8004109E00478F2
:1005800004F01F050124AC40044D0678761145F8AF
:10059000264070BD0CED00E000E400E080E100E0EA
:1005A00002490143024A1160704700000000FA0549
:1005B0000CED00E010B5002406E005A22146002065
:1005C00000F020F9601CC4B2082CF6DB10BD00005E
:1005D000202020202020202020202020202020201B
:1005E0000000000008B50121082000F057F94FF481
:1005F0004060ADF8000014208DF8030003208DF852
:10060000020069460648FFF78CFE01229102044869
:10061000FFF75CFF0122D1020148FFF757FF08BD39
:10062000000C014070B50546002415E080202041F3
:1006300000EA05024FF400610E48FFF747FF012270
:1006400091020C48FFF742FF00224FF480610948F5
:10065000FFF73CFF601CC4B2082CE7DB01229102CB
:100660000448FFF733FF00224FF480610148FFF791
:100670002DFF70BD000C014010B50122D1020A48C7
:10068000FFF724FF012291020748FFF71FFF002216
:100690004FF400610448FFF719FF00224FF4806116
:1006A0000148FFF713FF10BD000C014010B50022F8
:1006B0004FF400610648FFF709FF01229102044848
:1006C000FFF704FF0122D1020148FFF7FFFE10BD32
:1006D000000C014010B5FFF785FFAE2000F0ADF82B
:1006E000D52000F0AAF8802000F0A7F8A82000F09C
:1006F000A4F83F2000F0A1F8D32000F09EF80020DD
:1007000000F09BF8402000F098F8A12000F095F848
:10071000C82000F092F8DA2000F08FF8122000F0E4
:100720008CF8812000F089F8CF2000F086F8D920DD
:1007300000F083F8F12000F080F8DB2000F07DF875
:10074000302000F07AF8A42000F077F8A62000F01E
:1007500074F88D2000F071F8142000F06EF8AF20CE
:1007600000F06BF8FFF726FF0021084600F001F8C3
:1007700010BD70B504460D4605F1B001C8B200F0D9
:100780005CF804F00F0000F058F8102141EA141052
:1007900000F053F870BD00002DE9F04106460C460C
:1007A0001746A7F1200000F0FF087F2E02DD00268B
:1007B000A01CC4B221463046FFF7DBFF002507E04E
:1007C0000F4901EB0811485D00F047F8681CC5B2FD
:1007D000082DF5DB601CC1B23046FFF7CAFF0025CB
:1007E00009E0074901EB081205F10801505C00F02F
:1007F00034F8681CC5B2082DF3DBBDE8F0810000B9
:10080000281000082DE9F04104460F461546002641
:100810000EE0AA5D39462046FFF7BEFF04F108004E
:10082000C4B2782C02DD0024B81CC7B2701CC6B25A
:10083000A85D0028EDD1BDE8F08110B50446FFF7B2
:100840001BFF7820FFF7EEFE0020FFF7EBFE2046AF
:10085000FFF7E8FEFFF72AFF10BD10B50446FFF7CB
:100860000BFF7820FFF7DEFE4020FFF7DBFE20467F
:10087000FFF7D8FEFFF71AFF10BD704729B1064AEF
:10088000D2690243044BDA6104E0034AD26982432D
:10089000014BDA61704700000010024029B1064A9E
:1008A00092690243044B9A6104E0034A92698243CD
:1008B000014B9A61704700000010024000B589B0FA
:1008C00001210C20FFF7EAFF01210220FFF7D6FFEC
:1008D00018208DF8230003208DF82200C020ADF8E9
:1008E000200008A93448FFF71CFD0320ADF82000C4
:1008F00008A93248FFF715FD44F61F60ADF818004F
:100900004720ADF814000020ADF81A00ADF816002D
:1009100005A92B4800F0C4FA6020ADF804000020BF
:10092000ADF80C000120ADF8060040F2DC50ADF847
:100930000A0001A9224800F057F90821204800F0D8
:100940009FF940F26C50ADF80A0001A91C4800F074
:10095000A1F908211A4800F0EFF940F2DC50ADF897
:100960000A000020ADF8060001A9154800F0F2F9D0
:100970000821134800F03EFA01A9114800F044FA9A
:1009800008210F4800F07EFA01210D4800F0E8F838
:1009900001210B4800F002F94FF4967000F0F6FACE
:1009A00001220821064800F0E7F801220C21044842
:1009B00000F0E2F809B000BD00080140000C014061
:1009C00000040040704710B500F002F810BD0000B0
:1009D0000CB50020019000903348006840F480304E
:1009E0003149086000BF3048006800F400300090D2
:1009F0000198401C0190009818B90198B0F5A06FBB
:100A0000F1D12948006800F4003010B101200090B5
:100A100001E0002000900098012843D1234800689D
:100A200040F01000214908600846006820F00300EB
:100A300008600846006840F0020008601A484068F4
:100A4000194948600846406848600846406840F4D4
:100A5000806048600846406820F47C104860084682
:100A6000406840F4E81048600846006840F0807034
:100A7000086000BF0C48006800F000700028F9D042
:100A80000948406820F0030007494860084640686C
:100A900040F00200486000BF0348406800F00C00CE
:100AA0000828F9D10CBD00000010024000200240CF
:100AB000042808D14FF0E021096941F004014FF00A
:100AC000E022116107E04FF0E021096921F0040103
:100AD0004FF0E022116170477047000010B51348D5
:100AE000006840F00100114908600846406810495C
:100AF00008400E494860084600680E4908400B4906
:100B000008600846006820F48020086008464068B5
:100B100020F4FE0048604FF41F008860FFF753FF89
:100B20004FF000600449086010BD00000010024052
:100B30000000FFF8FFFFF6FE08ED00E010B5012110
:100B4000880700F037F840B104480068401C0349AA
:100B500008600121880700F01EF810BD0400002085
:100B600021B1028842F08002028004E002884FF640
:100B70007F731A400280704730B5002301248C40F7
:100B8000A3B2048C9C430484048C02FA01F5ADB238
:100B90002C43048430BDCA430282704721B10288CD
:100BA00042F00102028004E002884FF6FE731A4010
:100BB0000280704730B50246002000230024158AC9
:100BC00005EA0103958905EA010413B10CB101207E
:100BD00000E0002030BD1AB183890B43838102E01D
:100BE00083898B438381704770B5002400220023E2
:100BF000058C4FF6FE7635400584028C8388048B85
:100C00004FF68F752C40B51E2C400D882C43751E59
:100C10002A400D892A434D882A43144DA8420BD0FF
:100C2000134DA84208D0134DA84205D0124DA8423A
:100C300002D0124DA84213D14FF6F7752A404D89C4
:100C40002A434FF6FB752A408D882A434FF6FF65ED
:100C50002B404FF6FF552B408D892B43CD892B43DD
:100C600083800483CD888586028470BD002C01407A
:100C70000034014000400140004401400048014070
:100C80000A460021018B4FF6F77319401143018387
:100C90007047000070B5002400220023058C4FF639
:100CA000EF7635400584028C8388048B48F6FF7507
:100CB0002C404FF6FF452C400D884FF6FF7606EA94
:100CC00005252C434FF6DF752A400D8906EA0515E8
:100CD0002A434D8806EA05152A43154DA84202D03D
:100CE000144DA8421DD14FF67F752A404D894FF60D
:100CF000FF7606EA05152A434FF6BF752A408D8810
:100D000006EA05152A434FF6FF352B404FF2FF75D3
:100D10002B408D8906EA85052B43CD8906EA85059A
:100D20002B4383800483CD880587028470BD000037
:100D3000002C0140003401400A460021018B4FF293
:100D4000FF7319404FF6FF7303EA0223194301832F
:100D50007047000070B5002400220023058C4FF678
:100D6000FF6635400584028C8388848B4FF68F752F
:100D70002C404FF6FC752C400D882C434FF6FF5548
:100D80002A400D894FF6FF7606EA05252A434D884D
:100D900006EA05252A43154DA84202D0144DA84263
:100DA0001DD14FF2FF752A404D894FF6FF7606EAB6
:100DB00005252A434FF6FF352A408D8806EA05258A
:100DC0002A434EF6FF752B404DF6FF752B408D895B
:100DD00006EA05152B43CD8906EA05152B438380CA
:100DE0008483CD888587028470BD0000002C01407B
:100DF000003401400A460021818B4FF6F7731940F9
:100E0000114381837047000070B500220023002445
:100E1000058C4EF6FF7635400584038C8488828BE2
:100E200048F6FF752A404FF6FF452A400D884FF6D9
:100E3000FF7606EA05252A434DF6FF752B400D89FE
:100E400006EA05352B434D8806EA05352B430B4D45
:100E5000A84202D00A4DA84208D14BF6FF752C409B
:100E60008D894FF6FF7606EA85152C4384808283B0
:100E7000CD88A0F84050038470BD0000002C0140D4
:100E8000003401400A460021818B4FF2FF73194064
:100E90004FF6FF7303EA0223194381837047000072
:100EA000002202881D4B98420ED01D4B98420BD059
:100EB000B0F1804F08D01B4B984205D01A4B984296
:100EC00002D01A4B984204D14FF68F731A404B88C8
:100ED0001A43174B984207D0164B984204D04FF64E
:100EE000FF431A40CB881A4302808B8883850B8886
:100EF00003850A4B98420BD0094B984208D00E4B01
:100F0000984205D00D4B984202D00D4B984201D12A
:100F10000B7A03860123838270470000002C014076
:100F2000003401400004004000080040000C004074
:100F30000010004000140040004001400044014007
:100F40000048014000BFFEE710B56FF00400FFF756
:100F5000AFFD0A4800680A49B0FBF1F00949087082
:100F60000846007800EB4001C1EBC0104FF6FF715E
:100F700001EAC0000449088010BD000008000020FC
:100F800000127A0000000020020000200146114AF1
:100F900012884A434FF0E0235A6100229A611A46B0
:100FA000126942F001021A6100BF4FF0E02210699D
:100FB00000F001021AB100F48032002AF5D04FF09F
:100FC000E022126922F001024FF0E0231A610022B0
:100FD0009A617047020000204FF44070FFF7E0FA7A
:100FE000FFF7B2FFFFF74FF9FFF778FAFFF77AF94B
:100FF000FFF770FBFFF762FCFFF7DCFA06A20421A3
:101000000846FFF7FFFB40F2DC50FFF7BFFFFFF79A
:10101000D1FA00BFFEE70000496E697469616C692E
:101020007A696E672E2E2E0000000000000000007E
:101030000000000000000000000000F800000000B8
:10104000000000333000000000100C06100C0600F9
:10105000000000000000000040C07840C078400060
:10106000043F04043F040400007088FC08300000C2
:10107000001820FF211E0000F008F000E01800001A
:1010800000211C031E211E0000F0088870000000D3
:101090001E2123241927211010160E000000000025
:1010A0000000000000000000000000E01804020042
:1010B000000000071820400000020418E0000000B3
:1010C0000040201807000000404080F080404000B1
:1010D0000202010F01020200000000F00000000007
:1010E0000101011F010101000000000000000000DB
:1010F00080B0700000000000000000000000000050
:1011000000010101010101010000000000000000D8
:101110000030300000000000000000008060180473
:10112000006018060100000000E010080810E00050
:10113000000F102020100F00001010F80000000019
:101140000020203F20200000007008080888700060
:1011500000302824222130000030088888483000E0
:101160000018202020110E000000C02010F8000000
:1011700000070424243F240000F808888808080099
:101180000019212020110E0000E0108888180000AE
:10119000000F112020110E0000380808C838080080
:1011A0000000003F00000000007088080888700000
:1011B000001C222121221C0000E010080810E00081
:1011C0000000312222110F00000000C0C00000000A
:1011D000000000303000000000000080000000002F
:1011E0000000806000000000000080402010080027
:1011F00000010204081020004040404040404000F0
:1012000004040404040404000008102040800000CA
:101210000020100804020100007048080808F000CF
:101220000000003036010000C030C828E810E0009F
:101230000718272423140B000000C038E00000002A
:10124000203C23020227382008F888888870000094
:10125000203F202020110E00C03008080808380068
:10126000071820202010080008F808080810E000DF
:10127000203F202020100F0008F88888E808100080
:10128000203F20202320180008F88888E808100054
:10129000203F200003000000C0300808083800008C
:1012A00007182020221E020008F808000008F8088D
:1012B000203F210101213F20000808F80808000014
:1012C0000020203F2020000000000808F808080047
:1012D000C08080807F00000008F888C028180800BF
:1012E000203F20012638200008F8080000000000F8
:1012F000203F20202020300008F8F800F8F80800EF
:10130000203F003F003F200008F830C00008F808E8
:10131000203F200007183F00E01008080810E000F8
:101320000F10202020100F0008F808080808F0000F
:10133000203F210101010000E01008080810E00032
:101340000F18242438504F0008F8888888887000C7
:10135000203F2000030C3020007088080808380067
:101360000038202121221C00180808F8080818005D
:101370000000203F2000000008F808000008F808DE
:10138000001F202020201F000878880000C838088F
:10139000000007380E010000F80800F80008F80007
:1013A000033C0700073C03000818688080681808A1
:1013B00020302C03032C30200838C800C83808001F
:1013C0000000203F2000000010080808C83808006E
:1013D0002038262120201800000000FE0202020012
:1013E0000000007F40404000000C30C000000000C2
:1013F000000000010638C00000020202FE000000EA
:10140000004040407F00000000000402020204008F
:1014100000000000000000000000000000000000CC
:1014200080808080808080800002020400000000B4
:1014300000000000000000000000808080800000AC
:101440000019242222223F2008F80080800000009A
:10145000003F112020110E0000000080808000005D
:10146000000E112020201100000000808088F8006C
:10147000000E112020103F2000008080808000009E
:10148000001F222222221300008080F08888881802
:101490000020203F2020000000008080808080000D
:1014A000006B94949493600008F8008080800000A2
:1014B000203F210000203F2000809898000000007D
:1014C0000020203F202000000000008098980000AD
:1014D00000C08080807F000008F8000080808000CD
:1014E000203F24022D302000000808F800000000F2
:1014F0000020203F202000008080808080808000AD
:10150000203F20003F20003F80800080808000003E
:10151000203F210000203F200000808080800000CC
:10152000001F202020201F008080008080000000FD
:1015300080FFA12020110E0000000080808080002C
:10154000000E112020A0FF8080808000808080001D
:1015500020203F212000010000008080808080004A
:101560000033242424241900008080E080800000BF
:101570000000001F2020000080800000008080000C
:10158000001F202020103F2080808000008080806D
:1015900000010E30080601008080008000808080FD
:1015A0000F300C030C300F00008080008080800022
:1015B0000020312E0E31200080808000008080804D
:1015C00080818E70180601000080808080808000FD
:1015D0000021302C2221300000000000807C02021B
:1015E00000000000003F404000000000FF0000003D
:1015F00000000000FF0000000002027C80000000EC
:101600000040403F00000000000601010202040407
:1016100000000000000000001060028C0000FE923C
:1016200092929292FE000000000000000000000074
:10163000000000000000000004047E01407E4242E1
:101640007E427E42427E400000000000000000001A
:1016500000000000000000001060028C00FE92926A
:1016600092929292FE000000000000000000000034
:10167000000000000000000004047E014448507F88
:1016800040407F504844400000000000000000003F
:1016900000000000000000000000FC242424FC25C1
:1016A0002624FC2424240400000000000000000084
:1016B000000000000000000040308F80844C552561
:1016C0002525554C808080000000000000000000AF
:1016D00000000000000000004040424458C0407F2D
:1016E00040C050484640400000000000000000009C
:1016F000000000000000000080804020180700006B
:10170000003F404040407800000000000000000022
:10171000000000000000000000FE424242FE0042C5
:10172000A29E82A2C2BE00000000000000000000D5
:101730000000000000000000806F080828CF0000B3
:101740002FC8080828CF000000000000000000009B
:1017500000000000000000000000FE021222C20291
:10176000C23202FE00000000000000000000000085
:10177000000000000000000080601F0020100C032B
:101780000C30000F3040F8000000000000000000A6
:101790000000000000000000404042CC0004F4942F
:1017A00094FF9494F4040000000000000000000086
:1017B00000000000000000000040201F20484442BC
:1017C000415F41424448400000000000000000002A
:1017D000000000000000000000F808080CCA49489A
:1017E00048C8080808F800000000000000000000D9
:1017F000000000000000000000FF0000001F0808BB
:10180000081F0040807F0000000000000000000072
:1018100000000000000000000008884828180FE8B9
:101820000808080808080000000000000000000088
:101830000000000000000000002011090541817F28
:101840000101050911200000000000000000000057
:10185000000000000000000004E4242464A4243FED
:1018600024A4642424E4040000000000000000001C
:10187000000000000000000000FF00080909097FC7
:1018800009090948807F00000000000000000000F6
:1018900000000000000000000202E22222FE2222DC
:1018A00022FE2222E20202000000000000000000EE
:1018B00000000000000000000000FF4844434040DA
:1018C00040434444FF00000000000000000000000E
:1018D00000000000000000000020202020FF000089
:1018E00000FF402010080000000000000000000081
:1018F00000000000000000002060201010FF000029
:10190000003F404040407800000000000000000020
:10191000000000000000000002E22222222222FE3B
:101920002222222222E20200000000000000000029
:10193000000000000000000000FF00000912007F0E
:1019400000091240807F000000000000000000003D
:101950000000000000000000202020BEAAAAAAAAC1
:10196000AAAAAABE2020200000000000000000005B
:101970000000000000000000008080AFAAAAAAFFBB
:10198000AAAAAAAF808000000000000000000000AA
:101990000000000000000000B8190008000000204E
:1019A0001C0000006C010008D41900081C00002075
:1019B000640600008801000800000000000000002C
:1019C00000A24A040000000000000000010203041D
:0419D00006070809F5
:0400000508000131BD
:00000001FF
