:020000040800F2
:10000000E8060020DD010008690C000871090008FD
:10001000650C0008B1060008BB1C000800000000C9
:100020000000000000000000000000003114000883
:10003000E106000800000000CD1100084515000889
:10004000F7010008F7010008F7010008F7010008B0
:10005000F7010008F7010008F7010008F7010008A0
:10006000F7010008F7010008F7010008F701000890
:10007000F7010008F7010008F7010008F701000880
:10008000F7010008F7010008F7010008F701000870
:10009000F7010008F7010008F7010008F701000860
:1000A000F7010008F7010008F7010008F701000850
:1000B000A9150008F7010008F7010008F70100087A
:1000C000F7010008F7010008F7010008F701000830
:1000D000F7010008F7010008B51A0008F701000849
:1000E000F7010008F7010008F7010008F701000810
:1000F000F7010008F7010008F7010008F701000800
:10010000F7010008F7010008F7010008F7010008EF
:10011000F7010008F7010008F7010008F7010008DF
:10012000F7010008F7010008F7010008F7010008CF
:1001300000F002F800F042F80AA090E8000C8244B7
:100140008344AAF10107DA4501D100F037F8AFF294
:10015000090EBAE80F0013F0010F18BFFB1A43F0A5
:100160000103184780270000A0270000103A24BF91
:1001700078C878C1FAD8520724BF30C830C144BF0C
:1001800004680C607047000000230024002500264E
:10019000103A28BF78C1FBD8520728BF30C148BFEA
:1001A0000B607047642900F0B180732900F07D81F5
:1001B000002070471FB51FBD10B510BD00F079F9C4
:1001C0001146FFF7F7FF01F039FE00F097F903B48D
:1001D000FFF7F2FF03BC00F09FF9000009488047D9
:1001E00009480047FEE7FEE7FEE7FEE7FEE7FEE719
:1001F000FEE7FEE7FEE7FEE704480549054A064B31
:10020000704700004915000831010008E80000208F
:10021000E8060020E8020020E80200200FB41CB528
:100220000C0007AA009001D02044401E074B7B44DD
:1002300069460190069800F006F9002C03D0694643
:10024000002000F013F91CBC5DF814FB450200000F
:100250002DE9F0410E460446002020622046E16868
:10026000884730B3252805D0D4E901219047206A7A
:10027000401CF2E7E168204600278847050018D0B7
:10028000A5F14100192802D820354FF40067324605
:10029000294620462760FFF785FF40B1012804D09A
:1002A000F61D26F007060836D8E7361DD6E728469D
:1002B000DAE7206ABDE8F08170B50C460546012AF0
:1002C00005D02878800600D5EA69002302E00123E2
:1002D00005E05B1C934202D2E05C0028F9D1A869DA
:1002E000E618C01AA861286A184428622846AFF3A5
:1002F000008004E0D5E9012114F8010B9047B442D5
:10030000F8D32846AFF3008070BD00002DE9F0411E
:100310000646002410687529314616A510D0AFF3A3
:100320000080002802DA404213A507E031688A07FE
:1003300001D512A502E0490704D511A5012401E069
:10034000AFF3008000210A2206F1240709E0B0FB88
:10035000F2FCB0FBF2F302FB1C003030785418467C
:10036000491C0028F3D123462A463046BDE8F04117
:1003700000F00BB8000000002D0000002B00000072
:10038000200000007047704770472DE9F0470D4688
:1003900099469246044600F124080168880604D56F
:1003A000E06921F01001216000E00120A84201DD98
:1003B000471B00E00027A1697A1902EB0900081A1F
:1003C000A0612078C00602D42046AFF3008000264A
:1003D00008E0D4E901211AF806009047206A401C81
:1003E000761C20624E45F4DB2078C0060AD52046F4
:1003F000AFF3008006E0D4E9012130209047206A65
:10040000401C2062381EA7F10107F4DC07E0D4E9A4
:10041000012118F805009047206A401C2062281E20
:10042000A5F10105F3DC2046AFF30080207800063B
:1004300002D50220BDE8F0870120FBE701694A1CD4
:1004400002610878704700B58FB0CDE90131002115
:10045000059105497944CDE9031011466846FFF737
:10046000F7FE0FB000BD0000E5FFFFFF0A6802F8CD
:10047000010B0A607047D1E900239A4202D2531C53
:100480000B601070704710B5436913B1AFF3008073
:1004900001E0FFF711FF012010BD127800F12401E7
:1004A0000A7000224A700122EDE711684FF0FF3216
:1004B000E9E7754600F02CF8AE460500694653465C
:1004C00020F00700854618B020B5FFF795FEBDE87F
:1004D00020404FF000064FF000074FF000084FF0AB
:1004E000000B21F00701AC46ACE8C009ACE8C0093C
:1004F000ACE8C009ACE8C0098D46704710B50446A9
:10050000AFF300802046BDE81040FFF760BE00005A
:10051000004870478800002001491820ABBEFEE764
:10052000260002007047000000B587B001210520B9
:1005300000F05EFE0121480400F04AFE0420ADF800
:10054000180018208DF81B0003208DF81A0006A94A
:100550001D4800F028F90820ADF8180004208DF897
:100560001B0006A9184800F01EF94FF4165002901F
:100570000020ADF80C00ADF80E00ADF81000ADF89D
:1005800014000C20ADF8120002A9104801F020FB65
:10059000012240F225510D4801F0F4FA26208DF891
:1005A000040001208DF8050000208DF806000120D0
:1005B0008DF8070001A800F059FB0121034801F064
:1005C0009EFA07B000BD0000000801400044004052
:1005D0001FB50121084600F0FBFD40F2E730ADF801
:1005E00008004720ADF804000020ADF80A00ADF87F
:1005F000060001A94FF0804001F082F90122114666
:10060000900701F00FF81C208DF800000F208DF8E6
:10061000010000208DF8020001208DF803006846DB
:1006200000F024FB0121880700F0DFFF1FBD000060
:1006300010B5012418E0601E00EB40000C4911F8D1
:10064000200078B1601E00EB400001EB80004068A4
:1006500008490968081A40F6B831884202D3204692
:1006600000F028F8601CC4B2042CE4DD10BD0000CA
:10067000580000202000002008B50121082000F0CB
:10068000B7FD4FF48050ADF8000010208DF8030046
:1006900003208DF802006946044800F084F84FF406
:1006A0008051024800F05BF908BD0000000C0140D9
:1006B00000BFFEE710B50446012C01DB042C00DD71
:1006C00010BD0021601E00EB4000044A02F820101B
:1006D000204600F007FE00BFF2E7000058000020AF
:1006E0007047000000B585B0012144F2040000F01D
:1006F0007FFD4FF40070ADF8100018208DF8130046
:1007000003208DF8120004A9134800F04CF84FF4B0
:100710008060ADF8100004208DF8130004A90E4885
:1007200000F041F84FF4E13000900020ADF80400F3
:10073000ADF80600ADF80800ADF80C000C20ADF8DF
:100740000A006946054801F043FA0121034801F017
:10075000D6F905B000BD0000000801400038014096
:1007600010B5044600BF8021084801F0D4F90028E4
:10077000F9D02146054801F09CFA00BF402103480A
:1007800001F0C9F90028F9D010BD0000003801407F
:1007900010B5044603E014F8010BFFF7E1FF2078E1
:1007A0000028F8D110BD2DE9F041024600250026B1
:1007B000002000230024002791F803C00CF00F054F
:1007C00091F803C00CF0100CBCF1000F03D091F8AD
:1007D00002C04CEA050591F800C0BCF1000F31D011
:1007E000146800202BE04FF0010C0CFA00F3B1F874
:1007F00000C00CEA03069E4220D183004FF00F0C8C
:100800000CFA03F7BC4305FA03FC4CEA040491F824
:1008100003C0BCF1280F06D14FF0010C0CFA00FC0C
:10082000C2F814C00AE091F803C0BCF1480F05D12A
:100830004FF0010C0CFA00FCC2F810C0401C082854
:10084000D1D31460B1F800C0BCF1FF0F34DD54689F
:1008500000202EE000F1080C4FF0010808FA0CF31C
:10086000B1F800C00CEA03069E4221D183004FF08C
:100870000F0C0CFA03F7BC4305FA03FC4CEA040422
:1008800091F803C0BCF1280F05D100F1080C08FA5B
:100890000CF8C2F8148091F803C0BCF1480F07D1DE
:1008A00000F1080C4FF0010808FA0CF8C2F81080AB
:1008B000401C0828CED35460BDE8F081F0B50A464C
:1008C000002300240021002500F00046B6F1004F6F
:1008D00002D11D4EF16901E01B4E7168C0F3034562
:1008E00083B200F44016B6F5401F08D121F07061C4
:1008F000154E766826F07066134F7E6012E000F4A5
:100900008016B6F5801F06D1032606FA05F4A1432A
:1009100041F0706106E0460D360103FA06F6B14378
:1009200041F0706122B1460D360103FA06F63143FB
:1009300000F00046B6F1004F02D1034EF16101E034
:10094000014E7160F0BD0000000001400246002031
:1009500093680B400BB1012000E00020704741611B
:100960007047016170470AB1016100E04161704761
:1009700000BFFEE710B5012419E0204600F01EF884
:1009800098B1601E00EB40000A4911F8200018B928
:10099000204600F077FB08E007480168601E00EB86
:1009A0004000044A02EB80004160601CC4B2042C89
:1009B000E3DD10BD580000202000002010B50446E3
:1009C000012C06D0022C0DD0032C14D0042C26D1DF
:1009D0001BE010211348FFF7B9FF08B9012010BD33
:1009E0000020FCE720210F48FFF7B0FF08B90120E5
:1009F000F5E70020F3E74FF400610A48FFF7A6FF90
:100A000008B90120EBE70020E9E74FF480510548E1
:100A1000FFF79CFF08B90120E1E70020DFE7002095
:100A2000DDE700000008014008B50121042000F0C6
:100A3000DFFB48208DF8030003208DF8020041F60B
:100A40003000ADF8000069460148FFF7ACFE08BD74
:100A50000008014008B50121152000F0C9FB012163
:100A60000C48FFF72BFF48208DF8030003208DF87A
:100A700002004FF46040ADF8000069460648FFF7F9
:100A800092FE4FF40040ADF8000069460348FFF7BE
:100A90008AFE08BD0002300000100140000801403D
:100AA00038B500254FF400512148FFF74FFF8DF86E
:100AB00000004FF480411E48FFF748FF8DF8010009
:100AC0004FF400411A48FFF741FF8DF802004FF440
:100AD00000411848FFF73AFF8DF80300002423E097
:100AE0001DF8040048B91448005D012805D11348D9
:100AF0000068134941F8240010E01DF804000128A3
:100B00000CD10D48005D48B90D4850F824000B4940
:100B10000968081A142801D3601CC5B21DF8040026
:100B200005490855601CC4B2042CD9DB284638BDE1
:100B300000100140000801400100002020000020BA
:100B40004800002010B5FFF7ABFF0446012C0FDB77
:100B5000042C0DDC601E00EB4000064911F820005B
:100B600018B12046FFF7A6FD02E0204600F08AFA01
:100B700010BD00005800002008B501210D2000F034
:100B800037FB01211048FFF799FE10208DF8030074
:100B900003208DF80200ADF8000069460B48FFF70E
:100BA00002FE03210948FFF7DAFE4EF23800ADF8E5
:100BB000000069460648FFF7F6FD4EF2380104488A
:100BC000FFF7CDFE08BD0000000230000008014024
:100BD000000C014070B504460D46012C01DB082CC9
:100BE00000DD70BD4DB1621E094B33F81210094B88
:100BF00053F82200FFF7B5FE08E0621E044B33F8FD
:100C00001210044B53F82200FFF7A9FE00BFE8E7DB
:100C10009C2800087C2800082DE9F04104460D4678
:100C2000601E012101EB4000C6B2601E022101EBF3
:100C30004000C7B2012C01DB042C01DDBDE8F081CE
:100C40000DB1012000E0002001463046FFF7C2FF51
:100C50000DB9012000E0002001463846FFF7BAFF39
:100C600000BFEBE700BFFEE77047000070B5002152
:100C700000230F22C47804B3154C246804F4E06404
:100C8000C4F5E064210AC1F10403CA40447804FABF
:100C900003F184781440214309010E4C0678A155D4
:100CA000047804F01F050124AC4005786D11AD00F7
:100CB00005F1E025C5F8004109E0047804F01F05BE
:100CC0000124AC40044D0678761145F8264070BDED
:100CD0000CED00E000E400E080E100E002490143A7
:100CE000024A1160704700000000FA050CED00E0B8
:100CF00010B5002406E005A22146002000F020F9EE
:100D0000601CC4B2082CF6DB10BD0000202020209F
:100D10002020202020202020202020200000000053
:100D200008B50121082000F063FA4FF44060ADF8E7
:100D3000000014208DF8030003208DF8020069469E
:100D40000648FFF730FD012291020448FFF70BFE31
:100D50000122D1020148FFF706FE08BD000C014048
:100D600070B50546002415E08020204100EA050208
:100D70004FF400610E48FFF7F6FD012291020C4886
:100D8000FFF7F1FD00224FF480610948FFF7EBFD0A
:100D9000601CC4B2082CE7DB012291020448FFF773
:100DA000E2FD00224FF480610148FFF7DCFD70BDD9
:100DB000000C014010B50122D1020A48FFF7D3FD13
:100DC000012291020748FFF7CEFD00224FF4006197
:100DD0000448FFF7C8FD00224FF480610148FFF787
:100DE000C2FD10BD000C014010B500224FF400619F
:100DF0000648FFF7B8FD012291020448FFF7B3FD52
:100E00000122D1020148FFF7AEFD10BD000C0140E8
:100E100010B5FFF785FFAE2000F0ADF8D52000F04B
:100E2000AAF8802000F0A7F8A82000F0A4F83F203E
:100E300000F0A1F8D32000F09EF8002000F09BF80D
:100E4000402000F098F8A12000F095F8C82000F0AC
:100E500092F8DA2000F08FF8122000F08CF8812050
:100E600000F089F8CF2000F086F8D92000F083F850
:100E7000F12000F080F8DB2000F07DF8302000F059
:100E80007AF8A42000F077F8A62000F074F88D20FE
:100E900000F071F8142000F06EF8AF2000F06BF84D
:100EA000FFF726FF0021084600F001F810BD70B5DD
:100EB00004460D4605F1B001C8B200F05CF804F03C
:100EC0000F0000F058F8102141EA141000F053F818
:100ED00070BD00002DE9F04106460C461746A7F10B
:100EE000200000F0FF087F2E02DD0026A01CC4B207
:100EF00021463046FFF7DBFF002507E00F4901EBF5
:100F00000811485D00F047F8681CC5B2082DF5DBF4
:100F1000601CC1B23046FFF7CAFF002509E007494F
:100F200001EB081205F10801505C00F034F8681C70
:100F3000C5B2082DF3DBBDE8F08100000C1F0008EE
:100F40002DE9F04104460F46154600260EE0AA5D45
:100F500039462046FFF7BEFF04F10800C4B2782CE2
:100F600002DD0024B81CC7B2701CC6B2A85D002800
:100F7000EDD1BDE8F08110B50446FFF71BFF7820E6
:100F8000FFF7EEFE0020FFF7EBFE2046FFF7E8FE3E
:100F9000FFF72AFF10BD10B50446FFF70BFF7820BE
:100FA000FFF7DEFE4020FFF7DBFE2046FFF7D8FE0E
:100FB000FFF71AFF10BD000010B588B01F48006889
:100FC0001F490968401AB0F5967F01D208B010BDDC
:100FD0001A4800681A4908601AA200210846FFF75B
:100FE000AFFF002425E004EB44001B4901EB800027
:100FF000007A08B119A000E019A004EB4401164AD8
:1010000012F8211009B117A100E018A1CDE90010D4
:10101000184850F8243018A2112103A8FFF7FEF851
:10102000601C4006010E03AA0020FFF789FF601C28
:10103000C4B2042CD7DB00BFC8E7000020000020AA
:1010400030000020536D6172742054726173682007
:1010500042696E20000000005800002046554C00F8
:10106000202020004F50454E00000000434C5344C8
:1010700000000000B428000825733A25732025736A
:101080000000000010B50446012C01DB042C00DD3B
:1010900010BD0121601E00EB4000084A02F820103C
:1010A00007480168601E00EB400002EB80004160D1
:1010B000204600F08BF900BFEAE70000580000204E
:1010C0002000002070B586B000253648007870B149
:1010D0003548006835490968401AC82807D34FF4D5
:1010E00080513348FFF73BFC00202E4908702E4802
:1010F000006830490968401AB0F5FA7F01D206B09D
:1011000070BD294800682B490860012436E0601E44
:1011100000EB4000284901EB8000067A204600F0F1
:10112000B7FC611E01EB4101234A02EB8101087209
:10113000601E00EB400002EB8000017A2046FFF7C2
:101140006BFD86B9601E00EB40001B4901EB80007F
:10115000007A40B1234619A2142101A8FFF75EF8D6
:1011600001A8FFF715FB601E00EB4000124901EBE0
:101170008000007A00B10125601CC4B2042CC6DDD9
:1011800075B10848007858B94FF480510848FFF706
:10119000E8FB012003490870034800680349086020
:1011A00000BFACE728000020200000202C00002019
:1011B000000C0140240000205800002042494E2528
:1011C000642046554C4C0D0A00000000704700009A
:1011D00029B1064AD2690243044BDA6104E0034AAA
:1011E000D2698243014BDA6170470000001002406F
:1011F00029B1064A92690243044B9A6104E0034A0A
:1012000092698243014B9A617047000000100240CE
:1012100030B500210022002400232D4D6D6805F01B
:101220000C0121B1042905D0082923D105E0294D5D
:10123000056022E0274D05601FE0254D6D6805F42F
:101240007012234D6D6805F48034022505EB92423F
:101250001CB9214D554305600BE01D4D6D6805F42B
:1012600000351DB11C4D5543056002E0194D554335
:10127000056002E0174D056000BF00BF144D6D68AA
:1012800005F0F0010909154D6B5C0568DD4045600E
:101290000F4D6D6805F4E061090A104D6B5C4568FF
:1012A000DD4085600A4D6D6805F46051C90A0B4D3B
:1012B0006B5C4568DD40C560054D6D6805F44041D7
:1012C000890B074D6B5CC568B5FBF3F5056130BD57
:1012D0000010024000127A0000093D0005000020C5
:1012E0001500002010B504460021204600F076F8D5
:1012F00010BD000000B589B001210D20FFF778FF77
:1013000001210220FFF764FFC020ADF82000182063
:101310008DF8230003208DF8220008A92848FFF744
:1013200042FA0320ADF8200008A92648FFF73BFA4F
:1013300044F61F60ADF818004720ADF814000020F7
:10134000ADF81A00ADF8160005A91F4800F0D8FA4C
:101350006020ADF804000120ADF80600002000F088
:10136000F1FCADF80A000020ADF80C0001A9164808
:1013700000F062F90821144800F0AAF901A9124806
:1013800000F0B0F90821104800F0FEF901A90E485C
:1013900000F008FA08210C4800F054FA01A90A48A4
:1013A00000F05AFA0821084800F094FA0121064892
:1013B00000F00CF90121044800F017F909B000BD54
:1013C00000080140000C01400004004010B5044634
:1013D0005A21204600F002F810BD000070B5044606
:1013E0000D46284600F0AEFC0646012C06D0022C25
:1013F00009D0032C0CD0042C14D10EE031460B483C
:1014000000F075FA0FE03146084800F072FA0AE081
:101410003146064800F06FFA05E03146034800F017
:101420006CFA00E000BF00BF70BD00000004004087
:10143000704710B500F002F810BD00000CB5002098
:10144000019000903348006840F4803031490860D2
:1014500000BF3048006800F4003000900198401C44
:101460000190009818B90198B0F5A06FF1D1294802
:10147000006800F4003010B10120009001E000206D
:1014800000900098012843D12348006840F01000E4
:10149000214908600846006820F0030008600846FB
:1014A000006840F0020008601A4840681949486026
:1014B0000846406848600846406840F480604860DC
:1014C0000846406820F47C1048600846406840F4B4
:1014D000E81048600846006840F08070086000BF6F
:1014E0000C48006800F000700028F9D009484068F6
:1014F00020F00300074948600846406840F00200B9
:10150000486000BF0348406800F00C000828F9D18B
:101510000CBD00000010024000200240042808D149
:101520004FF0E021096941F004014FF0E022116120
:1015300007E04FF0E021096921F004014FF0E022BB
:10154000116170477047000010B51348006840F003
:1015500001001149086008464068104908400E49DA
:101560004860084600680E4908400B490860084674
:10157000006820F4802008600846406820F4FE00DF
:1015800048604FF41F008860FFF753FF4FF0006082
:101590000449086010BD0000001002400000FFF880
:1015A000FFFFF6FE08ED00E010B50121880700F00E
:1015B00028F840B104480068401C03490860012134
:1015C000880700F00FF810BD2000002021B102882C
:1015D00042F08002028004E002884FF67F731A40D6
:1015E00002807047CA430282704721B1028842F0EC
:1015F0000102028004E002884FF6FE731A40028066
:10160000704730B50246002000230024158A05EA01
:101610000103958905EA010413B10CB1012000E032
:10162000002030BD1AB183890B43838102E0838996
:101630008B4383817047000070B500240022002393
:10164000058C4FF6FE7635400584028C8388048B2A
:101650004FF68F752C40B51E2C400D882C43751EFF
:101660002A400D892A434D882A43144DA8420BD0A5
:10167000134DA84208D0134DA84205D0124DA842E0
:1016800002D0124DA84213D14FF6F7752A404D896A
:101690002A434FF6FB752A408D882A434FF6FF6593
:1016A0002B404FF6FF552B408D892B43CD892B4383
:1016B00083800483CD888586028470BD002C014020
:1016C0000034014000400140004401400048014016
:1016D0000A460021018B4FF6F7731940114301832D
:1016E0007047000070B5002400220023058C4FF6DF
:1016F000EF7635400584028C8388048B48F6FF75AD
:101700002C404FF6FF452C400D884FF6FF7606EA39
:1017100005252C434FF6DF752A400D8906EA05158D
:101720002A434D8806EA05152A43154DA84202D0E2
:10173000144DA8421DD14FF67F752A404D894FF6B2
:10174000FF7606EA05152A434FF6BF752A408D88B5
:1017500006EA05152A434FF6FF352B404FF2FF7579
:101760002B408D8906EA85052B43CD8906EA850540
:101770002B4383800483CD880587028470BD0000DD
:10178000002C0140003401400A460021018B4FF239
:10179000FF7319404FF6FF7303EA022319430183D5
:1017A0007047000070B5002400220023058C4FF61E
:1017B000FF6635400584028C8388848B4FF68F75D5
:1017C0002C404FF6FC752C400D882C434FF6FF55EE
:1017D0002A400D894FF6FF7606EA05252A434D88F3
:1017E00006EA05252A43154DA84202D0144DA84209
:1017F0001DD14FF2FF752A404D894FF6FF7606EA5C
:1018000005252A434FF6FF352A408D8806EA05252F
:101810002A434EF6FF752B404DF6FF752B408D8900
:1018200006EA05152B43CD8906EA05152B4383806F
:101830008483CD888587028470BD0000002C014020
:10184000003401400A460021818B4FF6F77319409E
:10185000114381837047000070B5002200230024EB
:10186000058C4EF6FF7635400584038C8488828B88
:1018700048F6FF752A404FF6FF452A400D884FF67F
:10188000FF7606EA05252A434DF6FF752B400D89A4
:1018900006EA05352B434D8806EA05352B430B4DEB
:1018A000A84202D00A4DA84208D14BF6FF752C4041
:1018B0008D894FF6FF7606EA85152C438480828356
:1018C000CD88A0F84050038470BD0000002C01407A
:1018D000003401400A460021818B4FF2FF7319400A
:1018E0004FF6FF7303EA0223194381837047818611
:1018F00070470187704781877047A0F84010704794
:10190000002202881D4B98420ED01D4B98420BD0EE
:10191000B0F1804F08D01B4B984205D01A4B98422B
:1019200002D01A4B984204D14FF68F731A404B885D
:101930001A43174B984207D0164B984204D04FF6E3
:10194000FF431A40CB881A4302808B8883850B881B
:1019500003850A4B98420BD0094B984208D00E4B96
:10196000984205D00D4B984202D00D4B984201D1C0
:101970000B7A03860123838270470000002C01400C
:10198000003401400004004000080040000C00400A
:10199000001000400014004000400140004401409D
:1019A0000048014070B50446012C01DB042C02DD27
:1019B0004FF6FF7070BD601E1E4931F810604FF485
:1019C00080711D48FEF7CDFF0A2000F011FA4FF498
:1019D00080711948FEF7C3FF00250BE0012000F0DD
:1019E00007FA681C054647F23051884202D94FF683
:1019F000FF70DFE731461148FEF7A8FF0028EDD061
:101A000000250BE0012000F0F3F9681C054647F2C1
:101A10003051884202D94FF6FF70CBE73146074874
:101A2000FEF794FF0128EDD03A20B5FBF0F080B22C
:101A3000C0E70000AC28000800080140000C01408D
:101A400008B501210C20FFF7D3FB4FF48070ADF8EF
:101A5000000010208DF8030003208DF80200694675
:101A60000948FEF7A0FE4FF480710748FEF777FFA4
:101A700004208DF803004FF47070ADF80000694643
:101A80000248FEF790FE08BD00080140000C01402E
:101A900070B505462846FFF785FF04464FF6FF70F0
:101AA000844201D1002070BD0A2C01DA0120FAE73E
:101AB0000020F8E710B540F22551074800F038F84B
:101AC00048B1054800F0F0F80449087040F225518B
:101AD000014800F005F810BD00440040000000205F
:101AE00010B50022002340F66A14A14200D100BFC5
:101AF0000A1201249440A3B2DC43048010BD21B13A
:101B0000828942F40052828104E082894DF6FF739B
:101B10001A408281704702460020B1F5007F00D153
:101B200000BF13880B400BB1012000E0002070477C
:101B300070B50246002400230025002040F66A16F6
:101B4000B14200D100BFC1F3421501F01F030126CD
:101B500006FA03F3012D02D19689334006E0022DE7
:101B600002D1168A334001E0968A33400C120126D6
:101B700006FA04F41688344013B10CB1012000E0D9
:101B8000002070BDF0B5034600240026002500208B
:101B900040F66A17B94200D100BF1846C1F342149B
:101BA00001F01F06012707FA06F5012C01D10C30C0
:101BB00004E0022C01D1103000E014301AB10768A3
:101BC0002F43076002E00768AF430760F0BD0000E5
:101BD0002DE9F04786B005460E460024A24600BF18
:101BE000A1460027B08900B100BF2F462C8A4CF6D1
:101BF000FF700440F08804432C82AC894EF6F31049
:101C00000440B08831890843718908430443AC819A
:101C1000AC8A4FF6FF400440B0890443AC8201A86F
:101C2000FFF7F6FA1F48874202D1DDF810A001E065
:101C3000DDF80CA0A88900F4004040B10AEBCA000E
:101C400000EB0A1031684900B0FBF1F807E00AEB3D
:101C5000CA0000EB0A1031688900B0FBF1F864207B
:101C6000B8FBF0F004012009642101FB1089A88968
:101C700000F4004040B1322000EBC900B0FBF1F0AD
:101C800000F00700044308E0322000EB0910642153
:101C9000B0FBF1F000F00F0004432C8106B0BDE86A
:101CA000F08700000038014001468888C0F3080032
:101CB0007047C1F308028280704700BFFEE7000052
:101CC00010B51F48047804B910BD00201C490870E5
:101CD000A4F1610006282ED2DFE800F003070B0F05
:101CE00013200120FFF7CEF926E00220FFF7CAF902
:101CF00022E00320FFF7C6F91EE00420FFF7C2F937
:101D00001AE00120FFF7BEF90220FFF7BBF903201C
:101D1000FFF7B8F90420FFF7B5F90DE00120FEF751
:101D2000C9FC0220FEF7C6FC0320FEF7C3FC04201A
:101D3000FEF7C0FC00E000BF00BF00BFC4E700002A
:101D4000000000200146B42900DDB4214FF4FA6000
:101D50004843B422B0FBF2F000F5FA7080B270474D
:101D600010B56FF00400FFF7D9FB0A4800680A4974
:101D7000B0FBF1F0094908700846007800EB40011B
:101D8000C1EBC0104FF6FF7101EAC00004490880A2
:101D900010BD00003400002000127A001A0000205C
:101DA0001C0000200146114A12884A434FF0E023EC
:101DB0005A6100229A611A46126942F001021A61C0
:101DC00000BF4FF0E022106900F001021AB100F4E8
:101DD0008032002AF5D04FF0E022126922F0010291
:101DE0004FF0E0231A6100229A6170471C00002026
:101DF0000146114A12784A434FF0E0235A6100220B
:101E00009A611A46126942F001021A6100BF4FF04E
:101E1000E022106900F001021AB100F48032002AB9
:101E2000F5D04FF0E022126922F001024FF0E023DA
:101E30001A6100229A6170471A0000204FF4407026
:101E4000FEF74CFFFFF78CFFFEF7C2FBFEF702FE2A
:101E5000FEF792FEFEF710FCFEF7DAFFFFF74AFAF4
:101E6000FEF7E2FDFFF7ECFDFEF75EFBFEF73AFC46
:101E7000002416E0002004EB44011B4A02F8210074
:101E800004EB440102EB8101486004EB440102EBE6
:101E900081010872611CC8B20021FEF7BDFE601C02
:101EA000C4B2042CE6DBFEF723FF10A202210420BB
:101EB000FFF746F811A204211420FFF741F840F281
:101EC000DC50FFF76FFFFEF713FF0BE0FEF752FD4C
:101ED000FFF7F6FEFEF736FEFEF7AAFBFFF7F2F875
:101EE000FFF76AF8F2E7000058000020536D6172B6
:101EF000742054726173682042696E00496E69747F
:101F000069616C697A696E672E2E0000000000001E
:101F1000000000000000000000000000000000F8C9
:101F200000000000000000333000000000100C062C
:101F3000100C0600000000000000000040C07840C7
:101F4000C0784000043F04043F040400007088FC93
:101F500008300000001820FF211E0000F008F000EB
:101F6000E018000000211C031E211E0000F008885C
:101F7000700000001E2123241927211010160E00C6
:101F8000000000000000000000000000000000E071
:101F90001804020000000007182040000002041886
:101FA000E00000000040201807000000404080F0E2
:101FB000804040000202010F01020200000000F018
:101FC000000000000101011F0101010000000000EC
:101FD0000000000080B07000000000000000000061
:101FE00000000000000101010101010100000000EA
:101FF0000000000000303000000000000000000081
:1020000080601804006018060100000000E010085D
:102010000810E000000F102020100F00001010F832
:10202000000000000020203F202000000070080871
:1020300008887000003028242221300000300888F1
:10204000884830000018202020110E000000C02019
:1020500010F8000000070424243F240000F808883A
:10206000880808000019212020110E0000E01088C7
:1020700088180000000F112020110E0000380808F9
:10208000C83808000000003F000000000070880809
:1020900008887000001C222121221C0000E010088A
:1020A0000810E0000000312222110F00000000C0E3
:1020B000C000000000000030300000000000008080
:1020C0000000000000008060000000000000804070
:1020D0002010080000010204081020004040404089
:1020E00040404000040404040404040000081020DC
:1020F0004080000000201008040201000070480821
:102100000808F0000000003036010000C030C82888
:10211000E810E0000718272423140B000000C03843
:10212000E0000000203C23020227382008F88888BD
:1021300088700000203F202020110E00C0300808C9
:1021400008083800071820202010080008F80808A0
:102150000810E000203F202020100F0008F8888899
:10216000E8081000203F20202320180008F8888865
:10217000E8081000203F200003000000C0300808DD
:102180000838000007182020221E020008F8080066
:102190000008F808203F210101213F20000808F82D
:1021A000080800000020203F202000000000080850
:1021B000F8080800C08080807F00000008F888C010
:1021C00028180800203F20012638200008F80800C1
:1021D00000000000203F20202020300008F8F800F8
:1021E000F8F80800203F003F003F200008F830C00A
:1021F0000008F808203F200007183F00E0100808FA
:102200000810E0000F10202020100F0008F8080828
:102210000808F000203F210101010000E01008083B
:102220000810E0000F18242438504F0008F8888860
:1022300088887000203F2000030C30200070880840
:10224000080838000038202121221C00180808F84E
:10225000080818000000203F2000000008F80800CF
:102260000008F808001F202020201F0008788800A0
:1022700000C83808000007380E010000F80800F810
:102280000008F800033C0700073C030008186880BA
:102290008068180820302C03032C30200838C80030
:1022A000C83808000000203F20000000100808087F
:1022B000C83808002038262120201800000000FE21
:1022C000020202000000007F40404000000C30C0CD
:1022D00000000000000000010638C00000020202F9
:1022E000FE000000004040407F00000000000402AB
:1022F00002020400000000000000000000000000D6
:1023000000000000808080808080808000020204C5
:1023100000000000000000000000000000008080BD
:10232000808000000019242222223F2008F800802B
:1023300080000000003F112020110E0000000080EE
:1023400080800000000E112020201100000000807D
:102350008088F800000E112020103F2000008080AF
:1023600080800000001F222222221300008080F0C3
:10237000888888180020203F2020000000008080EE
:1023800080808000006B94949493600008F8008033
:1023900080800000203F210000203F20008098988E
:1023A000000000000020203F2020000000000080EE
:1023B0009898000000C08080807F000008F800002E
:1023C00080808000203F24022D302000000808F883
:1023D000000000000020203F20200000808080803E
:1023E00080808000203F20003F20003F80800080D0
:1023F00080800000203F210000203F2000008080DE
:1024000080800000001F202020201F00808000808E
:102410008000000080FFA12020110E00000000803D
:1024200080808000000E112020A0FF80808080002E
:102430008080800020203F2120000100000080805B
:10244000808080000033242424241900008080E050
:10245000808000000000001F20200000808000001D
:1024600000808000001F202020103F2080808000FE
:102470000080808000010E3008060100808000800E
:10248000008080800F300C030C300F000080800033
:10249000808080000020312E0E312000808080005E
:1024A0000080808080818E7018060100008080800E
:1024B000808080000021302C2221300000000000AC
:1024C000807C020200000000003F4040000000004D
:1024D000FF00000000000000FF0000000002027C7E
:1024E000800000000040403F0000000000060101A5
:1024F0000202040400000000000000001060028CD2
:102500000000FE9292929292FE00000000000000F5
:1025100000000000000000000000000004047E0134
:10252000407E42427E427E42427E400000000000E9
:102530000000000000000000000000001060028C9D
:1025400000FE929292929292FE0000000000000023
:1025500000000000000000000000000004047E01F4
:102560004448507F40407F504844400000000000F5
:102570000000000000000000000000000000FC243B
:102580002424FC252624FC2424240400000000002C
:1025900000000000000000000000000040308F80BC
:1025A000844C55252525554C808080000000000076
:1025B0000000000000000000000000004040424415
:1025C00058C0407F40C050484640400000000000D6
:1025D000000000000000000000000000808040209B
:1025E00018070000003F4040404078000000000015
:1025F00000000000000000000000000000FE424259
:1026000042FE0042A29E82A2C2BE00000000000064
:10261000000000000000000000000000806F0808BB
:1026200028CF00002FC8080828CF000000000000B5
:102630000000000000000000000000000000FE029A
:102640001222C202C23202FE00000000000000009E
:1026500000000000000000000000000080601F007B
:1026600020100C030C30000F3040F8000000000078
:10267000000000000000000000000000404042CCCC
:102680000004F49494FF9494F4040000000000000B
:102690000000000000000000000000000040201FBB
:1026A00020484442415F414244484000000000004D
:1026B00000000000000000000000000000F8080812
:1026C0000CCA494848C8080808F800000000000083
:1026D00000000000000000000000000000FF0000FB
:1026E000001F0808081F0040807F00000000000055
:1026F0000000000000000000000000000008884802
:1027000028180FE808080808080800000000000062
:10271000000000000000000000000000002011097F
:102720000541817F01010509112000000000000022
:1027300000000000000000000000000004E4242469
:1027400064A4243F24A4642424E4040000000000C2
:1027500000000000000000000000000000FF000872
:102760000909097F09090948807F0000000000006D
:102770000000000000000000000000000202E22251
:1027800022FE222222FE2222E2020200000000009B
:102790000000000000000000000000000000FF48F2
:1027A0004443404040434444FF0000000000000018
:1027B00000000000000000000000000000202020B9
:1027C00020FF000000FF4020100800000000000073
:1027D0000000000000000000000000002060201049
:1027E00010FF0000003F4040404078000000000023
:1027F00000000000000000000000000002E22222B1
:10280000222222FE2222222222E2020000000000D6
:1028100000000000000000000000000000FF0000B9
:102820000912007F00091240807F000000000000B4
:10283000000000000000000000000000202020BE7A
:10284000AAAAAAAAAAAAAABE2020200000000000C4
:10285000000000000000000000000000008080AFC9
:10286000AAAAAAFFAAAAAAAF8080000000000000BE
:10287000000000000000000000000000000801400F
:1028800000080140000C0140000C0140000C014018
:10289000000C0140000C0140000C0140010002004E
:1028A0000020004000800800100020004000800050
:1028B00000010002DC280008D4280008C428000811
:1028C000CC2800084B697463682000004F74686569
:1028D0007220000048617A61726400005265637979
:1028E000636C00000429000800000020480000007C
:1028F0006C0100084C29000848000020A0060000D8
:10290000880100080001010101000000000102032C
:102910000401020304060708090204060800000077
:1029200000000000000000000000000000000000A7
:10293000000000000000000000A24A0400000000A7
:0C29400000000000010203040607080963
:0400000508000131BD
:00000001FF
