:020000040800F2
:10000000E8060020D5010008850A00087D070008E1
:10001000810A000881050008C71A000800000000D6
:100020000000000000000000000000004512000871
:10003000B1050008000000008D0F000859130008EA
:10004000EF010008EF010008EF010008EF010008D0
:10005000EF010008EF010008EF010008EF010008C0
:10006000EF010008EF010008EF010008EF010008B0
:10007000EF010008EF010008EF010008EF010008A0
:10008000EF010008EF010008EF010008EF01000890
:10009000EF010008EF010008EF010008EF01000880
:1000A000EF010008EF010008EF010008EF01000870
:1000B000BD130008EF010008EF010008EF01000880
:1000C000EF010008EF010008EF010008EF01000850
:1000D000EF010008EF010008E5180008EF01000833
:1000E000EF010008EF010008EF010008EF01000830
:1000F000EF010008EF010008EF010008EF01000820
:10010000EF010008EF010008EF010008EF0100080F
:10011000EF010008EF010008EF010008EF010008FF
:10012000EF010008EF010008EF010008EF010008EF
:1001300000F002F800F03FF80AA090E8000C8244BA
:100140008344AAF10107DA4501D100F034F8AFF297
:10015000090EBAE80F0013F0010F18BFFB1A43F0A5
:10016000010318477C2500009C250000103A24BF9D
:1001700078C878C1FAD8520724BF30C830C144BF0C
:1001800004680C607047000000230024002500264E
:10019000103A28BF78C1FBD8520728BF30C148BFEA
:1001A0000B607047732900F0E680002070471FB590
:1001B0001FBD10B510BD00F0E2F81146FFF7F7FFC4
:1001C00001F03CFD00F000F903B4FFF7F2FF03BCBF
:1001D00000F008F90948804709480047FEE7FEE7B4
:1001E000FEE7FEE7FEE7FEE7FEE7FEE7FEE7FEE7E7
:1001F00004480549054A064B704700005D13000896
:1002000031010008E8000020E8060020E802002094
:10021000E80200200FB41CB50C0007AA009001D022
:100220002044401E074B7B4469460190069800F02D
:1002300070F8002C03D06946002000F07DF81CBC4B
:100240005DF814FB190100002DE9F0410E4604464B
:10025000002020622046E168884730B3252805D079
:10026000D4E901219047206A401CF2E7E16820466A
:1002700000278847050018D0A5F14100192802D8A9
:1002800020354FF400673246294620462760FFF7A5
:1002900089FF40B1012804D0F61D26F00706083674
:1002A000D8E7361DD6E72846DAE7206ABDE8F081B0
:1002B00070B50C460546012A05D02878800600D581
:1002C000EA69002302E0012305E05B1C934202D2AD
:1002D000E05C0028F9D1A869E618C01AA861286A6C
:1002E000184428622846AFF3008004E0D5E90121D4
:1002F00014F8010B9047B442F8D32846AFF30080BE
:1003000070BD70477047704701694A1C02610878E8
:10031000704700B58FB0CDE9013100210591054945
:100320007944CDE9031011466846FFF78DFF0FB001
:1003300000BD0000E5FFFFFF0A6802F8010B0A603C
:100340007047D1E900239A4202D2531C0B6010700F
:10035000704710B5436913B1AFF3008001E0FFF7B8
:10036000A7FF012010BD127800F124010A700022BD
:100370004A700122EDE711684FF0FF32E9E7754658
:1003800000F02CF8AE4605006946534620F0070001
:10039000854618B020B5FFF72BFFBDE820404FF091
:1003A00000064FF000074FF000084FF0000B21F05F
:1003B0000701AC46ACE8C009ACE8C009ACE8C0092C
:1003C000ACE8C0098D46704710B50446AFF3008015
:1003D0002046BDE81040FFF7F7BE00000048704718
:1003E0008800002001491820ABBEFEE7260002006D
:1003F0007047000000B587B00121052000F0D8FD4E
:100400000121480400F0C4FD0420ADF818001820B4
:100410008DF81B0003208DF81A0006A91D4800F076
:10042000C8F80820ADF8180004208DF81B0006A9B4
:10043000184800F0BEF84FF4165002900020ADF8B6
:100440000C00ADF80E00ADF81000ADF814000C2053
:10045000ADF8120002A9104801F0C4FA012240F2DE
:1004600025510D4801F099FA26208DF8040001204D
:100470008DF8050000208DF8060001208DF807009A
:1004800001A800F001FB0121034801F050FA07B078
:1004900000BD000000080140004400401FB50121DC
:1004A000084600F075FD40F2E730ADF8080047203F
:1004B000ADF804000020ADF80A00ADF8060001A96F
:1004C0004FF0804001F034F901221146900700F00E
:1004D000C2FF1C208DF800000F208DF801000020C5
:1004E0008DF8020001208DF80300684600F0CCFA78
:1004F0000121880700F092FF1FBD000010B5012404
:1005000019E0601E00EB40000D4911F8200080B199
:10051000601E00EB400001EB80004068094909685B
:10052000081A40F6B831884203D3204600F02AF872
:1005300010BD601CC4B2042CE3DD00BFF8E700006E
:10054000580000202000002008B50121082000F0FC
:100550002FFD4FF48050ADF8000010208DF80300FF
:1005600003208DF802006946044800F022F84FF499
:100570008051024800F0F9F808BD0000000C01406D
:1005800000BFFEE710B50446012C01DB042C00DDA2
:1005900010BD0021601E00EB4000044A02F820104C
:1005A000204600F07FFD00BFF2E700005800002069
:1005B00070472DE9F0410246002500260020002367
:1005C0000024002791F803C00CF00F0591F803C038
:1005D0000CF0100CBCF1000F03D091F802C04CEAF3
:1005E000050591F800C0BCF1000F31D0146800205F
:1005F0002BE04FF0010C0CFA00F3B1F800C00CEA4C
:1006000003069E4220D183004FF00F0C0CFA03F733
:10061000BC4305FA03FC4CEA040491F803C0BCF1A6
:10062000280F06D14FF0010C0CFA00FCC2F814C0E0
:100630000AE091F803C0BCF1480F05D14FF0010C5E
:100640000CFA00FCC2F810C0401C0828D1D314607A
:10065000B1F800C0BCF1FF0F34DD546800202EE07B
:1006600000F1080C4FF0010808FA0CF3B1F800C0D3
:100670000CEA03069E4221D183004FF00F0C0CFAC6
:1006800003F7BC4305FA03FC4CEA040491F803C0E9
:10069000BCF1280F05D100F1080C08FA0CF8C2F8DB
:1006A000148091F803C0BCF1480F07D100F1080C89
:1006B0004FF0010808FA0CF8C2F81080401C082816
:1006C000CED35460BDE8F081F0B50A460023002483
:1006D0000021002500F00046B6F1004F02D11D4E6A
:1006E000F16901E01B4E7168C0F3034583B200F469
:1006F0004016B6F5401F08D121F07061154E76689E
:1007000026F07066134F7E6012E000F48016B6F596
:10071000801F06D1032606FA05F4A14341F070615B
:1007200006E0460D360103FA06F6B14341F070616A
:1007300022B1460D360103FA06F6314300F00046B9
:10074000B6F1004F02D1034EF16101E0014E71603C
:10075000F0BD0000000001400246002093680B40FD
:100760000BB1012000E0002070474161704701613A
:1007700070470AB1016100E04161704700BFFEE7C8
:1007800010B51348006840F6B831884200D210BD59
:10079000012419E0204600F01FF898B1601E00EB1C
:1007A00040000C4911F8200018B9204600F06CFBFD
:1007B00008E007480168601E00EB4000054A02EBB4
:1007C00080004160601CC4B2042CE3DD00BFDEE7A2
:1007D000200000205800002010B50446012C06D04F
:1007E000022C0DD0032C14D0042C26D11BE0102198
:1007F0001348FFF7B1FF08B9012010BD0020FCE746
:1008000020210F48FFF7A8FF08B90120F5E70020D5
:10081000F3E74FF400610A48FFF79EFF08B9012093
:10082000EBE70020E9E74FF480510548FFF794FF1C
:1008300008B90120E1E70020DFE70020DDE7000044
:100840000008014008B50121042000F0B1FB482058
:100850008DF8030003208DF8020041F63000ADF85A
:10086000000069460148FFF7A4FE08BD00080140EA
:1008700008B50121152000F09BFB01210C48FFF772
:1008800023FF48208DF8030003208DF802004FF469
:100890006040ADF8000069460648FFF78AFE4FF455
:1008A0000040ADF8000069460348FFF782FE08BD2E
:1008B00000023000001001400008014038B500255A
:1008C0004FF400512148FFF747FF8DF800004FF427
:1008D00080411E48FFF740FF8DF801004FF40041B2
:1008E0001A48FFF739FF8DF802004FF4004118480D
:1008F000FFF732FF8DF80300002423E01DF8040009
:1009000048B91448005D012805D11348006813490F
:1009100041F8240010E01DF8040001280CD10D4816
:10092000005D48B90D4850F824000B490968081AC1
:10093000142801D3601CC5B21DF8040005490855F0
:10094000601CC4B2042CD9DB284638BD001001401D
:100950000008014001000020200000204800002085
:1009600010B5FFF7ABFF0446012C0FDB042C0DDCA8
:10097000601E00EB4000064911F8200018B1204627
:10098000FFF700FE02E0204600F07EFA10BD0000F6
:100990005800002008B501210D2000F009FB0121BD
:1009A0001048FFF791FE10208DF8030003208DF80A
:1009B0000200ADF8000069460B48FFF7FAFD03217D
:1009C0000948FFF7D2FE4EF23800ADF80000694644
:1009D0000648FFF7EEFD4EF238010448FFF7C5FE6A
:1009E00008BD00000002300000080140000C01407A
:1009F00070B504460D46012C01DB082C00DD70BDEE
:100A00004DB1621E094B33F81210094B53F8220006
:100A1000FFF7ADFE08E0621E044B33F81210044BE2
:100A200053F82200FFF7A1FE00BFE8E79826000870
:100A3000782600082DE9F04104460D46601E01218C
:100A400001EB4000C6B2601E022101EB4000C7B2BC
:100A5000012C01DB042C01DDBDE8F0810DB101208A
:100A600000E0002001463046FFF7C2FF0DB901202B
:100A700000E0002001463846FFF7BAFF00BFEBE771
:100A800000BFFEE77047000070B5002100230F2271
:100A9000C47804B3154C246804F4E064C4F5E0643D
:100AA000210AC1F10403CA40447804FA03F18478AE
:100AB0001440214309010E4C0678A155047804F036
:100AC0001F050124AC4005786D11AD0005F1E0254E
:100AD000C5F8004109E0047804F01F050124AC408A
:100AE000044D0678761145F8264070BD0CED00E007
:100AF00000E400E080E100E002490143024A1160A5
:100B0000704700000000FA050CED00E010B500246D
:100B100006E005A22146002000F020F9601CC4B2C6
:100B2000082CF6DB10BD00002020202020202020F3
:100B300020202020202020200000000008B50121D6
:100B4000082000F035FA4FF44060ADF800001420A2
:100B50008DF8030003208DF8020069460648FFF770
:100B600028FD012291020448FFF703FE0122D10271
:100B70000148FFF7FEFD08BD000C014070B50546B9
:100B8000002415E08020204100EA05024FF40061B6
:100B90000E48FFF7EEFD012291020C48FFF7E9FD38
:100BA00000224FF480610948FFF7E3FD601CC4B2E6
:100BB000082CE7DB012291020448FFF7DAFD00224E
:100BC0004FF480610148FFF7D4FD70BD000C014077
:100BD00010B50122D1020A48FFF7CBFD0122910294
:100BE0000748FFF7C6FD00224FF400610448FFF7F5
:100BF000C0FD00224FF480610148FFF7BAFD10BD2F
:100C0000000C014010B500224FF400610648FFF7C8
:100C1000B0FD012291020448FFF7ABFD0122D10291
:100C20000148FFF7A6FD10BD000C014010B5FFF70D
:100C300085FFAE2000F0ADF8D52000F0AAF88020A6
:100C400000F0A7F8A82000F0A4F83F2000F0A1F8D9
:100C5000D32000F09EF8002000F09BF8402000F028
:100C600098F8A12000F095F8C82000F092F8DA205A
:100C700000F08FF8122000F08CF8812000F089F845
:100C8000CF2000F086F8D92000F083F8F12000F0A2
:100C900080F8DB2000F07DF8302000F07AF8A42006
:100CA00000F077F8A62000F074F88D2000F071F8BD
:100CB000142000F06EF8AF2000F06BF8FFF726FF6D
:100CC0000021084600F001F810BD70B504460D463D
:100CD00005F1B001C8B200F05CF804F00F0000F0BC
:100CE00058F8102141EA141000F053F870BD0000CC
:100CF0002DE9F04106460C461746A7F1200000F00A
:100D0000FF087F2E02DD0026A01CC4B2214630461B
:100D1000FFF7DBFF002507E00F4901EB0811485DF5
:100D200000F047F8681CC5B2082DF5DB601CC1B2A5
:100D30003046FFF7CAFF002509E0074901EB08121A
:100D400005F10801505C00F034F8681CC5B2082DAC
:100D5000F3DBBDE8F0810000081D00082DE9F0413B
:100D600004460F46154600260EE0AA5D3946204689
:100D7000FFF7BEFF04F10800C4B2782C02DD0024A6
:100D8000B81CC7B2701CC6B2A85D0028EDD1BDE882
:100D9000F08110B50446FFF71BFF7820FFF7EEFE49
:100DA0000020FFF7EBFE2046FFF7E8FEFFF72AFFE3
:100DB00010BD10B50446FFF70BFF7820FFF7DEFEED
:100DC0004020FFF7DBFE2046FFF7D8FEFFF71AFFB3
:100DD00010BD000010B588B01C4800681C490968A7
:100DE000401AB0F5967F01D208B010BD17480068D0
:100DF00017490860002425E004EB4400154901EB85
:100E00008000007A08B114A000E015A004EB4401B2
:100E1000104A12F8211009B113A100E014A1CDE984
:100E20000010154850F8243014A2112103A8FFF730
:100E3000F1F9601C4006010E03AA0020FFF78EFFA7
:100E4000601CC4B2042CD7DB00BFCDE7200000201B
:100E5000300000205800002046554C4C0000000097
:100E600020202020000000004F50454E20000000B0
:100E7000434C4F5344000000B026000825733A2528
:100E8000732025730000000010B50446012C01DB1F
:100E9000042C00DD10BD0121601E00EB4000084A5B
:100EA00002F8201007480168601E00EB400002EBCA
:100EB00080004160204600F079F900BFEAE70000B9
:100EC000580000202000002070B500252948007837
:100ED00070B12948006829490968401AC82807D311
:100EE0004FF480512648FFF740FC0020214908704C
:100EF0002148006823490968401AB0F5FA7F00D2FA
:100F000070BD1D4800681F49086001241DE020468F
:100F100000F0D6FC611E01EB41011B4A02EB81018E
:100F20000872601E00EB400002EB8000017A204650
:100F3000FFF780FD601E00EB4000134901EB8000CD
:100F4000007A00B10125601CC4B2042CDFDD75B14C
:100F50000848007858B94FF480510948FFF707FC5A
:100F6000012004490870044800680449086000BF73
:100F7000C6E7000028000020200000202C000020F0
:100F8000000C0140240000205800002070470000A1
:100F900029B1064AD2690243044BDA6104E0034AEC
:100FA000D2698243014BDA617047000000100240B1
:100FB00029B1064A92690243044B9A6104E0034A4C
:100FC00092698243014B9A61704700000010024011
:100FD00030B500210022002400232D4D6D6805F05E
:100FE0000C0121B1042905D0082923D105E0294DA0
:100FF000056022E0274D05601FE0254D6D6805F472
:101000007012234D6D6805F48034022505EB924281
:101010001CB9214D554305600BE01D4D6D6805F46D
:1010200000351DB11C4D5543056002E0194D554377
:10103000056002E0174D056000BF00BF144D6D68EC
:1010400005F0F0010909154D6B5C0568DD40456050
:101050000F4D6D6805F4E061090A104D6B5C456841
:10106000DD4085600A4D6D6805F46051C90A0B4D7D
:101070006B5C4568DD40C560054D6D6805F4404119
:10108000890B074D6B5CC568B5FBF3F5056130BD99
:101090000010024000127A0000093D000500002007
:1010A0001500002010B504465A21204600F085F8AE
:1010B00010BD000000B589B001210C20FFF778FFBA
:1010C00001210220FFF764FF18208DF82300032080
:1010D0008DF82200C020ADF8200008A93048FFF7A5
:1010E00068FA0320ADF8200008A92E48FFF761FA3E
:1010F00044F61F60ADF818004720ADF8140000203A
:10110000ADF81A00ADF8160005A9274800F010FB4D
:101110006020ADF804000020ADF80C0040F2DC5077
:10112000ADF80A000120ADF8060001A91E4800F044
:101130009BF908211C4800F0E3F901A91A4800F0C6
:10114000E9F90821184800F037FA0020ADF8060048
:1011500001A9154800F03EFA0821134800F08AFA68
:1011600001A9114800F090FA08210F4800F0CAFACE
:1011700001210D4800F034F901210B4800F04EF92F
:101180004FF4967000F00EFD01220821064800F091
:1011900033F901220C21044800F02EF909B000BDFA
:1011A00000080140000C01400004004010B5044656
:1011B0000021204600F001F810BD70B506460C462F
:1011C000B42C00DDB4244FF4FA606043B421B0FBCA
:1011D000F1F000F5FA7085B22946304600F002F8C9
:1011E00070BD000070B505460C46B4F5FA7F01DA13
:1011F0004FF4FA7440F6C410844200DD0446012D19
:1012000006D0022D09D0032D0CD0042D14D10EE0F0
:1012100021460B4800F083FA0FE02146084800F011
:1012200080FA0AE02146064800F07DFA05E02146F2
:10123000034800F07AFA00E000BF00BF70BD000074
:1012400000040040704710B500F002F810BD000027
:101250000CB50020019000903348006840F48030C5
:101260003149086000BF3048006800F40030009049
:101270000198401C0190009818B90198B0F5A06F32
:10128000F1D12948006800F4003010B1012000902D
:1012900001E0002000900098012843D12348006815
:1012A00040F01000214908600846006820F0030063
:1012B00008600846006840F0020008601A4840686C
:1012C000194948600846406848600846406840F44C
:1012D000806048600846406820F47C1048600846FA
:1012E000406840F4E81048600846006840F08070AC
:1012F000086000BF0C48006800F000700028F9D0BA
:101300000948406820F003000749486008464068E3
:1013100040F00200486000BF0348406800F00C0045
:101320000828F9D10CBD0000001002400020024046
:10133000042808D14FF0E021096941F004014FF081
:10134000E022116107E04FF0E021096921F004017A
:101350004FF0E022116170477047000010B513484C
:10136000006840F0010011490860084640681049D3
:1013700008400E494860084600680E4908400B497D
:1013800008600846006820F480200860084640682D
:1013900020F4FE0048604FF41F008860FFF753FF01
:1013A0004FF000600449086010BD000000100240CA
:1013B0000000FFF8FFFFF6FE08ED00E010B5012188
:1013C000880700F037F840B104480068401C034922
:1013D00008600121880700F01EF810BD20000020E1
:1013E00021B1028842F08002028004E002884FF6B8
:1013F0007F731A400280704730B5002301248C406F
:10140000A3B2048C9C430484048C02FA01F5ADB2AF
:101410002C43048430BDCA430282704721B1028844
:1014200042F00102028004E002884FF6FE731A4087
:101430000280704730B50246002000230024158A40
:1014400005EA0103958905EA010413B10CB10120F5
:1014500000E0002030BD1AB183890B43838102E094
:1014600083898B438381704770B500240022002359
:10147000058C4FF6FE7635400584028C8388048BFC
:101480004FF68F752C40B51E2C400D882C43751ED1
:101490002A400D892A434D882A43144DA8420BD077
:1014A000134DA84208D0134DA84205D0124DA842B2
:1014B00002D0124DA84213D14FF6F7752A404D893C
:1014C0002A434FF6FB752A408D882A434FF6FF6565
:1014D0002B404FF6FF552B408D892B43CD892B4355
:1014E00083800483CD888586028470BD002C0140F2
:1014F00000340140004001400044014000480140E8
:101500000A460021018B4FF6F773194011430183FE
:101510007047000070B5002400220023058C4FF6B0
:10152000EF7635400584028C8388048B48F6FF757E
:101530002C404FF6FF452C400D884FF6FF7606EA0B
:1015400005252C434FF6DF752A400D8906EA05155F
:101550002A434D8806EA05152A43154DA84202D0B4
:10156000144DA8421DD14FF67F752A404D894FF684
:10157000FF7606EA05152A434FF6BF752A408D8887
:1015800006EA05152A434FF6FF352B404FF2FF754B
:101590002B408D8906EA85052B43CD8906EA850512
:1015A0002B4383800483CD880587028470BD0000AF
:1015B000002C0140003401400A460021018B4FF20B
:1015C000FF7319404FF6FF7303EA022319430183A7
:1015D0007047000070B5002400220023058C4FF6F0
:1015E000FF6635400584028C8388848B4FF68F75A7
:1015F0002C404FF6FC752C400D882C434FF6FF55C0
:101600002A400D894FF6FF7606EA05252A434D88C4
:1016100006EA05252A43154DA84202D0144DA842DA
:101620001DD14FF2FF752A404D894FF6FF7606EA2D
:1016300005252A434FF6FF352A408D8806EA052501
:101640002A434EF6FF752B404DF6FF752B408D89D2
:1016500006EA05152B43CD8906EA05152B43838041
:101660008483CD888587028470BD0000002C0140F2
:10167000003401400A460021818B4FF6F773194070
:10168000114381837047000070B5002200230024BD
:10169000058C4EF6FF7635400584038C8488828B5A
:1016A00048F6FF752A404FF6FF452A400D884FF651
:1016B000FF7606EA05252A434DF6FF752B400D8976
:1016C00006EA05352B434D8806EA05352B430B4DBD
:1016D000A84202D00A4DA84208D14BF6FF752C4013
:1016E0008D894FF6FF7606EA85152C438480828328
:1016F000CD88A0F84050038470BD0000002C01404C
:10170000003401400A460021818B4FF2FF731940DB
:101710004FF6FF7303EA02231943818370478186E2
:1017200070470187704781877047A0F84010704765
:10173000002202881D4B98420ED01D4B98420BD0C0
:10174000B0F1804F08D01B4B984205D01A4B9842FD
:1017500002D01A4B984204D14FF68F731A404B882F
:101760001A43174B984207D0164B984204D04FF6B5
:10177000FF431A40CB881A4302808B8883850B88ED
:1017800003850A4B98420BD0094B984208D00E4B68
:10179000984205D00D4B984202D00D4B984201D192
:1017A0000B7A03860123838270470000002C0140DE
:1017B000003401400004004000080040000C0040DC
:1017C000001000400014004000400140004401406F
:1017D0000048014070B50446012C01DB042C02DDF9
:1017E0004FF6FF7070BD601E1E4931F810604FF457
:1017F00080711D48FEF7BBFF0A2000F0F9F94FF495
:1018000080711948FEF7B1FF00250BE0012000F0C0
:10181000EFF9681C054647F23051884202D94FF66D
:10182000FF70DFE731461148FEF796FF0028EDD044
:1018300000250BE0012000F0DBF9681C054647F2AB
:101840003051884202D94FF6FF70CBE73146074846
:10185000FEF782FF0128EDD03A20B5FBF0F080B210
:10186000C0E70000A826000800080140000C014065
:1018700008B501210C20FFF79BFB4FF48070ADF8F9
:10188000000010208DF8030003208DF80200694647
:101890000948FEF78EFE4FF480710748FEF765FF9A
:1018A00004208DF803004FF47070ADF80000694615
:1018B0000248FEF77EFE08BD00080140000C014012
:1018C00070B505462846FFF785FF04464FF6FF70C2
:1018D000844201D1002070BD0A2C01DA0120FAE710
:1018E0000020F8E710B540F22551074800F02BF82A
:1018F00048B1054800F0E2F80449087040F225516B
:10190000014800F005F810BD004400400000002030
:1019100010B50022002340F66A14A14200D100BF96
:101920000A1201249440A3B2DC43048010BD21B10B
:10193000828942F40052828104E082894DF6FF736D
:101940001A408281704770B50246002400230025AA
:10195000002040F66A16B14200D100BFC1F3421523
:1019600001F01F03012606FA03F3012D02D1968927
:10197000334006E0022D02D1168A334001E0968AF8
:1019800033400C12012606FA04F41688344013B1D1
:101990000CB1012000E0002070BDF0B5034600242A
:1019A00000260025002040F66A17B94200D100BF8A
:1019B0001846C1F3421401F01F06012707FA06F585
:1019C000012C01D10C3004E0022C01D1103000E0D8
:1019D00014301AB107682F43076002E00768AF436D
:1019E0000760F0BD2DE9F04786B005460E4600249D
:1019F000A24600BFA1460027B08900B100BF2F4614
:101A00002C8A4CF6FF700440F08804432C82AC8989
:101A10004EF6F3100440B0883189084371890843B9
:101A20000443AC81AC8A4FF6FF400440B0890443C4
:101A3000AC8201A8FFF7CCFA1F48874202D1DDF83B
:101A400010A001E0DDF80CA0A88900F4004040B12E
:101A50000AEBCA0000EB0A1031684900B0FBF1F84C
:101A600007E00AEBCA0000EB0A1031688900B0FBFE
:101A7000F1F86420B8FBF0F004012009642101FBB7
:101A80001089A88900F4004040B1322000EBC90061
:101A9000B0FBF1F000F00700044308E0322000EB57
:101AA00009106421B0FBF1F000F00F0004432C8119
:101AB00006B0BDE8F0870000003801400146888884
:101AC000C0F30800704700BFFEE7000010B52348D0
:101AD000047804B910BD002020490870A4F1610009
:101AE000062837D2DFE800F003070B0F1320012090
:101AF000FFF7CAF92FE00220FFF7C6F92BE0032019
:101B0000FFF7C2F927E00420FFF7BEF923E0012028
:101B1000FFF7BAF90220FFF7B7F90320FFF7B4F98E
:101B20000420FFF7B1F916E00120FEF72BFDC820D5
:101B300000F038F80220FEF725FDC82000F032F84A
:101B40000320FEF71FFDC82000F02CF80420FEF74C
:101B500019FD00E000BF00BF00BFBBE70000002090
:101B600010B56FF00400FFF7E3FB0A4800680A496C
:101B7000B0FBF1F0094908700846007800EB40011D
:101B8000C1EBC0104FF6FF7101EAC00004490880A4
:101B900010BD00003400002000127A001A0000205E
:101BA0001C0000200146114A12884A434FF0E023EE
:101BB0005A6100229A611A46126942F001021A61C2
:101BC00000BF4FF0E022106900F001021AB100F4EA
:101BD0008032002AF5D04FF0E022126922F0010293
:101BE0004FF0E0231A6100229A6170471C00002028
:101BF0000146114A12784A434FF0E0235A6100220D
:101C00009A611A46126942F001021A6100BF4FF050
:101C1000E022106900F001021AB100F48032002ABB
:101C2000F5D04FF0E022126922F001024FF0E023DC
:101C30001A6100229A6170471A0000204FF4407028
:101C4000FEF75AFFFFF78CFFFEF728FCFEF710FEA9
:101C5000FEF7A0FEFEF778FCFEF7E8FFFFF72AFA92
:101C6000FEF7F0FDFFF704FEFEF7C4FB002416E0CC
:101C7000002004EB44011B4A02F8210004EB44015C
:101C800002EB8101486004EB440102EB8101087220
:101C9000611CC8B20021FEF7CDFE601CC4B2042C4A
:101CA000E6DBFEF733FF10A202210420FFF756F80F
:101CB00011A204211420FFF751F840F2DC50FFF785
:101CC00071FFFEF723FF0BE0FFF700FFFEF748FE72
:101CD000FEF714FCFFF7F8F8FFF77CF8FEF750FD6D
:101CE000F2E7000058000020536D617274205472B6
:101CF0006173682042696E00496E697469616C693C
:101D00007A696E672E2E00000000000000000000BF
:101D10000000000000000000000000F800000000CB
:101D2000000000333000000000100C06100C06000C
:101D3000000000000000000040C07840C078400073
:101D4000043F04043F040400007088FC08300000D5
:101D5000001820FF211E0000F008F000E01800002D
:101D600000211C031E211E0000F0088870000000E6
:101D70001E2123241927211010160E000000000038
:101D80000000000000000000000000E01804020055
:101D9000000000071820400000020418E0000000C6
:101DA0000040201807000000404080F080404000C4
:101DB0000202010F01020200000000F0000000001A
:101DC0000101011F010101000000000000000000EE
:101DD00080B0700000000000000000000000000063
:101DE00000010101010101010000000000000000EC
:101DF0000030300000000000000000008060180487
:101E0000006018060100000000E010080810E00063
:101E1000000F102020100F00001010F8000000002C
:101E20000020203F20200000007008080888700073
:101E300000302824222130000030088888483000F3
:101E40000018202020110E000000C02010F8000013
:101E500000070424243F240000F8088888080800AC
:101E60000019212020110E0000E0108888180000C1
:101E7000000F112020110E0000380808C838080093
:101E80000000003F00000000007088080888700013
:101E9000001C222121221C0000E010080810E00094
:101EA0000000312222110F00000000C0C00000001D
:101EB0000000003030000000000000800000000042
:101EC000000080600000000000008040201008003A
:101ED0000001020408102000404040404040400003
:101EE00004040404040404000008102040800000DE
:101EF0000020100804020100007048080808F000E3
:101F00000000003036010000C030C828E810E000B2
:101F10000718272423140B000000C038E00000003D
:101F2000203C23020227382008F8888888700000A7
:101F3000203F202020110E00C0300808080838007B
:101F4000071820202010080008F808080810E000F2
:101F5000203F202020100F0008F88888E808100093
:101F6000203F20202320180008F88888E808100067
:101F7000203F200003000000C0300808083800009F
:101F800007182020221E020008F808000008F808A0
:101F9000203F210101213F20000808F80808000027
:101FA0000020203F2020000000000808F80808005A
:101FB000C08080807F00000008F888C028180800D2
:101FC000203F20012638200008F80800000000000B
:101FD000203F20202020300008F8F800F8F8080002
:101FE000203F003F003F200008F830C00008F808FC
:101FF000203F200007183F00E01008080810E0000C
:102000000F10202020100F0008F808080808F00022
:10201000203F210101010000E01008080810E00045
:102020000F18242438504F0008F8888888887000DA
:10203000203F2000030C302000708808080838007A
:102040000038202121221C00180808F80808180070
:102050000000203F2000000008F808000008F808F1
:10206000001F202020201F000878880000C83808A2
:10207000000007380E010000F80800F80008F8001A
:10208000033C0700073C03000818688080681808B4
:1020900020302C03032C30200838C800C838080032
:1020A0000000203F2000000010080808C838080081
:1020B0002038262120201800000000FE0202020025
:1020C0000000007F40404000000C30C000000000D5
:1020D000000000010638C00000020202FE000000FD
:1020E000004040407F0000000000040202020400A3
:1020F00000000000000000000000000000000000E0
:1021000080808080808080800002020400000000C7
:1021100000000000000000000000808080800000BF
:102120000019242222223F2008F8008080000000AD
:10213000003F112020110E00000000808080000070
:10214000000E112020201100000000808088F8007F
:10215000000E112020103F200000808080800000B1
:10216000001F222222221300008080F08888881815
:102170000020203F20200000000080808080800020
:10218000006B94949493600008F8008080800000B5
:10219000203F210000203F20008098980000000090
:1021A0000020203F202000000000008098980000C0
:1021B00000C08080807F000008F8000080808000E0
:1021C000203F24022D302000000808F80000000005
:1021D0000020203F202000008080808080808000C0
:1021E000203F20003F20003F808000808080000052
:1021F000203F210000203F200000808080800000E0
:10220000001F202020201F00808000808000000010
:1022100080FFA12020110E0000000080808080003F
:10222000000E112020A0FF80808080008080800030
:1022300020203F212000010000008080808080005D
:102240000033242424241900008080E080800000D2
:102250000000001F2020000080800000008080001F
:10226000001F202020103F20808080000080808080
:1022700000010E3008060100808000800080808010
:102280000F300C030C300F00008080008080800035
:102290000020312E0E312000808080000080808060
:1022A00080818E7018060100008080808080800010
:1022B0000021302C2221300000000000807C02022E
:1022C00000000000003F404000000000FF00000050
:1022D00000000000FF0000000002027C80000000FF
:1022E0000040403F0000000000060101020204041B
:1022F00000000000000000001060028C0000FE9250
:1023000092929292FE000000000000000000000087
:10231000000000000000000004047E01407E4242F4
:102320007E427E42427E400000000000000000002D
:1023300000000000000000001060028C00FE92927D
:1023400092929292FE000000000000000000000047
:10235000000000000000000004047E014448507F9B
:1023600040407F5048444000000000000000000052
:1023700000000000000000000000FC242424FC25D4
:102380002624FC2424240400000000000000000097
:10239000000000000000000040308F80844C552574
:1023A0002525554C808080000000000000000000C2
:1023B00000000000000000004040424458C0407F40
:1023C00040C05048464040000000000000000000AF
:1023D000000000000000000080804020180700007E
:1023E000003F404040407800000000000000000036
:1023F000000000000000000000FE424242FE0042D9
:10240000A29E82A2C2BE00000000000000000000E8
:102410000000000000000000806F080828CF0000C6
:102420002FC8080828CF00000000000000000000AE
:1024300000000000000000000000FE021222C202A4
:10244000C23202FE00000000000000000000000098
:10245000000000000000000080601F0020100C033E
:102460000C30000F3040F8000000000000000000B9
:102470000000000000000000404042CC0004F49442
:1024800094FF9494F4040000000000000000000099
:1024900000000000000000000040201F20484442CF
:1024A000415F41424448400000000000000000003D
:1024B000000000000000000000F808080CCA4948AD
:1024C00048C8080808F800000000000000000000EC
:1024D000000000000000000000FF0000001F0808CE
:1024E000081F0040807F0000000000000000000086
:1024F00000000000000000000008884828180FE8CD
:10250000080808080808000000000000000000009B
:102510000000000000000000002011090541817F3B
:10252000010105091120000000000000000000006A
:10253000000000000000000004E4242464A4243F00
:1025400024A4642424E4040000000000000000002F
:10255000000000000000000000FF00080909097FDA
:1025600009090948807F0000000000000000000009
:1025700000000000000000000202E22222FE2222EF
:1025800022FE2222E2020200000000000000000001
:1025900000000000000000000000FF4844434040ED
:1025A00040434444FF000000000000000000000021
:1025B00000000000000000000020202020FF00009C
:1025C00000FF402010080000000000000000000094
:1025D00000000000000000002060201010FF00003C
:1025E000003F404040407800000000000000000034
:1025F000000000000000000002E22222222222FE4F
:102600002222222222E2020000000000000000003C
:10261000000000000000000000FF00000912007F21
:1026200000091240807F0000000000000000000050
:102630000000000000000000202020BEAAAAAAAAD4
:10264000AAAAAABE2020200000000000000000006E
:102650000000000000000000008080AFAAAAAAFFCE
:10266000AAAAAAAF808000000000000000000000BD
:1026700000000000000000000008014000080140C8
:10268000000C0140000C0140000C0140000C014016
:10269000000C0140000C014001000200002000403D
:1026A00000800800100020004000800000010002AF
:1026B000D8260008D0260008C0260008C826000832
:1026C0004B697463682000004F74686572200000D5
:1026D00048617A617264000052656379636C00003E
:1026E0000027000800000020480000006C010008DE
:1026F0004827000848000020A006000088010008C4
:1027000000010101010000000001020304010203B5
:102710000406070809020406080000000000000083
:1027200000000000000000000000000000000000A9
:102730000000000000A24A040000000000000000A9
:08274000010203040607080969
:0400000508000131BD
:00000001FF
