:020000040800F2
:10000000E0060020D5010008F90C00083F0C0008AC
:10001000F50C000841080008531500080000000016
:100020000000000000000000000000004D1100086A
:10003000D109000800000000271000086112000824
:10004000EF010008EF010008EF010008EF010008D0
:10005000EF010008EF010008D5090008EF010008D2
:10006000EF010008EF010008EF010008EF010008B0
:10007000EF010008EF010008EF010008EF010008A0
:10008000EF010008EF010008EF010008EF01000890
:10009000EF010008EF010008EF010008EF01000880
:1000A000EF010008EF010008EF010008EF01000870
:1000B000EF010008EF010008EF010008EF01000860
:1000C000EF010008EF010008EF010008EF01000850
:1000D000EF010008C5120008EF010008EF01000859
:1000E000EF010008EF010008EF010008EF01000830
:1000F000EF010008EF010008EF010008EF01000820
:10010000EF010008EF010008EF010008EF0100080F
:10011000EF010008EF010008EF010008EF010008FF
:10012000EF010008EF010008EF010008EF010008EF
:1001300000F002F800F03FF80AA090E8000C8244BA
:100140008344AAF10107DA4501D100F034F8AFF297
:10015000090EBAE80F0013F0010F18BFFB1A43F0A5
:10016000010318472424000044240000103A24BF4F
:1001700078C878C1FAD8520724BF30C830C144BF0C
:1001800004680C607047000000230024002500264E
:10019000103A28BF78C1FBD8520728BF30C148BFEA
:1001A0000B607047642900F07180002070471FB514
:1001B0001FBD10B510BD00F0BAF91146FFF7F7FFEB
:1001C00001F03CFA00F0D8F903B4FFF7F2FF03BCEA
:1001D00000F0E0F90948804709480047FEE7FEE7DC
:1001E000FEE7FEE7FEE7FEE7FEE7FEE7FEE7FEE7E7
:1001F00004480549054A064B70470000651200088F
:1002000031010008E0000020E0060020E0020020AC
:10021000E00200200FB41CB5074B06AA7B446946D8
:100220000090059800F06BF90020694600F07AF91B
:100230001CBC5DF814FB00000503000070B504460B
:1002400085690068C10601D5302600E02026C00778
:1002500007D070BDD4E9012130469047206A401C88
:1002600020626D1EF6D570BD70B5044685690078B4
:10027000C00707D170BDD4E9012120209047206A32
:10028000401C20626D1EF6D570BD00002DE9F041C6
:100290000646002410687529314616A510D0AFF324
:1002A0000080002802DA404213A507E031688A077F
:1002B00001D512A502E0490704D511A5012401E0EA
:1002C000AFF3008000210A2206F1240709E0B0FB09
:1002D000F2FCB0FBF2F302FB1C00303078541846FD
:1002E000491C0028F3D123462A463046BDE8F04198
:1002F00000F0A7B8000000002D0000002B00000057
:10030000200000002DE9F05F894604464FF0000A06
:10031000DFF824B1FB44C0F820A02046E1688847FC
:1003200000287DD0252806D0D4E901219047206AF5
:10033000401C2062F1E700255F462046E1688847BF
:100340002028064607DB312E05D2B81910F8200CFC
:1003500008B10543F1E7A80701D525F00405C4F865
:100360001CA00027C4F818A02A2E09D0304601F09E
:10037000F2F838B304EB8708303EC8F8186019E08B
:1003800059F8041B204604EB87029161E168884715
:10039000012F064618D1E069002820DA25F0200553
:1003A0001DE0D8F8180000EB800006EB4000303864
:1003B000C8F818002046E1688847064601F0CBF8E7
:1003C0000028EED1012F0AD02E2E08D12046E16858
:1003D00088477F1C0646022F45F02005C4DBA06934
:1003E000002803DA404245F00105A061E80701D08A
:1003F00025F01005A6B1A6F14100192802D8203633
:1004000045F400654A463146204625604D46FFF7D3
:10041000C9FE60B1012807D0ED1D25F0070000E0FE
:1004200007E000F1080978E705F1040975E73046AF
:100430007AE7206ABDE8F09F5C22000070477047B1
:1004400070472DE9F0470D4699469246044600F163
:1004500024080168880604D5E06921F010012160B4
:1004600000E00120A84201DD471B00E00027A16950
:100470007A1902EB0900081AA0612078C00602D49C
:100480002046FFF7DBFE002608E0D4E901211AF838
:1004900006009047206A401C761C20624E45F4DB23
:1004A0002078C0060AD52046FFF7C8FE06E0D4E94A
:1004B000012130209047206A401C2062381EA7F19D
:1004C0000107F4DC07E0D4E9012118F805009047A2
:1004D000206A401C2062281EA5F10105F3DC20469D
:1004E000FFF7C2FE2078000602D50220BDE8F087A3
:1004F0000120FBE701694A1C02610878704700B5DA
:100500008FB0CDE901310021059105497944CDE94C
:10051000031011466846FFF7F5FE0FB000BD00005E
:10052000E5FFFFFF0A6802F8010B0A607047754695
:1005300000F02CF8AE4605006946534620F007004F
:10054000854618B020B5FFF753FEBDE820404FF0B8
:1005500000064FF000074FF000084FF0000B21F0AD
:100560000701AC46ACE8C009ACE8C009ACE8C0097A
:10057000ACE8C0098D46704710B50446AFF3008063
:100580002046BDE81040FFF71FBE0000004870473E
:100590007C00002001491820ABBEFEE726000200C7
:1005A0007047000000B585B0002000908DF8040071
:1005B0008DF805004FF46020029000200390012088
:1005C0008DF8100069460D4800F086F801210B48AF
:1005D00000F056F8094800F003F900BF074800F0A2
:1005E00071F80028FAD1054800F00AF900BF034865
:1005F00000F051F80028FAD105B000BD00240140F8
:1006000008B501214FF4017000F01AFD4FF40040CD
:1006100000F00AFD0E20ADF8000000208DF8030068
:100620006946024800F06EFA08BD0000000801406B
:1006300010B50446052301222146094800F074F84C
:100640000121074800F0D1F800BF0221044800F062
:1006500030F80028F9D0024800F027F810BD00005B
:100660000024014010B50120FFF7E2FF0349088094
:100670000220FFF7DDFF0149488010BD180000206F
:1006800021B1826842F00102826003E0826822F0B8
:10069000010282607047014600208A6802F004026D
:1006A0000AB1012000E0002070470146C86C80B20A
:1006B00070470246002013680B400BB1012000E098
:1006C00000207047014600208A6802F008020AB143
:1006D000012000E00020704730B5024600200023D2
:1006E00050680F4C20400D790C6844EA05242043E3
:1006F000506090680B4C2040D1E902542C434D7956
:1007000044EA450420439060D06A20F470000C7CD9
:10071000641EE4B2234340EA0350D06230BD0000BF
:10072000FFFEF0FFFDF7F1FFF0B504460D46002097
:100730000021092D11DDE068A5F10A0606EB460748
:10074000072606FA07F18843A5F10A0606EB4606D6
:1007500003FA06F10843E0600CE0206905EB450769
:10076000072606FA07F1884305EB450603FA06F16A
:1007700008432061072A0FDA606B561E06EB8607D6
:100780001F2606FA07F18843561E06EB860605FA71
:1007900006F10843606322E00D2A0FDA206BD61FB2
:1007A00006EB86071F2606FA07F18843D61F06EBDD
:1007B000860605FA06F10843206310E0E06AA2F11C
:1007C0000D0606EB86071F2606FA07F18843A2F1FD
:1007D0000D0606EB860605FA06F10843E062F0BD59
:1007E000816841F008018160704721B1826842F45C
:1007F000A002826003E0826822F4A0028260704757
:10080000816841F0040181607047000008B5012152
:10081000082000F015FC0220ADF8000010208DF833
:10082000030003208DF802006946044800F06AF9CD
:100830000221024800F0FCF908BD0000000C014054
:1008400000BFFEE770B50025002427E000BF4FF48D
:100850008061144800F0E1F90028F8D0232000F06E
:10086000C7FE4FF480610F4800F0D7F901280ED180
:1008700000BF4FF480610B4800F0CFF90128F8D099
:10088000C4F1070101208840C0B2054304E0C4F16F
:100890000701012088408543601CC4B2082CD5DBC9
:1008A000284670BD000C014010B5044600F07EF8EB
:1008B0004FF48061264800F0B9F9122000F072FE72
:1008C0004FF48061224800F0B3F91E2000F090FE42
:1008D00000F05CF84FF480611D4800F09EF988BB81
:1008E00000BF4FF480611A4800F097F90028F8D053
:1008F00000BF4FF48061164800F08FF90128F8D04E
:10090000FFF7A0FF2070FFF79DFF6070FFF79AFFD1
:10091000A070FFF797FFE070FFF794FF207100F0E1
:1009200045F84FF480610A4800F082F92078617838
:100930000844A1780844E17808442179884202D12A
:10094000012010BD01E00120FBE70020F9E70000D5
:10095000000C014008B50121082000F071FB4FF4A4
:100960008060ADF8000010208DF8030003208DF8A2
:1009700002006946044800F0C5F84FF4806102485F
:1009800000F056F908BD0000000C014008B54FF416
:100990008060ADF8000048208DF8030069460248E9
:1009A00000F0B0F808BD0000000C014008B54FF49D
:1009B0008060ADF8000010208DF8030003208DF852
:1009C00002006946014800F09DF808BD000C014096
:1009D0007047000010B5012000F016F850B106482D
:1009E000007808B9012000E00020034908700120C8
:1009F00000F004F810BD0000240000200149086048
:100A00007047000014040140014600200022074BFB
:100A10001B6803EA0102054B14331B680B4013B13A
:100A20000AB1012000E000207047000000040140EE
:100A3000002123498279002A3AD00A4612680368C5
:100A40009A430B461A600A1D126803689A430B1DED
:100A50001A60027911440A6803681A430A60184A46
:100A60000832126803689A43154B08331A601A1D3E
:100A7000126803689A43124B0C331A604279102AA9
:100A80000ED11A1F126803681A430D4B08331A60FF
:100A90001A1D126803681A43094B0C331A600DE0E3
:100AA0000749427911440A6803681A430A6005E05D
:100AB000027911440A6803689A430A60704700008B
:100AC0000004014030B500228B071C0F0F2303FAEE
:100AD00004F20B4B8C1053F824309343084C8D10C8
:100AE00044F8253023468C1053F824308C07240F0B
:100AF00000FA04F42343024C8D1044F8253030BD35
:100B0000080001402DE9F0410246002500260020A2
:100B100000230024002791F803C00CF00F0591F882
:100B200003C00CF0100CBCF1000F03D091F802C010
:100B30004CEA050591F800C0BCF1000F31D01468F3
:100B400000202BE04FF0010C0CFA00F3B1F800C0CC
:100B50000CEA03069E4220D183004FF00F0C0CFAE2
:100B600003F7BC4305FA03FC4CEA040491F803C004
:100B7000BCF1280F06D14FF0010C0CFA00FCC2F8B2
:100B800014C00AE091F803C0BCF1480F05D14FF042
:100B9000010C0CFA00FCC2F810C0401C0828D1D38C
:100BA0001460B1F800C0BCF1FF0F34DD54680020C0
:100BB0002EE000F1080C4FF0010808FA0CF3B1F830
:100BC00000C00CEA03069E4221D183004FF00F0CB7
:100BD0000CFA03F7BC4305FA03FC4CEA040491F851
:100BE00003C0BCF1280F05D100F1080C08FA0CF87D
:100BF000C2F8148091F803C0BCF1480F07D100F18E
:100C0000080C4FF0010808FA0CF8C2F81080401CDC
:100C10000828CED35460BDE8F081024600209368D6
:100C20000B400BB1012000E000207047416170478C
:100C3000016170470AB1016100E04161704700BF86
:100C4000FEE700001FB50121092000F0F9F901209D
:100C5000ADF80C0048208DF80F0003A91148FFF7EC
:100C600051FF00210120FFF72DFF012001900020FE
:100C70008DF808000C208DF8090001208DF80A007D
:100C800001A8FFF7D5FE06208DF8000002208DF8A0
:100C900001008DF8020001208DF80300684600F085
:100CA0002DF81FBD000C014008B50121082000F0FF
:100CB000C7F94FF46040ADF8000010208DF8030034
:100CC00003208DF8020069460948FFF71BFF4FF427
:100CD00000510748FFF7ACFF4FF480410448FFF78D
:100CE000A7FF4FF400410248FFF7A2FF08BD000034
:100CF000000C014000BFFEE77047000070B5002106
:100D000000230F22C47804B3154C246804F4E06473
:100D1000C4F5E064210AC1F10403CA40447804FA2E
:100D200003F184781440214309010E4C0678A15543
:100D3000047804F01F050124AC4005786D11AD0066
:100D400005F1E025C5F8004109E0047804F01F052D
:100D50000124AC40044D0678761145F8264070BD5C
:100D60000CED00E000E400E080E100E070B500245C
:100D70000EE00021204600F0D2F8002504E000201B
:100D800000F041F9681CC5B2802DF8DB601CC4B2CC
:100D9000082CEEDB70BD000008B50121082000F032
:100DA0004FF9C020ADF8000014208DF80300032097
:100DB0008DF8020069460748FFF7A4FE0122402192
:100DC0000448FFF737FF012280210248FFF732FF76
:100DD00008BD0000000C014070B50546002413E07A
:100DE0008020204100EA050280210E48FFF722FF03
:100DF000012240210B48FFF71DFF00224021094836
:100E0000FFF718FF601CC4B2082CE9DB0122402167
:100E10000448FFF70FFF002240210248FFF70AFFB6
:100E200070BD0000000C014010B50122802109486E
:100E3000FFF700FF012240210648FFF7FBFE0022DA
:100E400080210448FFF7F6FE002240210148FFF709
:100E5000F1FE10BD000C014010B5002280210748B2
:100E6000FFF7E8FE012240210448FFF7E3FE0122DC
:100E700080210248FFF7DEFE10BD0000000C01409B
:100E800010B5FFF789FFAE2000F0ADF8D52000F0D7
:100E9000AAF8802000F0A7F8A82000F0A4F83F20CE
:100EA00000F0A1F8D32000F09EF8002000F09BF89D
:100EB000402000F098F8A12000F095F8C82000F03C
:100EC00092F8DA2000F08FF8122000F08CF88120E0
:100ED00000F089F8CF2000F086F8D92000F083F8E0
:100EE000F12000F080F8DB2000F07DF8302000F0E9
:100EF0007AF8A42000F077F8A62000F074F88D208E
:100F000000F071F8142000F06EF8AF2000F06BF8DC
:100F1000FFF72CFF0021084600F001F810BD70B566
:100F200004460D4605F1B001C8B200F05CF804F0CB
:100F30000F0000F058F8102141EA141000F053F8A7
:100F400070BD00002DE9F04106460C461746A7F19A
:100F5000200000F0FF087F2E02DD0026A01CC4B296
:100F600021463046FFF7DBFF002507E00F4901EB84
:100F70000811485D00F047F8681CC5B2082DF5DB84
:100F8000601CC1B23046FFF7CAFF002509E00749DF
:100F900001EB081205F10801505C00F034F8681C00
:100FA000C5B2082DF3DBBDE8F0810000041C000889
:100FB0002DE9F04104460F46154600260EE0AA5DD5
:100FC00039462046FFF7BEFF04F10800C4B2782C72
:100FD00002DD0024B81CC7B2701CC6B2A85D002890
:100FE000EDD1BDE8F08110B50446FFF71DFF782074
:100FF000FFF7F2FE0020FFF7EFFE2046FFF7ECFEC2
:10100000FFF72AFF10BD10B50446FFF70DFF78204B
:10101000FFF7E2FE4020FFF7DFFE2046FFF7DCFE91
:10102000FFF71AFF10BD704701460020034A5068C1
:1010300020F4404008435060704700000010024018
:1010400029B1064A92690243044B9A6104E0034ABB
:1010500092698243014B9A61704700000010024080
:1010600030B500210022002400232D4D6D6805F0CD
:101070000C0121B1042905D0082923D105E0294D0F
:10108000056022E0274D05601FE0254D6D6805F4E1
:101090007012234D6D6805F48034022505EB9242F1
:1010A0001CB9214D554305600BE01D4D6D6805F4DD
:1010B00000351DB11C4D5543056002E0194D5543E7
:1010C000056002E0174D056000BF00BF144D6D685C
:1010D00005F0F0010909154D6B5C0568DD404560C0
:1010E0000F4D6D6805F4E061090A104D6B5C4568B1
:1010F000DD4085600A4D6D6805F46051C90A0B4DED
:101100006B5C4568DD40C560054D6D6805F4404188
:10111000890B074D6B5CC568B5FBF3F5056130BD08
:101120000010024000127A0000093D00000000207B
:101130001000002001460020034A506820F0030000
:10114000084350607047000000100240704710B51F
:1011500000F002F810BD00000CB5002001900090D6
:101160003348006840F480303149086000BF30489F
:10117000006800F4003000900198401C0190009835
:1011800018B90198B0F5A06FF1D12948006800F4B2
:10119000003010B10120009001E000200090009884
:1011A000012843D12348006840F01000214908601D
:1011B0000846006820F0030008600846006840F018
:1011C000020008601A4840681949486008464068AB
:1011D00048600846406840F48060486008464068BF
:1011E00020F47C1048600846406840F4E8104860ED
:1011F0000846006840F08070086000BF0C48006836
:1012000000F000700028F9D00948406820F0030081
:10121000074948600846406840F00200486000BF47
:101220000348406800F00C000828F9D10CBD00000C
:101230000010024000200240042808D14FF0E021B5
:10124000096941F004014FF0E022116107E04FF01D
:10125000E021096921F004014FF0E022116170479B
:101260007047000010B51348006840F001001149B4
:10127000086008464068104908400E494860084622
:1012800000680E4908400B4908600846006820F4D1
:10129000802008600846406820F4FE0048604FF453
:1012A0001F008860FFF753FF4FF00060044908609B
:1012B00010BD0000001002400000FFF8FFFFF6FE26
:1012C00008ED00E010B540F22551054800F066F841
:1012D00020B1034800F01EF9C4B200BF10BD0000E9
:1012E0000038014021B1828942F40052828104E039
:1012F00082894DF6FF731A408281704710B586B01F
:101300000446012144F20500FFF79AFE4FF40070F5
:10131000ADF8140003208DF8160018208DF8170082
:1013200005A91C48FFF7EEFB4FF48060ADF81400F0
:1013300004208DF8170005A91648FFF7E3FB2520C8
:101340008DF8000003208DF801008DF802000120C7
:101350008DF803006846FFF7D1FC01940020ADF83A
:101360000800ADF80A00ADF80C00ADF810000C2034
:10137000ADF80E0001A9084800F060F8012240F223
:101380002551054800F034F801210348FFF7AAFF72
:1013900006B010BD000801400038014070B502469B
:1013A000002400230025002040F66A16B14200D137
:1013B00000BFC1F3421501F01F03012606FA03F333
:1013C000012D02D19689334006E0022D02D1168A02
:1013D000334001E0968A33400C12012606FA04F4E9
:1013E0001688344013B10CB1012000E0002070BD1C
:1013F000F0B50346002400260025002040F66A17B9
:10140000B94200D100BF1846C1F3421401F01F06D3
:10141000012707FA06F5012C01D10C3004E0022C5B
:1014200001D1103000E014301AB107682F43076073
:1014300002E00768AF430760F0BD00002DE9F04708
:1014400086B005460E460024A24600BFA1460027EE
:10145000B08900B100BF2F462C8A4CF6FF700440C3
:10146000F08804432C82AC894EF6F3100440B08817
:1014700031890843718908430443AC81AC8A4FF633
:10148000FF400440B0890443AC8201A8FFF7E8FDA7
:101490001F48874202D1DDF810A001E0DDF80CA062
:1014A000A88900F4004040B10AEBCA0000EB0A1022
:1014B00031684900B0FBF1F807E00AEBCA0000EB25
:1014C0000A1031688900B0FBF1F86420B8FBF0F035
:1014D00004012009642101FB1089A88900F400405F
:1014E00040B1322000EBC900B0FBF1F000F0070082
:1014F000044308E0322000EB09106421B0FBF1F056
:1015000000F00F0004432C8106B0BDE8F087000016
:101510000038014001468888C0F308007047000089
:1015200000BF0549098801F040010029F9D00249AE
:10153000091D0880704700000038014000B50246D0
:1015400003E012F8010BFFF7EBFF10780028F8D149
:1015500000BD00BFFEE730380A2801D201207047E5
:101560000020704710B50420FFF766FE09480068A8
:101570000949B0FBF1F0094908700846007800EB12
:101580004001C1EBC0104FF6FF7101EAC0000449F1
:10159000088010BD2800002000127A0014000020EE
:1015A000160000200146114A12884A434FF0E023FA
:1015B0005A6100229A611A46126942F001021A61C8
:1015C00000BF4FF0E022106900F001021AB100F4F0
:1015D0008032002AF5D04FF0E022126922F0010299
:1015E0004FF0E0231A6100229A6170471600002034
:1015F0000146114A12784A434FF0E0235A61002213
:101600009A611A46126942F001021A6100BF4FF056
:10161000E022106900F001021AB100F48032002AC1
:10162000F5D04FF0E022126922F001024FF0E023E2
:101630001A6100229A6170471400002008B500204A
:10164000FFF778FDFEF7DCFFFEF7ACFFFFF78AFF40
:10165000FFF716FCFFF728FBFFF7D8F8FFF7F2FAC1
:10166000FFF778F94FF41650FFF748FEFFF77EFBBF
:1016700060A200210846FFF79BFC60A20221002027
:10168000FFF796FC5FA204210020FFF791FCB0E079
:101690005E48FFF709F9012803D15C4880785C496E
:1016A0000870FEF7DFFF5B49088800F0CBF90646BB
:1016B000594900F0DBF905464FF08B4100F0E0F8A6
:1016C000044600F09FF9554908705249488800F0D7
:1016D000B9F90646504900F0C9F905464FF08B416B
:1016E00000F0CEF8044600F08DF94D4908704848E6
:1016F00002784CA14D48FEF78DFD4C4A0021302068
:10170000FFF756FC4548027849A14848FEF782FD9C
:10171000464A02213020FFF74BFC4148027847A19E
:101720004248FEF777FD414A04213020FFF740FC94
:101730003748007823280ADC38480078232806DB5D
:1017400037480078502802DC3E48007848B1022132
:101750003D48FFF76BFA3DA206210020FFF728FC69
:1017600008E002213848FFF763FA3AA20621002078
:10177000FFF71EFC29480078232805DA4FF40041C2
:101780003148FFF753FA04E04FF400412E48FFF7C9
:101790004FFA1F480078232805DD4FF480412A487E
:1017A000FFF744FA04E04FF480412748FFF740FA7E
:1017B0001B480078502805DD4FF400512248FFF700
:1017C00035FA04E04FF400511F48FFF731FA14488E
:1017D00000780090114803780D4802781FA1134843
:1017E000FEF718FD1148FFF7A9FE4FF4FA70FFF756
:1017F000D9FE4DE754656D703A00000048756D697B
:101800003A0000004C696768743A00001C00002030
:1018100021000020180000200000C8422200002003
:1018200023000020252D3264432020003C000020AE
:10183000252D33642025252000000000252D33644C
:101840004C75780024000020000C0140414C4152AE
:101850004D2000004E4F524D414C000054656D70BC
:101860003A2564432048756D693A25642525204C46
:10187000696768743A2564204C75780D0A00000089
:101880004FF47F0C1CEAD0121EBF1CEAD11392EA5F
:101890000C0F93EA0C0F00F0858090EA010F48BF0F
:1018A00042F4807240F4000C41F400002CF07F41BF
:1018B00020F07F4000B58142A2EB03020FF2081C2A
:1018C000ACEB504EC0F100009EF800E04FEA4E0E27
:1018D00000FB0EFC38BF49004FEA2C1C02F5FA024F
:1018E0000CFB0EF34FEACE1E4FEA112C4FEAC1213A
:1018F0000EEB635E42EB22420EFB0CFC4FEA1C53E4
:1019000000FB03114FEA112C4FEA01310EFB0CFCD6
:101910004FEADC4C00FB0C11C14228BF09184CEB0C
:1019200003335DF804EB10EB410143EBC250B2F519
:101930007C0F38BF704729D512F0F00F1CBF00F1A3
:10194000C04000F000407047008182838485868714
:1019500088898B8C8D8E8F919293959697999A9C6E
:101960009D9FA0A2A3A5A7A8AAACAEB0B2B3B5B7DD
:10197000B9BCBEC0C2C5C7C9CCCED1D4D7D9DCDFB3
:10198000E2E6E9ECF0F3F7FAFE0000004FEA400C63
:101990000CF1807CBCF17E4F28BF7047B0F1C04095
:1019A00000F02BB990EA010F0CEAD11348BF42F4C2
:1019B0008072624538BF634507D213F47F0F16D09B
:1019C00080EA010000F00040704710B500F0CFF849
:1019D000097EFC3E00F005B880EA010000F00040FE
:1019E000704780EA010000F0004000F006B912F4F0
:1019F0007F0F04BF0248704780EA010000F0FDB885
:101A00000000C07FC10DD1F19E0206DB4FEA00232A
:101A100043F0004323FA02F07047004207D54FEA33
:101A20004001B1F1FE4F02D24FF00000704710B5F7
:101A300000F09DF849922480002070476FEA200052
:101A400070470000B0FA80F310FA03F2C3F19D036F
:101A50000AD0D90501EB1220530638BF704700F1B8
:101A6000010008BF20F00100704700004FF47F0C18
:101A70001CEAD0121EBF1CEAD11392EA0C0F93EAA3
:101A80000C0F00F0478090EA010F48BF42F48072CB
:101A90004FF0004C4CEA00204CEA012102EB03021B
:101AA000A0FB0113A2F50002002918BF43F00103B7
:101AB0005B0028BF4FEA330342EB22425FEA132C5C
:101AC0004CEBC2502EBFBCEB436FB2F57C0F70479E
:101AD0004FEA036CBCF1004F08BF20F00100B2F5E3
:101AE0007C0F38BF70470BD582F0FF0212F5803FA4
:101AF000C8BF704700F1C040D8BF00F00040704739
:101B000000F5000C5FEA4C0C48BF7047B0F1C040D4
:101B100000F073B890EA010F0CEAD11348BF42F409
:101B20008072624538BF634504D280EA010000F04C
:101B30000040704710B500F01AF800BF8900013E60
:101B400000F007B800F009B85FEA410C5FEA1C6CCE
:101B500008D080EA010000F050B85FEA400C5FEA6C
:101B60001C6CF6D14FF00040A0F5800070470EF1DC
:101B7000020E2EF0030E5EF8044B244204D44FEA0A
:101B80004102B2F17F4F11D84FEA4003B3F17F4FCA
:101B90000CD80ED14FEAD07CB2F17F4F0CEB4C0C3D
:101BA0000CF1020C08BF4CEBD17C04E04FF0080CA8
:101BB00001E04FEAD17C0CEB4C0324FA03F404F06F
:101BC0000704B4F1040C06D20EEB840CBDE81040FF
:101BD0004CF0010C6047DFE80CF0070802024FF000
:101BE0000040A0F5800010BD0846420018BFD2F1A9
:101BF000807288BF00F0004010BDFF2141EAD05044
:101C0000C005704700000000000000000000000058
:101C100000000000000000F8000000000000003399
:101C20003000000000100C06100C06000000000040
:101C30000000000040C07840C0784000043F040429
:101C40003F040400007088FC08300000001820FFEA
:101C5000211E0000F008F000E018000000211C0325
:101C60001E211E0000F00888700000001E212324A1
:101C70001927211010160E000000000000000000BF
:101C800000000000000000E018040200000000074F
:101C90001820400000020418E00000000040201856
:101CA00007000000404080F0804040000202010F29
:101CB00001020200000000F0000000000101011F0D
:101CC00001010100000000000000000080B0700071
:101CD0000000000000000000000000000001010101
:101CE0000101010100000000000000000030300090
:101CF000000000000000000080601804006018066A
:101D00000100000000E010080810E000000F1020A3
:101D100020100F00001010F8000000000020203FED
:101D20002020000000700808088870000030282477
:101D30002221300000300888884830000018202018
:101D400020110E000000C02010F80000000704243D
:101D5000243F240000F80888880808000019212082
:101D600020110E0000E0108888180000000F1120DC
:101D700020110E0000380808C83808000000003F95
:101D8000000000000070880808887000001C2221F4
:101D900021221C0000E010080810E00000003122A1
:101DA00022110F00000000C0C00000000000003041
:101DB0003000000000000080000000000000806093
:101DC0000000000000008040201008000001020414
:101DD00008102000404040404040400004040404FB
:101DE00004040400000810204080000000201008B7
:101DF00004020100007048080808F00000000030EC
:101E000036010000C030C828E810E0000718272479
:101E100023140B000000C038E0000000203C230227
:101E20000227382008F8888888700000203F20208A
:101E300020110E00C03008080808380007182020BC
:101E40002010080008F808080810E000203F2020B3
:101E500020100F0008F88888E8081000203F202094
:101E60002320180008F88888E8081000203F200088
:101E700003000000C03008080838000007182020C0
:101E8000221E020008F808000008F808203F21017F
:101E900001213F20000808F8080800000020203F2A
:101EA0002020000000000808F8080800C08080809A
:101EB0007F00000008F888C028180800203F200193
:101EC0002638200008F8080000000000203F2020ED
:101ED0002020300008F8F800F8F80800203F003F04
:101EE000003F200008F830C00008F808203F20001C
:101EF00007183F00E01008080810E0000F1020202D
:101F000020100F0008F808080808F000203F210101
:101F100001010000E01008080810E0000F18242458
:101F200038504F0008F8888888887000203F2000CB
:101F3000030C302000708808080838000038202181
:101F400021221C00180808F8080818000000203F8B
:101F50002000000008F808000008F808001F2020F2
:101F600020201F000878880000C8380800000738C3
:101F70000E010000F80800F80008F800033C070014
:101F8000073C0300081868808068180820302C037C
:101F9000032C30200838C800C83808000000203F53
:101FA0002000000010080808C83808002038262142
:101FB00020201800000000FE020202000000007F46
:101FC00040404000000C30C0000000000000000154
:101FD0000638C00000020202FE000000004040403F
:101FE0007F00000000000402020204000000000064
:101FF00000000000000000000000000080808080E1
:1020000080808080000202040000000000000000C8
:102010000000000000008080808000000019242261
:1020200022223F2008F8008080000000003F11209D
:1020300020110E000000008080800000000E1120A2
:1020400020201100000000808088F800000E112080
:1020500020103F200000808080800000001F22228E
:1020600022221300008080F0888888180020203FFA
:10207000202000000000808080808000006B94940D
:102080009493600008F8008080800000203F2100C9
:1020900000203F2000809898000000000020203F92
:1020A00020200000000000809898000000C0808080
:1020B000807F000008F8000080808000203F24021C
:1020C0002D302000000808F8000000000020203F0C
:1020D000202000008080808080808000203F2000C1
:1020E0003F20003F8080008080800000203F210052
:1020F00000203F200000808080800000001F202002
:1021000020201F00808000808000000080FFA12030
:1021100020110E000000008080808000000E112041
:1021200020A0FF80808080008080800020203F21D0
:102130002000010000008080808080000033242483
:1021400024241900008080E0808000000000001F2F
:10215000202000008080000000808000001F2020E0
:1021600020103F20808080000080808000010E30A1
:102170000806010080800080008080800F300C0302
:102180000C300F0000808000808080000020312E05
:102190000E312000808080000080808080818E70E1
:1021A0001806010000808080808080000021302C93
:1021B0002221300000000000807C020200000000AC
:1021C000003F404000000000FF0000000000000051
:1021D000FF0000000002027C800000000040403F41
:1021E00000000000000601010202040400000000DB
:1021F000000000001060028C0000FE929292929209
:10220000FE000000000000000000000000000000D0
:102210000000000004047E01407E42427E427E4275
:10222000427E4000000000000000000000000000AE
:10223000000000001060028C00FE92929292929236
:10224000FE00000000000000000000000000000090
:102250000000000004047E014448507F40407F504D
:1022600048444000000000000000000000000000A2
:10227000000000000000FC242424FC252624FC246B
:102280002424040000000000000000000000000002
:102290000000000040308F80844C55252525554C8A
:1022A00080808000000000000000000000000000AE
:1022B000000000004040424458C0407F40C05048A9
:1022C0004640400000000000000000000000000048
:1022D000000000008080402018070000003F4040C0
:1022E00040407800000000000000000000000000F6
:1022F0000000000000FE424242FE0042A29E82A276
:10230000C2BE00000000000000000000000000004D
:1023100000000000806F080828CF00002FC80808C0
:1023200028CF0000000000000000000000000000B6
:10233000000000000000FE021222C202C23202FEB1
:10234000000000000000000000000000000000008D
:102350000000000080601F0020100C030C30000FF4
:102360003040F80000000000000000000000000005
:1023700000000000404042CC0004F49494FF949488
:10238000F404000000000000000000000000000055
:10239000000000000040201F20484442415F4142AD
:1023A0004448400000000000000000000000000061
:1023B0000000000000F808080CCA494848C808088E
:1023C00008F800000000000000000000000000000D
:1023D0000000000000FF0000001F0808081F004068
:1023E000807F0000000000000000000000000000EE
:1023F000000000000008884828180FE808080808AE
:1024000008080000000000000000000000000000BC
:1024100000000000002011090541817F010105092C
:10242000112000000000000000000000000000007B
:102430000000000004E4242464A4243F24A46424B1
:1024400024E4040000000000000000000000000080
:102450000000000000FF00080909097F0909094878
:10246000807F00000000000000000000000000006D
:10247000000000000202E22222FE222222FE22228C
:10248000E202020000000000000000000000000066
:10249000000000000000FF484443404040434444E3
:1024A000FF0000000000000000000000000000002D
:1024B000000000000020202020FF000000FF40203E
:1024C00010080000000000000000000000000000F4
:1024D000000000002060201010FF0000003F40407E
:1024E00040407800000000000000000000000000F4
:1024F0000000000002E22222222222FE22222222C8
:1025000022E20200000000000000000000000000C5
:102510000000000000FF00000912007F00091240C7
:10252000807F0000000000000000000000000000AC
:1025300000000000202020BEAAAAAAAAAAAAAABE19
:10254000202020000000000000000000000000002B
:1025500000000000008080AFAAAAAAFFAAAAAAAF22
:10256000808000000000000000000000000000006B
:10257000000000000400000800000000000000024D
:102580000001000010000000A82500080000002045
:102590003C0000006C010008E42500083C0000201D
:1025A000A4060000880100080000000001020304E6
:1025B00001020304060708090204060800000000DF
:1025C000000000000000000000000000000000000B
:1025D00000A24A0400000000000000000102030401
:0425E00006070809D9
:0400000508000131BD
:00000001FF
